:1000000000F0D9EF00F0BEF0FFFF4782FACF06F014
:10001000FBCF07F0E9CF08F0EACF09F0E1CF0AF013
:10002000E2CF0BF0D9CF0CF0DACF0DF0F3CF0EF01A
:10003000F4CF0FF0F6CF10F0F7CF11F0F8CF12F0A9
:10004000F5CF13F047C014F048C015F049C016F0C2
:100050004AC017F0F2BAF2A408D0F294010E0001DF
:10006000FB6FFEC0D7FFFFC0D6FFFFFF9DB89EA865
:1000700026D04550010D4E0EF324D96E010EF4200A
:10008000DA6EDF50D8B412D04550010D4E0EF32475
:10009000D96E010EF420DA6EDF50AD6E452A280EBF
:1000A00045640DD0000E456E030E05D0FFFFAD5028
:1000B000000E456E020EFFFF0001F96F9D98FFFFD5
:1000C0009DBA9EAA4ED0AB50060B186E1850D8A4FD
:1000D0003FD04650010D910EF324D96E010EF4204D
:1000E000DA6EAECFDFFF462A140E466401D033D05D
:1000F000FFFFFF0E016EFF0E026E4650036E046A94
:100100000150032602500422910E0324D96E010EE1
:100110000420DA6E0D0EDE18D8A423D0FF0E016E77
:10012000FF0E026E4650036E046A01500326025011
:100130000422910E0324D96E010E0420DA6E000E03
:10014000DF6E010E0001FA6F000E466E9D9A09D017
:10015000FFFFAB98AB88FFFF000E466E030E000159
:10016000FA6FFFFF17C04AF016C049F015C048F0FB
:1001700014C047F013C0F5FF12C0F8FF11C0F7FF1D
:1001800010C0F6FF0FC0F4FF0EC0F3FF0DC0DAFF82
:100190000CC0D9FF0BC0E2FF0AC0E1FF09C0EAFFB3
:1001A00008C0E9FF07C0FBFF06C0FAFF4792110035
:1001B000FFFFAFEF2BF0FFFF000E0001AF6F000E4F
:1001C000AE6F5BEF08F0FFFF250E0001BF19D8B43A
:1001D0003FD0000120EE02F09951D9269A51DA223F
:1001E000DE50DE10D8B418D0000120EE02F0995194
:1001F000D9269A51DA2201D825D0FFFF0500FA6EE0
:10020000DE50FD6EDE50FE6EF850FF6EFA500001BB
:10021000BF511200FFFF16D0FFFF99C0D9FF9AC04F
:10022000DAFFDECF9FF0DDCFA0F09FC0D9FFA0C0E6
:10023000DAFFBFC0DFFF99C0D9FF9AC0DAFFDE2A1C
:10024000000EDD22FFFF0001AE4BAF2B5BEF08F08D
:10025000FFFF000E0001AD6F000EAC6F9BC0F6FFFC
:100260009CC0F7FF0800FFFFF5502E0AD8A438D035
:100270000001AD8D00019B4B9C2B000E0001BE6F59
:10028000000EBD6F20D0FFFFBDC027F0BEC028F01C
:10029000000E2A6E0A0E296E10EC29F09BC0F6FFA4
:1002A0009CC0F7FF0800FFFFF5502726000E28220C
:1002B000D00E27240001BD6FFF0E28200001BE6F65
:1002C00000019B4B9C2BFFFF9BC0F6FF9CC0F7FFE0
:1002D0000800FFFFF5508AEC28F0D8A0E2D0D3D771
:1002E000FFFF000E0001BE6F000EBD6F0001AD8963
:1002F000D8D0FFFF0001AD85F4D0FFFF9DC0D9FF2E
:100300009EC0DAFFDFCF9FF0020EDE26DFCFA0F027
:10031000000EDD229FC0D9FFA0C0DAFFDECFAAF019
:10032000DDCFABF00001AA510001AB11D8A406D07B
:10033000620E0001AA6F7F0E0001AB6FFFFF000E7F
:100340000001A96F000EA86F04D0FFFF0001A84BA9
:10035000A92BFFFF0001A8510001AA2500019F6FF2
:100360000001A9510001AB210001A06F9FC0F6FF61
:10037000A0C0F7FFF86A050EF76404D00800FFFF7D
:10038000F55005D0F6CFE1FFF7CFE2FFE7500009C7
:10039000D8A4DBD70001BD510001BE11D8B473D081
:1003A0000001A8510001BD5D0001A9510001BE5925
:1003B000D8B069D0BDC0A8F0BEC0A9F064D0FFFF1E
:1003C000000120EE02F09951D9269A51DA22DE502E
:1003D000DE10D8B42BD0000120EE02F09951D926BE
:1003E0009A51DA2201D81DD0FFFF0500FA6EDE50C7
:1003F000FD6EDE50FE6EF850FF6EFA50AAC0F6FF9A
:10040000ABC0F7FFF86A050EF76404D00800FFFFE1
:10041000F55005D0F6CFE1FFF7CFE2FFE75012002D
:10042000FFFFFFFF0001AA4BAB2B29D0FFFFAAC0A3
:10043000F6FFABC0F7FFF86A99C0D9FF9AC0DAFFA0
:10044000DECF9FF0DDCFA0F09FC0D9FFA0C0DAFFC4
:10045000050EF76404D00800FFFFF55005D0F6CF75
:10046000E1FFF7CFE2FFE750DF6E0001AA4BAB2BB5
:1004700099C0D9FF9AC0DAFFDE2A000EDD22FFFF05
:100480000001AE4BAF2BFFFF0001A807D8A0A907C2
:100490000001A82995E10001A929D8B45BEF08F073
:1004A0008ED7FFFF9BC0F6FF9CC0F7FF00019B4B60
:1004B0009C2B0800FFFFF5CFBFF00001BF51000AE1
:1004C000D8B46CEF08F0640AD8B40BD0020AD8B4E0
:1004D00010D70F0AD8B405D01A0AD8B40ED75BEFDC
:1004E00008F0FFFF070E0001AD15D8B4F2EF06F0DB
:1004F0000001ADA905D0000E0001BE6F060EBD6F54
:10050000FFFF9DC0D9FF9EC0DAFFDFCF9FF0030E33
:10051000DE26DFCFA0F0000EDD229FC0D9FFA0C0F5
:10052000DAFFDECFBAF0DECFBBF0DDCFBCF00001EA
:10053000BCAF11D0BAC01CF0BBC01DF0BCC01EF0D7
:10054000FBEC28F01CC0BAF01DC0BBF01EC0BCF014
:10055000030E0001AC13FFFF000E0001B16F000E8F
:10056000B06F0001BA510001BB110001BC11D8B439
:1005700095D0820E00019F6FFF0E0001A06FBAC0E0
:10058000A1F0BBC0A2F0BCC0A3F0BDC0A4F0100E8F
:1005900007D0FFFF0001D890A433A333A233A133C7
:1005A000FFFFE82EF6D70001A15100019F250001B1
:1005B000B06F000E0001A0210001B16F0001B00773
:1005C000D8A0B107B0C027F0B1C028F0000E2A6E45
:1005D000030E296E10EC29F027C0B0F028C0B1F04E
:1005E000B0C01FF0B1C020F0000E226E0A0E216EC6
:1005F0002EEC31F01FC0B0F020C0B1F00001B1AF5F
:1006000004D00001B007D8A0B107FFFF0001B0512E
:10061000000881EC12F07BC0B6F07CC0B7F07DC062
:10062000B8F0B6C06CF0B7C06DF0B8C06EF0BAC02C
:100630006FF0BBC070F0BCC071F053EC3CF06CC00C
:10064000B6F06DC0B7F06EC0B8F0B6C01FF0B7C05E
:1006500020F0B8C021F0000E226E800E236E3F0EF7
:10066000246E7AEC31F0D8B005D00001B007D8A0E4
:10067000B10714D0FFFFB6C01FF0B7C020F0B8C05C
:1006800021F0000E226E200E236E410E246E7AECB5
:1006900031F0D8A003D00001B04BB12BFFFF000117
:1006A000BEBF08D00001BE511FE10D0E0001BD5DAF
:1006B000D8B019D0FFFFBAC060F0BBC061F0BCC0B9
:1006C00062F00001BD5112EC1AF07BC063F07CC0F7
:1006D00064F07DC065F045EC16F060C0BAF061C012
:1006E000BBF062C0BCF0FFFF0001B1BF08D0000149
:1006F000B1512CE10A0E0001B05DD8B026D0FFFF49
:100700000001BA510001BB110001BC11D8B462D084
:10071000BAC08AF0BBC08BF0BCC08CF016EC3BF0CA
:1007200000018A5100018B1100018C1100018D1113
:10073000D8A450D00001B1BF4DD00001B15106E1A5
:10074000020E0001B05DD8A045D0FFFFB6C01FF07B
:10075000B7C020F0B8C021F0700E226E890E236E53
:10076000400E246E7AEC31F0D8B003D00001F70EC1
:1007700003D0FFFF0001F80EFFFFB027FF0EB123EB
:100780000001B05181EC12F07BC0B6F07CC0B7F034
:100790007DC0B8F0BAC019F0BBC01AF0BCC01BF0E5
:1007A000B6C01CF0B7C01DF0B8C01EF0CCEC38F0DD
:1007B00019C0B2F01AC0B3F01BC0B4F01CC0B5F041
:1007C000000E0001BA6F000E0001BB6F000E0001A9
:1007D000BC6F34D0FFFFBAC08AF0BBC08BF0BCC086
:1007E0008CF016EC3BF08AC0B2F08BC0B3F08CC03A
:1007F000B4F08DC0B5F0BAC06CF0BBC06DF0BCC039
:100800006EF0B2C021F0B3C022F0B4C023F0B5C086
:1008100024F057EC2DF021C06FF022C070F023C0FF
:1008200071F023EC2CF06CC0BAF06DC0BBF06EC060
:10083000BCF0000E0001B16F000EB06FFFFF010EA3
:100840000001BF6FFFFF0A0E0001BF19D8B422D00C
:100850000001BF51040D230EF324F66E7D0EF4202B
:10086000F76E0900FFFFF5500001B25D0900FFFFC0
:10087000F5500001B3590900FFFFF5500001B459CC
:100880000900FFFFF5500001B559D8A003D00001C1
:10089000BF2BD8D7FFFF030E0001AC1500019F6FDF
:1008A000000E0001AD150001A06F00019F51000175
:1008B000A011D8B4B8D0000120EE02F09951D92689
:1008C0009A51DA22DE50DE10D8B417D0000120EEA3
:1008D00002F09951D9269A51DA2201D8A0D0FFFF0F
:1008E0000500FA6EDE50FD6EDE50FE6EF850FF6EB3
:1008F000FA502D0E1200FFFF92D0FFFF99C0D9FFD2
:100900009AC0DAFFDECF9FF0DDCFA0F09FC0D9FF05
:10091000A0C0DAFF2D0E7AD0FFFFB2C019F0B3C02D
:100920001AF0B4C01BF0B5C01CF00001BF51040D9B
:10093000230EF324F66E7D0EF420F76E0900FFFF00
:10094000F5CF1DF00900FFFFF5CF1EF00900FFFFF6
:10095000F5CF1FF00A00FFFFF5CF20F09DEC30F03F
:1009600019C0B6F01AC0B7F01BC0B8F01CC0B9F07F
:10097000B6C026F0B7C027F0B8C028F0B9C029F03B
:100980000A0E2A6E000E2B6E000E2C6E000E2D6EBF
:100990005DEC2EF026C0B6F027C0B7F028C0B8F046
:1009A00029C0B9F0000120EE02F09951D9269A51E0
:1009B000DA22DE50DE10D8B419D0000120EE02F0A9
:1009C0009951D9269A51DA2201D829D0FFFF050082
:1009D000FA6EDE50FD6EDE50FE6EF850FF6EFA507D
:1009E0000001B651300F1200FFFF19D0FFFF0001C8
:1009F000B651300F99C0D9FF9AC0DAFFDECF9FF011
:100A0000DDCFA0F09FC0D9FFA0C0DAFFFFFFDF6EEF
:100A100099C0D9FF9AC0DAFFDE2A000EDD22FFFF5F
:100A20000001AE4BAF2BFFFF0001BF070001BF2944
:100A3000D8B442D071D7FFFF000120EE02F09951E7
:100A4000D9269A51DA22DE50DE10D8B417D0000130
:100A500020EE02F09951D9269A51DA2201D824D0F9
:100A6000FFFF0500FA6EDE50FD6EDE50FE6EF850A0
:100A7000FF6EFA50300E1200FFFF16D0FFFF99C034
:100A8000D9FF9AC0DAFFDECF9FF0DDCFA0F09FC084
:100A9000D9FFA0C0DAFF300EDF6E99C0D9FF9AC02F
:100AA000DAFFDE2A000EDD22FFFF0001AE4BAF2B86
:100AB0000001B007D8A0B107FFFF0001B1BF07D008
:100AC0000001B151B9E10001B005D8B0B4D7FFFFC2
:100AD0000001BEBF0CD00001BE5105E1090E0001AE
:100AE000BD5DD8A004D0080E0001BF6F03D0FFFF8A
:100AF000BDC0BFF0FFFF0001BF510001BD5F000E90
:100B00000001BFBFFF0E0001BE5B0001BF5100012D
:100B1000D8B43CD0000120EE02F09951D9269A5168
:100B2000DA22DE50DE10D8B417D0000120EE02F039
:100B30009951D9269A51DA2201D824D0FFFF050015
:100B4000FA6EDE50FD6EDE50FE6EF850FF6EFA500B
:100B50002E0E1200FFFF16D0FFFF99C0D9FF9AC0DA
:100B6000DAFFDECF9FF0DDCFA0F09FC0D9FFA0C09D
:100B7000DAFF2E0EDF6E99C0D9FF9AC0DAFFDE2AA7
:100B8000000EDD22FFFF0001AE4BAF2BFFFF000187
:100B9000BF5181EC12F07BC0A5F07CC0A6F07DC0F7
:100BA000A7F0BAC06FF0BBC070F0BCC071F0A5C0B8
:100BB0006CF0A6C06DF0A7C06EF053EC3CF06CC0BA
:100BC0008AF06DC08BF06EC08CF016EC3BF08AC0E2
:100BD000B2F08BC0B3F08CC0B4F08DC0B5F0B1D022
:100BE000FFFFB2C019F0B3C01AF0B4C01BF0B5C01B
:100BF0001CF00001BF51040D230EF324F66E7D0E90
:100C0000F420F76E0900FFFFF5CF1DF00900FFFF8C
:100C1000F5CF1EF00900FFFFF5CF1FF00A00FFFF20
:100C2000F5CF20F09DEC30F019C0B6F01AC0B7F047
:100C30001BC0B8F01CC0B9F0B6C026F0B7C027F092
:100C4000B8C028F0B9C029F00A0E2A6E000E2B6E2B
:100C5000000E2C6E000E2D6E5DEC2EF026C0B6F050
:100C600027C0B7F028C0B8F029C0B9F0000120EEC5
:100C700002F09951D9269A51DA22DE50DE10D8B40A
:100C800019D0000120EE02F09951D9269A51DA22AA
:100C900001D828D0FFFF0500FA6EDE50FD6EDE5051
:100CA000FE6EF850FF6EFA500001B651300F120080
:100CB000FFFF18D0FFFF0001B651300F99C0D9FFD8
:100CC0009AC0DAFFDECF9FF0DDCFA0F09FC0D9FF42
:100CD000A0C0DAFFDF6E99C0D9FF9AC0DAFFDE2A22
:100CE000000EDD22FFFF0001AE4BAF2BB2C026F09D
:100CF000B3C027F0B4C028F0B5C029F00001BF513F
:100D0000040D230EF324F66E7D0EF420F76E090019
:100D1000FFFFF5CF2AF00900FFFFF5CF2BF0090008
:100D2000FFFFF5CF2CF00A00FFFFF5CF2DF05DECB3
:100D30002EF026C0B2F027C0B3F028C0B4F029C00E
:100D4000B5F0FFFF0001BF070001BF29D8B442D0B2
:100D500047D7FFFF000120EE02F09951D9269A51A2
:100D6000DA22DE50DE10D8B417D0000120EE02F0F7
:100D70009951D9269A51DA2201D824D0FFFF0500D3
:100D8000FA6EDE50FD6EDE50FE6EF850FF6EFA50C9
:100D9000300E1200FFFF16D0FFFF99C0D9FF9AC096
:100DA000DAFFDECF9FF0DDCFA0F09FC0D9FFA0C05B
:100DB000DAFF300EDF6E99C0D9FF9AC0DAFFDE2A63
:100DC000000EDD22FFFF0001AE4BAF2B0001BD077F
:100DD000D8A0BE07FFFF0001BD510001BE11D8B46D
:100DE0006AD1B7D7FFFF9DC0D9FF9EC0DAFFDFCF22
:100DF0009FF0020EDE26DFCFA0F0000EDD229FC0A6
:100E0000D9FFA0C0DAFFDECFB2F0DDCFB3F0000132
:100E1000000EB3BFFF0EB46FB56F0001B5AF0CD0BD
:100E2000030E0001AC130001B51FB41FB31FB26D58
:100E3000000EB323B423B523FFFF0001BD51000111
:100E4000BE11D8A40DD00001B2510001B3110001B0
:100E5000B4110001B511D8A403D00001BD4BBE2BC5
:100E6000FFFF010E0001BF6FFFFF0A0E0001BF1957
:100E7000D8B422D00001BF51040D230EF324F66E26
:100E80007D0EF420F76E0900FFFFF5500001B25D02
:100E90000900FFFFF5500001B3590900FFFFF550AD
:100EA0000001B4590900FFFFF5500001B559D8A061
:100EB00003D00001BF2BD8D7FFFF800E0001BFBFBA
:100EC0007F0E00019F6F0001BD510001BF5D000159
:100ED000BE51800A00019F59D8B003D0BDC0BFF0F9
:100EE00019D0FFFF0001BE51800A00019F6F000171
:100EF000BF510001BD5D800E0001BFBF7F0E00012C
:100F00009F59D8B007D00001BF510001BD6FBE6B23
:100F1000BDBFBE07FFFF030E0001AC1500019F6FB0
:100F2000000E0001AD150001A06F00019F510001EE
:100F3000A011D8B4B4D0000120EE02F09951D92606
:100F40009A51DA22DE50DE10D8B417D0000120EE1C
:100F500002F09951D9269A51DA2201D89CD0FFFF8C
:100F60000500FA6EDE50FD6EDE50FE6EF850FF6E2C
:100F7000FA502D0E1200FFFF8ED0FFFF99C0D9FF4F
:100F80009AC0DAFFDECF9FF0DDCFA0F09FC0D9FF7F
:100F9000A0C0DAFF2D0EDF6E76D0FFFFBDC09FF040
:100FA000BEC0A0F00001D8909F37A0370001D890B4
:100FB0009F37A037230E00019F25F66E7D0EA021DE
:100FC000F76E0900FFFFF5CF1DF00900FFFFF5CF19
:100FD0001EF00900FFFFF5CF1FF00A00FFFFF5CF5D
:100FE00020F0B2C019F0B3C01AF0B4C01BF0B5C005
:100FF0001CF09DEC30F019C026F01AC027F01BC081
:1010000028F01CC029F00A0E2A6E000E2B6E000E6E
:101010002C6E000E2D6E5DEC2EF02650300F000170
:10102000BF6F000120EE02F09951D9269A51DA22C1
:10103000DE50DE10D8B418D0000120EE02F0995135
:10104000D9269A51DA2201D826D0FFFF0500FA6E80
:10105000DE50FD6EDE50FE6EF850FF6EFA5000015D
:10106000BF511200FFFF17D0FFFF99C0D9FF9AC0F0
:10107000DAFFDECF9FF0DDCFA0F09FC0D9FFA0C088
:10108000DAFFBFC0DFFFFFFF99C0D9FF9AC0DAFFC8
:10109000DE2A000EDD22FFFF0001AE4BAF2BFFFF6B
:1010A0000001BD07D8A0BE070001BD2903E1000172
:1010B000BE29D8A472D7FFFF9BC0F6FF9CC0F7FFE4
:1010C00000019B4B9C2B0800FFFFF5CFBFF00001F8
:1010D000BF51D8A4E3EF00F0FFFFAEC099F0AFC05E
:1010E0009AF01200FFFFFFFFD8C019F0D9C01AF024
:1010F000F50E1B6E7F0E1C6E4CEC2CF019501A1066
:10110000D8A415D0F7C0C0F0F8C0C1F0770E000128
:10111000C26F7F0E0001C36F1BEC27F019C0C4F033
:101120001AC0C5F01BC0C6F010EC2FF0D8D2FFFFDC
:10113000D8C019F0D9C01AF0F20E1B6E7F0E1C6ECB
:101140004CEC2CF019501A10D8A415D0F7C0C0F0F0
:10115000F8C0C1F0770E0001C26F7F0E0001C36FAF
:1011600036EC27F019C0C4F01AC0C5F01BC0C6F099
:1011700010EC2FF0B4D2FFFFD8C019F0D9C01AF08C
:10118000EF0E1B6E7F0E1C6E4CEC2CF019501A10DB
:10119000D8A415D0F7C0C0F0F8C0C1F0770E000198
:1011A000C26F7F0E0001C36F2DEC27F019C0C4F091
:1011B0001AC0C5F01BC0C6F010EC2FF090D2FFFF94
:1011C000D8C019F0D9C01AF03F0E1B6E7F0E1C6EEE
:1011D0004CEC2CF019501A10D8A415D0F7C0C0F060
:1011E000F8C0C1F0770E0001C26F7F0E0001C36F1F
:1011F00024EC27F019C0C4F01AC0C5F01BC0C6F01B
:1012000010EC2FF06CD2FFFFD8C019F0D9C01AF043
:10121000480E1B6E7F0E1C6E4CEC2CF019501A10F1
:10122000D8A415D0F7C0C0F0F8C0C1F0770E000107
:10123000C26F7F0E0001C36F3FEC27F019C0C4F0EE
:101240001AC0C5F01BC0C6F010EC2FF048D2FFFF4B
:10125000D8C019F0D9C01AF0360E1B6E7F0E1C6E66
:101260004CEC2CF019501A10D8A415D0F7C0C0F0CF
:10127000F8C0C1F0770E0001C26F7F0E0001C36F8E
:1012800055EC26F019C0C4F01AC0C5F01BC0C6F05A
:1012900010EC2FF024D2FFFFD8C019F0D9C01AF0FB
:1012A000E90E1B6E7F0E1C6E4CEC2CF019501A10C0
:1012B000D8A415D0F7C0C0F0F8C0C1F07D0E000171
:1012C000C26F7F0E0001C36F12EC27F019C0C4F08B
:1012D0001AC0C5F01BC0C6F010EC2FF000D2FFFF03
:1012E000D8C019F0D9C01AF0E50E1B6E7F0E1C6E27
:1012F0004CEC2CF019501A10D8A415D0F7C0C0F03F
:10130000F8C0C1F0770E0001C26F7F0E0001C36FFD
:1013100090EC27F019C0C4F01AC0C5F01BC0C6F08D
:1013200010EC2FF0DCD1FFFFD8C019F0D9C01AF0B3
:10133000D90E1B6E7F0E1C6E4CEC2CF019501A103F
:10134000D8A415D0F7C0C0F0F8C0C1F0770E0001E6
:10135000C26F7F0E0001C36F99EC27F019C0C4F073
:101360001AC0C5F01BC0C6F010EC2FF0B8D1FFFFBB
:10137000D8C019F0D9C01AF0AA0E1B6E7F0E1C6ED1
:101380004CEC2CF019501A10D8A41ED00001FDA16D
:101390000DD0F7C0C0F0F8C0C1F05A0E0001C26F06
:1013A0007F0E0001C36F10EC2FF099D1FFFFF7C043
:1013B000C0F0F8C0C1F0830E0001C26F7F0E0001C3
:1013C000C36F10EC2FF08BD1FFFFD8C019F0D9C03C
:1013D0001AF0EC0E1B6E7F0E1C6E4CEC2CF01950AC
:1013E0001A10D8A415D0F7C0C0F0F8C0C1F0770E1D
:1013F0000001C26F7F0E0001C36F55EC39F08AC047
:10140000C4F08BC0C5F08CC0C6F010EC2FF067D1D3
:10141000FFFFD8C019F0D9C01AF0DD0E1B6E7F0E89
:101420001C6E4CEC2CF019501A10D8A415D0F7C033
:10143000C0F0F8C0C1F0770E0001C26F7F0E00014E
:10144000C36F5EEC26F019C0C4F01AC0C5F01BC013
:10145000C6F010EC2FF043D1FFFFD8C019F0D9C06F
:101460001AF0A50E1B6E7F0E1C6E4CEC2CF0195062
:101470001A10D8A44AD0DC0E00018D6F000E0001B6
:101480008E6F86EC35F0DC0E2C6E000E2D6EE5ECCA
:1014900030F02CC0E0F02DC0E1F0F7C0C0F0F8C093
:1014A000C1F0180E0001C26F7F0E0001C36F000172
:1014B00020EE06F0E051D926E151DA22DECFC4F069
:1014C000DDCFC5F0000120EE08F0E051D926E15152
:1014D000DA22DECFC6F0DDCFC7F0000120EE0AF041
:1014E000E051D926E151DA22DECFDAF0DDCFDBF0B0
:1014F0006C0E0001DA250001C86F070E0001DB2128
:101500000001C96F10EC2FF0EAD0FFFFD8C019F02E
:10151000D9C01AF0130E1B6E7F0E1C6E4CEC2CF013
:1015200019501A10D8A43DD0DC0E00018D6F000EAA
:1015300000018E6F86EC35F0DC0E2C6E000E2D6EE9
:10154000E5EC30F02CC0E0F02DC0E1F0F7C0C0F0C9
:10155000F8C0C1F0220E0001C26F7F0E0001C36F00
:10156000000120EE04F0E051D926E151DA22DECF6D
:10157000C4F0DDCFC5F0000120EE02F0E051D92625
:10158000E151DA22DECFC6F0DDCFC7F0E0C0D9FFEF
:10159000E1C0DAFFDECFC8F0DDCFC9F010EC2FF0EC
:1015A0009ED0FFFFD8C019F0D9C01AF0A00E1B6E54
:1015B0007F0E1C6E4CEC2CF019501A10D8A45ED083
:1015C0000001FDA12DD0F7C0C0F0F8C0C1F0460E5B
:1015D0000001C26F7E0E0001C36F55EC39F08AC066
:1015E000C4F08BC0C5F08CC0C6F05EEC26F019C00C
:1015F000C7F01AC0C8F01BC0C9F03FEC27F019C0F3
:10160000CAF01AC0CBF01BC0CCF0A2EC27F019C076
:10161000CDF01AC0CEF01BC0CFF010EC2FF05FD091
:10162000FFFFF7C0C0F0F8C0C1F0620E0001C26F4A
:101630007E0E0001C36F55EC39F08AC0C4F08BC038
:10164000C5F08CC0C6F05EEC26F019C0C7F01AC019
:10165000C8F01BC0C9F03FEC27F019C0CAF01AC08F
:10166000CBF01BC0CCF0A2EC27F019C0CDF01AC013
:10167000CEF01BC0CFF010EC2FF031D0FFFFD8C060
:1016800019F0D9C01AF0700E1B6E7F0E1C6E4CEC58
:101690002CF019501A10D8A415D0F7C0C0F0F8C01B
:1016A000C1F0770E0001C26F7F0E0001C36FA2EC84
:1016B00027F019C0C4F01AC0C5F01BC0C6F010EC6A
:1016C0002FF00DD0FFFFF7C0C0F0F8C0C1F0690ED9
:1016D0000001C26F7F0E0001C36F10EC2FF0FFFFFF
:1016E0009D881200FFFFFFFF000E0001FC6F000E3F
:1016F00058EC2AF019C08BF01AC08CF0000E0001D3
:101700007E6F800E00017F6F440E0001806F8BC0E2
:1017100021F08CC022F0E7EC28F021C07BF022C041
:101720007CF023C07DF0B0EC3BF07BC06CF07CC063
:101730006DF07DC06EF0000E00016F6F160E00019F
:10174000706F430E0001716F53EC3CF06CC03BF0C6
:101750006DC03CF06EC03DF03BC063F03CC064F037
:101760003DC065F0F2C01CF0F3C01DF0F4C01EF0E7
:10177000FBEC28F01CC060F01DC061F01EC062F0E0
:1017800045EC16F060C06CF061C06DF062C06EF0A8
:1017900034C16FF035C170F036C171F053EC3CF0DC
:1017A0006CC03BF06DC03CF06EC03DF03BC07BF0C8
:1017B0003CC07CF03DC07DF019EC32F07BC03BF0CA
:1017C0007CC03CF07DC03DF03BC028F03CC029F01F
:1017D0003DC02AF076EC2CF000018A6F11D0FFFF9B
:1017E0000001FC810001FC9317D0FFFF0001FC8386
:1017F00003D0FFFF0001FC93FFFF0001FC910CD020
:10180000FFFF00018A51000AD8B4F3D7010AD8B407
:10181000ECD7030AD8B4E3D7FFFF010E58EC2AF047
:1018200019C08BF01AC08CF0000E00017E6F800E84
:1018300000017F6F440E0001806F8BC021F08CC0CF
:1018400022F0E7EC28F021C07BF022C07CF023C01E
:101850007DF0B0EC3BF07BC06CF07CC06DF07DC0E7
:101860006EF0000E00016F6F160E0001706F430ED8
:101870000001716F53EC3CF06CC038F06DC039F072
:101880006EC03AF038C063F039C064F03AC065F019
:101890003DC11CF03EC11DF03FC11EF0FBEC28F025
:1018A0001CC060F01DC061F01EC062F045EC16F077
:1018B00060C06CF061C06DF062C06EF031C16FF05D
:1018C00032C170F033C171F053EC3CF06CC038F0B1
:1018D0006DC039F06EC03AF038C07BF039C07CF092
:1018E0003AC07DF077EC32F07BC038F07CC039F044
:1018F0007DC03AF038C028F039C029F03AC02AF04B
:1019000076EC2CF000018A6F11D0FFFF0001FC85FE
:101910000001FC9717D0FFFF0001FC8703D0FFFFF9
:101920000001FC97FFFF0001FC950CD0FFFF0001B8
:101930008A51000AD8B4F3D7010AD8B4ECD7030A05
:10194000D8B4E3D7FFFF020E58EC2AF019C08BF091
:101950001AC08CF0000E00017E6F800E00017F6FB8
:10196000440E0001806F8BC021F08CC022F0E7ECA8
:1019700028F021C07BF022C07CF023C07DF0B0ECC9
:101980003BF07BC06CF07CC06DF07DC06EF0000E53
:1019900000016F6F160E0001706F430E0001716F32
:1019A00053EC3CF06CC035F06DC036F06EC037F0D3
:1019B00035C063F036C064F037C065F03AC11CF042
:1019C0003BC11DF03CC11EF0FBEC28F01CC060F0D8
:1019D0001DC061F01EC062F045EC16F060C06CF0F6
:1019E00061C06DF062C06EF02EC16FF02FC170F05B
:1019F00030C171F053EC3CF06CC035F06DC036F086
:101A00006EC037F035C07BF036C07CF037C07DF05B
:101A1000D5EC32F07BC035F07CC036F07DC037F0BD
:101A200035C028F036C029F037C02AF076EC2CF00B
:101A300000018A6F11D0FFFF0001FC890001FC9BAF
:101A400017D0FFFF0001FC8B03D0FFFF0001FC9BC0
:101A5000FFFF0001FC990CD0FFFF00018A51000A32
:101A6000D8B4F3D7010AD8B4ECD7030AD8B4E3D773
:101A7000FFFF030E58EC2AF019C08BF01AC08CF04F
:101A8000000E00017E6F800E00017F6F440E00018A
:101A9000806F8BC021F08CC022F0E7EC28F021C0D1
:101AA0007BF022C07CF023C07DF0B0EC3BF07BC02B
:101AB0006CF07CC06DF07DC06EF0000E00016F6FA9
:101AC000160E0001706F430E0001716F53EC3CF075
:101AD0006CC032F06DC033F06EC034F032C063F0D1
:101AE00033C064F034C065F037C11CF038C11DF05C
:101AF00039C11EF0FBEC28F01CC060F01DC061F085
:101B00001EC062F045EC16F060C06CF061C06DF074
:101B100062C06EF02BC16FF02CC170F02DC171F05E
:101B200053EC3CF06CC032F06DC033F06EC034F05A
:101B300032C07BF033C07CF034C07DF033EC33F046
:101B40007BC032F07CC033F07DC034F032C01FF077
:101B500033C020F034C021F022C122F023C123F091
:101B600024C124F07AEC31F0D8B006D032C022F192
:101B700033C023F134C024F1FFFF1FC11FF020C187
:101B800020F021C121F032C022F033C023F034C054
:101B900024F07AEC31F0D8B006D032C01FF133C057
:101BA00020F134C021F1FFFF0001FC511200FFFFC2
:101BB000FFFFA50E0101D26F7D0E0101D36F000E54
:101BC0000101CD6F926893689468000E1A6E400E02
:101BD000196E7C0EBBEC2DF0000E0001FA6F000EAA
:101BE000466E000E0001F96F000E456E000E0101F9
:101BF000DA6F000ED96FFFFF0101DABF08D0100EB7
:101C00000101D95D270E0101DA59D8B005D0FFFFD7
:101C10000101D94BDA2BEFD7FFFF7C0E0001C06F1B
:101C20007E0E0001C16FD4EC2BF0C00E196E080EB1
:101C300067EC28F0A40E0001C06F7E0E0001C16F9A
:101C4000D4EC2BF0D50E00018D6F010E00018E6FCC
:101C500086EC35F0DB0E0001C06F7D0E0001C16F18
:101C6000D4EC2BF095EC29F0290E0001C06F7E0E0C
:101C70000001C16FD4EC2BF0A40E0001C06F7E0EEA
:101C80000001C16FD4EC2BF033EC26F0950E00016F
:101C9000C06F7E0E0001C16FD4EC2BF0000E00016E
:101CA000E86F000EE96F000EEA6F000EEB6FE8C000
:101CB00019F0E9C01AF0EAC01BF0EBC01CF0BEEC52
:101CC0001FF0000E1C6E000E1D6E000E1E6EABECA3
:101CD00027F0000E1C6E480E1D6E430E1E6EB4ECF7
:101CE00027F0D50E00018D6F010E00018E6F86EC7E
:101CF00035F0CD0E0001C06F7F0E0001C16FD50E13
:101D00000001736F010E0001746FC0EC28F073C006
:101D1000C2F074C0C3F0D4EC2BF02DEC26F0D2C18D
:101D200019F0D3C11AF066EC2BF019C0D0F11AC02B
:101D3000D1F1D2C11BF0D3C11CF0D0C11DF0D2EC47
:101D40002FF0000E0101DA6F000ED96FFFFF0101C5
:101D5000DABF08D0F40E0101D95D010E0101DA5994
:101D6000D8B010D0FFFF190E0101CC6F5C0EFFFF41
:101D7000E82EFDD7CC2FFBD700D000F00101D94BC6
:101D8000DA2BE4D7FFFF2DEC26F0B30E0001FF6F36
:101D9000B40EFE6F010E196EFEC01AF0FFC01BF0EC
:101DA000950E50EC29F0E5EC39F01FC0CEF120C0C3
:101DB000CFF1D20E0101CE1905E1040E0101CF19B8
:101DC000D8B48AD0000E196E800E1A6E3F0E1B6EAC
:101DD0009CEC28F0000E196E000E1A6E000E1B6EA1
:101DE0009DEC26F0000E196E000E1A6E000E1B6E92
:101DF00094EC26F0000E196E000E1A6E3F0E1B6E4C
:101E0000A6EC26F0000E196EEC0E1A6E420E1B6E3A
:101E1000AFEC26F0000E196EA00E1A6E400E1B6E6F
:101E20008BEC26F0000E196E800E1A6E3E0E1B6EA5
:101E300082EC26F0000E196E020E1A6E430E1B6E17
:101E400000EC27F0000E196ED20E1A6E420E1B6EB9
:101E500009EC27F0000E196E000E1A6E000E1B6EB4
:101E6000C1EC26F0000E196E000E1A6E000E1B6EED
:101E7000D3EC26F0000E196E000E1A6E000E1B6ECB
:101E8000E5EC26F0000E196E800E1A6E3F0E1B6EEA
:101E9000B8EC26F0000E196E800E1A6E3F0E1B6E07
:101EA000CAEC26F0000E196E800E1A6E3F0E1B6EE5
:101EB000DCEC26F0000E196E000E1A6E000E1B6E82
:101EC000F7EC26F0000E196E800E1A6E3F0E1B6E98
:101ED000EEEC26F07DEC3AF0FFFF000E00017E6F85
:101EE000000E00017F6F3F0E0001806F000E0001A9
:101EF0006F6F800E0001706F400E0001716F12EC69
:101F000027F019C06CF01AC06DF01BC06EF053ECD6
:101F10003CF06CC07BF06DC07CF06EC07DF0B0EC2E
:101F20003BF07BC08AF07CC08BF07DC08CF016EC5F
:101F30003BF08AC0F5F08BC0F6F0F28CF28EFFFF1A
:101F40009DBA23D00001FA05D8A417D0030E0001D2
:101F5000FA6F000E466EFFFF9DB8FDD7910E00018F
:101F6000E26F010E0001E36F4E0E0001E46F010EFF
:101F70000001E56FBDEC3DF006D0FFFF030E000150
:101F8000FA6F000E466EFFFF9D8AFFFF0001FB0502
:101F9000D8A4D5D7000E0001FB6FD50E00018D6FC0
:101FA000010E00018E6F86EC35F073EC0BF0010131
:101FB000D46F0101D451D8EC2AF00101D4511CECAA
:101FC0002AF00101D4513AEC2AF0AEEC28F00001DD
:101FD000FD6F0001FDB10AD0FAEC2AF00009D8B477
:101FE0000AD0B3EC34F00001EB8F05D0FFFFEBEC2F
:101FF00027F00001EB9FFFFF0001FDA314D05EEC72
:1020000026F019C01CF01AC01DF01BC01EF0B4EC65
:1020100027F05EEC26F019C01CF01AC01DF01BC0A2
:102020001EF0ABEC27F0FFFF8AEC1CF00001EBADDB
:1020300002D0010E02D0FFFF000EFFFFFF0A0101D8
:10204000CC6F0101CC3BCC47CC470001EB510101E7
:10205000CC19BF0BCC190001EB6FE8C019F0E9C037
:102060001AF0EAC01BF0EBC01CF0BEEC1FF067D703
:10207000FFFF00018C5100018D11D8B40DD08CC030
:10208000D9FF8DC0DAFF8AC0DEFF8BC0DDFF04D030
:10209000FFFF00018A4B8B2BFFFF8AC0D9FF8BC04B
:1020A000DAFFDF5000018E6F00018E517EEC29F0C7
:1020B000D8B0EED7000E00018F6F2D0E00018E19E3
:1020C000D8A404D0010E00018F6F06D0FFFF2B0EA5
:1020D00000018E19D8A404D0FFFF00018A4B8B2B7E
:1020E000FFFF000E00018E6F000E0001916F000EC9
:1020F000926F000E936F000E946F000E0001906FB0
:10210000FFFF00018FB90BD08AC0D9FF8BC0DAFF67
:102110002E0EDE18D8A403D000018F8949D0FFFF0E
:102120008AC0D9FF8BC0DAFFDF508AEC28F0D8A034
:1021300044D000018F83080E00018E19D8B432D02C
:1021400000018FA902D000019007FFFF00018E2B34
:1021500091C019F092C01AF093C01BF094C01CF00B
:102160000A0E1D6E000E1E6E000E1F6E000E206EFB
:1021700028EC2DF019C091F01AC092F01BC093F01A
:102180001CC094F08AC0D9FF8BC0DAFFDF502D6EDF
:10219000D00E2D262D5000019127000E922393235F
:1021A000942306D0FFFF00018FB902D00001902BCD
:1021B000FFFF00018A4B8B2BA3D7FFFF000E00010E
:1021C0008E6F8AC0D9FF8BC0DAFF650EDE18D8B4D7
:1021D00008D08AC0D9FF8BC0DAFF450EDE18D8A41C
:1021E00070D0FFFF00018A4B8B2B8AC0D9FF8BC0B8
:1021F000DAFF2D0EDE18D8A403D000018F8709D096
:10220000FFFF8AC0D9FF8BC0DAFF2B0EDE18D8A4DF
:1022100004D0FFFF00018A4B8B2BFFFF8AC0D9FF40
:102220008BC0DAFF300EDE18D8B4F3D78AC0D9FFDE
:102230008BC0DAFFDF508AEC28F0D8A03CD08AC0EF
:10224000D9FF8BC0DAFFDF50D00F00018E6F000185
:102250008A4B8B2B8AC0D9FF8BC0DAFFDF508AEC08
:1022600028F0D8A028D08AC0D9FF8BC0DAFFDF5071
:102270002D6E00018E510A0DF3502D24D00F000158
:102280008E6F00018A4B8B2B8AC0D9FF8BC0DAFF7F
:10229000DF508AEC28F0D8A00ED08AC0D9FF8BC0BE
:1022A000DAFFDF502D6E00018E510A0DF3502D2400
:1022B000D00F00018E6FFFFF00018FA702D0000139
:1022C0008E6DFFFF00018E510001902700018C519F
:1022D00000018D11D8B40BD000018FA308D08CC0A1
:1022E000D9FF8DC0DAFF8AC0DEFF8BC0DDFFFFFFA4
:1022F00091C021F092C022F093C023F094C024F04A
:1023000050EC2FF021C091F022C092F023C093F046
:10231000000191510001921100019311D8A405D040
:10232000000E00018A6F000EC8D0FFFF000190AFC1
:102330005AD00001906D1BD0FFFF91C07BF092C07E
:102340007CF093C07DF0030E00017E6F150E00013E
:102350007F6F500E0001806FB0EC3BF07BC091F0BE
:102360007CC092F07DC093F0F60E00019027FFFF35
:1023700000019051800A760FD8A01BD0DDD7FFFF57
:1023800091C07BF092C07CF093C07DF0000E000104
:102390007E6F200E00017F6F410E0001806FB0EC58
:1023A0003BF07BC091F07CC092F07DC093F00001C7
:1023B0009007FFFF000190510001D8A4E0D791C021
:1023C0001FF092C020F093C021F0000E226E800E0C
:1023D000236E000E246E7AEC31F0D8B076D0000176
:1023E0008FB15DD065D0FFFF00019051800A7F0F53
:1023F000D8B01CD06AD0FFFF91C06CF092C06DF0D5
:1024000093C06EF0030E00016F6F150E0001706F28
:10241000500E0001716F53EC3CF06CC091F06DC038
:1024200092F06EC093F0F60E00019027FFFF0A0EA7
:1024300000019061E0D71AD0FFFF91C06CF092C00C
:102440006DF093C06EF0000E00016F6F200E000162
:10245000706F410E0001716F53EC3CF06CC091F055
:102460006DC092F06EC093F000019007FFFF000175
:1024700090510001D8A4E0D7FF0E1F6E7F0E206E92
:102480007F0E216E91C022F092C023F093C024F001
:102490007AEC31F0D8B019D000018FA109D0FFFF3C
:1024A000000E00018A6F800E00018B6F800E09D034
:1024B000FFFF000E00018A6F800EFFFF00018B6F8F
:1024C000000EFFFF00018C6F19D0FFFF00018FA1EC
:1024D0000ED091C01CF092C01DF093C01EF0FBEC1A
:1024E00028F01CC091F01DC092F01EC093F0FFFFB9
:1024F00091C08AF092C08BF093C08CF0FFFF120065
:10250000FFFFFFFF0001816F000181AF10D10001CB
:10251000816D00018151800A120FD8A097D0000E62
:102520002A6E030E296E000E226E0A0E216E000E18
:102530001C6E640E1B6E00018151196E1A6A19BE61
:102540001A0690EC2FF019C01FF01AC020F02EECE4
:1025500031F0090E1F24276E000E2020286E10EC8B
:1025600029F0720E2724F66E7D0E2820F76E0900E2
:10257000FFFFF5CF6FF00900FFFFF5CF70F00A0005
:10258000FFFFF5CF71F0000E226E640E216E000188
:1025900081511F6E206A1FBE20062EEC31F0120EF4
:1025A0001F24276E000E2020286E000E2A6E030EB8
:1025B000296E10EC29F0720E2724F66E7D0E28206D
:1025C000F76E0900FFFFF5CF6CF00900FFFFF5CFB4
:1025D0006DF00A00FFFFF5CF6EF053EC3CF06CC0DD
:1025E0007EF06DC07FF06EC080F07EC06CF07FC06A
:1025F0006DF080C06EF0000E2A6E030E296E000E84
:102600001C6E0A0E1B6E00018151196E1A6A19BEEA
:102610001A0690EC2FF019C027F01AC028F010EC21
:1026200029F0720E2724F66E7D0E2820F76E090021
:10263000FFFFF5CF6FF00900FFFFF5CF70F00A0044
:10264000FFFFF5CF71F053EC3CF06AD1FFFF0001C2
:102650008151800A750FD8A055D0000E226E0A0E47
:10266000216E000181511F6E206A1FBE20062EECD4
:1026700031F0090E1F24276E000E2020286E000E58
:102680002A6E030E296E10EC29F0720E2724F66EC6
:102690007D0E2820F76E0900FFFFF5CF6CF00900D2
:1026A000FFFFF5CF6DF00A00FFFFF5CF6EF0000ED3
:1026B0002A6E030E296E000E1C6E0A0E1B6E0001A0
:1026C0008151196E1A6A19BE1A0690EC2FF019C0C2
:1026D00027F01AC028F010EC29F0720E2724F66EAD
:1026E0007D0E2820F76E0900FFFFF5CF6FF009007F
:1026F000FFFFF5CF70F00A00FFFFF5CF71F053EC4C
:102700003CF00ED1FFFF00018151030D720EF32446
:10271000F66E7D0EF420F76E0900FFFFF5CF7BF01B
:102720000900FFFFF5CF7CF00A00FFFF15D1FFFF86
:1027300000018151800A120FD8A097D0000E2A6E96
:10274000030E296E000E226E0A0E216E000E1C6E04
:10275000640E1B6E00018151196E1A6A19BE1A06A9
:1027600090EC2FF019C01FF01AC020F02EEC31F0C1
:10277000090E1F24276E000E2020286E10EC29F071
:102780004B0E2724F66E7D0E2820F76E0900FFFF02
:10279000F5CF6FF00900FFFFF5CF70F00A00FFFFE3
:1027A000F5CF71F0000E226E640E216E0001815192
:1027B0001F6E206A1FBE20062EEC31F0120E1F2461
:1027C000276E000E2020286E000E2A6E030E296E42
:1027D00010EC29F04B0E2724F66E7D0E2820F76EA4
:1027E0000900FFFFF5CF6CF00900FFFFF5CF6DF09A
:1027F0000A00FFFFF5CF6EF053EC3CF06CC07EF0AA
:102800006DC07FF06EC080F07EC06CF07FC06DF058
:1028100080C06EF0000E2A6E030E296E000E1C6E34
:102820000A0E1B6E00018151196E1A6A19BE1A0632
:1028300090EC2FF019C027F01AC028F010EC29F006
:102840004B0E2724F66E7D0E2820F76E0900FFFF41
:10285000F5CF6FF00900FFFFF5CF70F00A00FFFF22
:10286000F5CF71F053EC3CF05BD0FFFF00018151DC
:10287000800A750FD8A05CD0000E226E0A0E216E61
:10288000000181511F6E206A1FBE20062EEC31F020
:10289000090E1F24276E000E2020286E000E2A6EBF
:1028A000030E296E10EC29F04B0E2724F66E7D0ED8
:1028B0002820F76E0900FFFFF5CF6CF00900FFFF3D
:1028C000F5CF6DF00A00FFFFF5CF6EF0000E2A6E17
:1028D000030E296E000E1C6E0A0E1B6E0001815144
:1028E000196E1A6A19BE1A0690EC2FF019C027F05B
:1028F0001AC028F010EC29F04B0E2724F66E7D0E3E
:102900002820F76E0900FFFFF5CF6FF00900FFFFE9
:10291000F5CF70F00A00FFFFF5CF71F053EC3CF0FB
:10292000FFFF6CC07BF06DC07CF06EC07DF017D0F7
:10293000FFFF00018151030D4B0EF324F66E7D0E57
:10294000F420F76E0900FFFFF5CF7BF00900FFFFD1
:10295000F5CF7CF00A00FFFFFFFFF5CF7DF0FFFF12
:102960001200FFFFFFFFD8C019F0D9C01AF0F50E12
:102970001B6E7F0E1C6E4CEC2CF019501A10D8A454
:1029800017D0DAC095F0DBC096F025EC29F095C0A1
:10299000DCF096C0DDF097C0DEF0DCC019F0DDC0E1
:1029A0001AF0DEC01BF09CEC28F07DEC3AF06AD106
:1029B000FFFFD8C019F0D9C01AF0F20E1B6E7F0EBF
:1029C0001C6E4CEC2CF019501A10D8A417D0DAC099
:1029D00095F0DBC096F025EC29F095C0DCF096C0B0
:1029E000DDF097C0DEF0DCC019F0DDC01AF0DEC00B
:1029F0001BF09DEC26F07DEC3AF044D1FFFFD8C0EF
:102A000019F0D9C01AF0EF0E1B6E7F0E1C6E4CEC45
:102A10002CF019501A10D8A417D0DAC095F0DBC0EA
:102A200096F025EC29F095C0DCF096C0DDF097C05B
:102A3000DEF0DCC019F0DDC01AF0DEC01BF094EC53
:102A400026F07DEC3AF01ED1FFFFD8C019F0D9C0B6
:102A50001AF00C0E1B6E7F0E1C6E4CEC2CF01950F5
:102A60001A10D8A417D0DAC095F0DBC096F025EC88
:102A700029F095C0DCF096C0DDF097C0DEF0DCC038
:102A800019F0DDC01AF0DEC01BF0A6EC26F07DECDC
:102A90003AF0F8D0FFFFD8C019F0D9C01AF0480EAC
:102AA0001B6E7F0E1C6E4CEC2CF019501A10D8A423
:102AB00017D0DAC095F0DBC096F025EC29F095C070
:102AC000DCF096C0DDF097C0DEF0DCC019F0DDC0B0
:102AD0001AF0DEC01BF0AFEC26F07DEC3AF0D2D05D
:102AE000FFFFD8C019F0D9C01AF0360E1B6E7F0E4A
:102AF0001C6E4CEC2CF019501A10D8A417D0DAC068
:102B000095F0DBC096F025EC29F095C0DCF096C07E
:102B1000DDF097C0DEF0DCC019F0DDC01AF0DEC0D9
:102B20001BF08BEC26F07DEC3AF0ACD0FFFFD8C068
:102B300019F0D9C01AF0E90E1B6E7F0E1C6E4CEC1A
:102B40002CF019501A10D8A417D0DAC095F0DBC0B9
:102B500096F025EC29F095C0DCF096C0DDF097C02A
:102B6000DEF0DCC019F0DDC01AF0DEC01BF082EC34
:102B700026F07DEC3AF086D0FFFFD8C019F0D9C01E
:102B80001AF0E50E1B6E7F0E1C6E4CEC2CF01950EB
:102B90001A10D8A417D0DAC095F0DBC096F025EC57
:102BA00029F095C0DCF096C0DDF097C0DEF0DCC007
:102BB00019F0DDC01AF0DEC01BF000EC27F07DEC50
:102BC0003AF060D0FFFFD8C019F0D9C01AF0D90E82
:102BD0001B6E7F0E1C6E4CEC2CF019501A10D8A4F2
:102BE00017D0DAC095F0DBC096F025EC29F095C03F
:102BF000DCF096C0DDF097C0DEF0DCC019F0DDC07F
:102C00001AF0DEC01BF009EC27F07DEC3AF03AD068
:102C1000FFFFD8C019F0D9C01AF0130E1B6E7F0E3B
:102C20001C6E4CEC2CF019501A10D8A407D0DAC046
:102C30006BF0DBC06CF0D5EC36F024D0FFFFD8C0D1
:102C400019F0D9C01AF0A50E1B6E7F0E1C6E4CEC4D
:102C50002CF019501A10D8A407D0DAC06BF0DBC0E2
:102C60006CF001EC3DF00ED0FFFFF7C0C0F0F8C0F3
:102C7000C1F0FB0E0001C26F7E0E0001C36F10ECAD
:102C80002FF09D88FFFF1200FFFFFFFF62C066F07C
:102C90000001676B686B000161350001663701E375
:102CA00067810001665100016B6F65C066F000012D
:102CB000676B686B000164350001663701E367816B
:102CC0000001665100016A6F00016B510001D8B428
:102CD00011D000016A5100016B5DD8B013D0000122
:102CE0006B51000800016A250001666F180E000193
:102CF000666508D0FFFF63C060F064C061F065C026
:102D000062F008D1FFFF00016A510001D8B411D070
:102D100000016B5100016A5DD8B013D000016A5107
:102D2000000800016B250001666F180E0001666542
:102D300008D0FFFF60C060F061C061F062C062F067
:102D4000E9D0FFFF060E0001696F000162AF02D0FB
:102D50000001698FFFFF000165AF02D00001698D9E
:102D6000FFFF0001618FFF0E00016017FF0E0001E1
:102D70006117000E000162170001648FFF0E000151
:102D80006317FF0E00016417000E000165170001B4
:102D90006A5100016B5DD8B028D0FFFF0001D890C8
:102DA00063376437653700016A0700016B51000122
:102DB0006A19D8B412D00001690769C066F0070E1D
:102DC00000016617D8B409D0E8D7FFFF0001D890FA
:102DD00062336133603300016B2BFFFF00016A51E6
:102DE00000016B19D8B42FD0F0D7FFFF00016B5151
:102DF00000016A5DD8B027D0FFFF0001D89060378E
:102E00006137623700016B0700016B5100016A19DD
:102E1000D8B412D00001690769C066F0070E00013E
:102E20006617D8B409D0E8D7FFFF0001D890653302
:102E30006433633300016A2BFFFF00016A51000114
:102E40006B19D8A4F1D7FFFF000169AF12D0FF0EB4
:102E50000001601BFF0E0001611BFF0E0001621BE1
:102E6000010E00016027000E00016123000E000129
:102E70006223FFFF000169AD12D0FF0E0001631B4A
:102E8000FF0E0001641BFF0E0001651B010E000117
:102E90006327000E00016423000E00016523FFFF7D
:102EA000000E0001696F00016051000163270001FD
:102EB000615100016423000162510001652300019A
:102EC00065AF15D0FF0E0001631BFF0E0001641BF0
:102ED000FF0E0001651B010E00016327000E0001BB
:102EE0006423000E00016523010E0001696FFFFFDE
:102EF00063C019F064C01AF065C01BF06BC01CF011
:102F000069C01DF051EC34F019C060F01AC061F0D6
:102F10001BC062F0FFFF1200FFFFFFFF000120EE69
:102F20000AF07F51D9268051DA22010EDBBE18D07B
:102F3000010EDB5004E1460EDE5CD8A011D000018A
:102F400020EE0AF07F51D9268051DA22010EDBBE35
:102F50000ED0010EDB5004E18B0EDE5CD8A007D052
:102F6000FFFF000189698A698B698C690FD1FFFFB6
:102F7000000120EE0AF07F51D9268051DA22DECFFF
:102F800083F0DDCF84F06C0E0001832500016F6FAC
:102F9000070E000184210001706F000120EE08F08F
:102FA0007F51D9268051DA22DECF85F0DDCF86F041
:102FB000010E000185250001716F000E00018621C0
:102FC0000001726F000120EE06F07F51D92680517A
:102FD000DA22DECF73F0DDCF74F064EC36F06FC030
:102FE00089F070C08AF071C08BF072C08CF0070E4F
:102FF0000001706FB20E6F6F000E0001726F010E54
:10300000716F000E0001746F010E736F64EC36F087
:1030100000016F510001895F0001705100018A5B5E
:103020000001715100018B5B0001725100018C5B4A
:10303000000120EE04F07F51D9268051DA22DECF44
:1030400083F0DDCF84F083C085F084C086F0000E6D
:10305000000186BFFF0E876F886F89C019F08AC094
:103060001AF08BC01BF08CC01CF0180E1D6E000EE9
:103070001E6E000E1F6E000E206E28EC2DF000015B
:10308000855119240001896F000186511A20000121
:103090008A6F000187511B2000018B6F000188514E
:1030A0001C2000018C6F000120EE02F07F51D92618
:1030B0008051DA22DECF83F0DDCF84F083C085F04B
:1030C00084C086F0000E000186BFFF0E876F886FF8
:1030D00089C019F08AC01AF08BC01BF08CC01CF09C
:1030E0003C0E1D6E000E1E6E000E1F6E000E206E3A
:1030F00028EC2DF00001855119240001896F000191
:1031000086511A2000018A6F000187511B2000019F
:103110008B6F000188511C2000018C6F7FC0D9FF8C
:1031200080C0DAFFDECF83F0DDCF84F083C085F08E
:1031300084C086F0000E000186BFFF0E876F886F87
:1031400089C019F08AC01AF08BC01BF08CC01CF02B
:103150003C0E1D6E000E1E6E000E1F6E000E206EC9
:1031600028EC2DF00001855119240001896F000120
:1031700086511A2000018A6F000187511B2000012F
:103180008B6F000188511C2000018C6FFFFF89C0EC
:103190007FF08AC080F08BC081F08CC082F012007A
:1031A000FFFFFFFFD8C019F0D9C01AF0BE0E1B6E8A
:1031B0007F0E1C6E4CEC2CF019501A10D8A417D0AE
:1031C000DAC095F0DBC096F025EC29F095C0DCF074
:1031D00096C0DDF097C0DEF0DCC019F0DDC01AF05B
:1031E000DEC01BF0C1EC26F07DEC3AF018D1FFFFF9
:1031F000D8C019F0D9C01AF0C30E1B6E7F0E1C6E1A
:103200004CEC2CF019501A10D8A417D0DAC095F055
:10321000DBC096F025EC29F095C0DCF096C0DDF01F
:1032200097C0DEF0DCC019F0DDC01AF0DEC01BF084
:10323000D3EC26F07DEC3AF0F2D0FFFFD8C019F0C5
:10324000D9C01AF0C80E1B6E7F0E1C6E4CEC2CF011
:1032500019501A10D8A417D0DAC095F0DBC096F038
:1032600025EC29F095C0DCF096C0DDF097C0DEF0CB
:10327000DCC019F0DDC01AF0DEC01BF0E5EC26F072
:103280007DEC3AF0CCD0FFFFD8C019F0D9C01AF0CD
:10329000AF0E1B6E7F0E1C6E4CEC2CF019501A10EA
:1032A000D8A417D0DAC095F0DBC096F025EC29F051
:1032B00095C0DCF096C0DDF097C0DEF0DCC019F000
:1032C000DDC01AF0DEC01BF0B8EC26F07DEC3AF061
:1032D000A6D0FFFFD8C019F0D9C01AF0B40E1B6EEB
:1032E0007F0E1C6E4CEC2CF019501A10D8A417D07D
:1032F000DAC095F0DBC096F025EC29F095C0DCF043
:1033000096C0DDF097C0DEF0DCC019F0DDC01AF029
:10331000DEC01BF0CAEC26F07DEC3AF080D0FFFF57
:10332000D8C019F0D9C01AF0B90E1B6E7F0E1C6EF2
:103330004CEC2CF019501A10D8A417D0DAC095F024
:10334000DBC096F025EC29F095C0DCF096C0DDF0EE
:1033500097C0DEF0DCC019F0DDC01AF0DEC01BF053
:10336000DCEC26F07DEC3AF05AD0FFFFD8C019F023
:10337000D9C01AF0890E1B6E7F0E1C6E4CEC2CF01F
:1033800019501A10D8A417D0DAC095F0DBC096F007
:1033900025EC29F095C0DCF096C0DDF097C0DEF09A
:1033A000DCC019F0DDC01AF0DEC01BF0EEEC26F038
:1033B0007DEC3AF034D0FFFFD8C019F0D9C01AF034
:1033C000950E1B6E7F0E1C6E4CEC2CF019501A10D3
:1033D000D8A417D0DAC095F0DBC096F025EC29F020
:1033E00095C0DCF096C0DDF097C0DEF0DCC019F0CF
:1033F000DDC01AF0DEC01BF0F7EC26F07DEC3AF0F1
:103400000ED0FFFFF7C0C0F0F8C0C1F0FB0E000106
:10341000C26F7E0E0001C36F10EC2FF09D88FFFF7E
:103420001200FFFFFFFF0001846F6D0E0001846535
:10343000A5D0000E2A6E030E296E000E226E0A0E13
:10344000216E000E1C6E640E1B6E84C019F01A6A89
:1034500090EC2FF019C01FF01AC020F02EEC31F0C4
:10346000090E1F24276E000E2020286E10EC29F074
:10347000720E2724F66E7D0E2820F76E0900FFFFDE
:10348000F5CF6FF00900FFFFF5CF70F00A00FFFFE6
:10349000F5CF71F0000E226E640E216E84C01FF015
:1034A000206A2EEC31F0120E1F24276E000E202011
:1034B000286E000E2A6E030E296E10EC29F0720E93
:1034C0002724F66E7D0E2820F76E0900FFFFF5CF4A
:1034D0006CF00900FFFFF5CF6DF00A00FFFFF5CF9C
:1034E0006EF053EC3CF06CC081F06DC082F06EC0A9
:1034F00083F0000E2A6E030E296E000E1C6E0A0E5B
:103500001B6E84C019F01A6A90EC2FF019C027F0D6
:103510001AC028F010EC29F0720E2724F66E7D0EEA
:103520002820F76E0900FFFFF5CF6FF00900FFFFBD
:10353000F5CF70F00A00FFFFF5CF71F081C06CF09D
:1035400082C06DF083C06EF053EC3CF06CC07EF036
:103550006DC07FF06EC080F07EC06CF07FC06DF0FB
:1035600080C06EF0000E00016F6F000E0001706FE2
:103570003F0E0001716F53EC3CF08CD0FFFF0A0E40
:103580000001846566D0000E2A6E030E296E000EBF
:103590001C6E0A0E1B6E84C019F01A6A90EC2FF094
:1035A00019C027F01AC028F010EC29F0720E272459
:1035B000F66E7D0E2820F76E0900FFFFF5CF6FF045
:1035C0000900FFFFF5CF70F00A00FFFFF5CF71F0A3
:1035D000000E226E0A0E216E84C01FF0206A2EECAF
:1035E00031F0090E1F24276E000E2020286E000ED9
:1035F0002A6E030E296E10EC29F0720E2724F66E47
:103600007D0E2820F76E0900FFFFF5CF6CF0090052
:10361000FFFFF5CF6DF00A00FFFFF5CF6EF053EC22
:103620003CF06CC081F06DC082F06EC083F081C050
:103630006CF082C06DF083C06EF0000E00016F6F01
:10364000000E0001706F3F0E0001716F53EC3CF0F3
:1036500021D0FFFF00018451030D720EF324F66E9A
:103660007D0EF420F76E0900FFFFF5CF6CF0090026
:10367000FFFFF5CF6DF00A00FFFFF5CF6EF0000EF3
:1036800000016F6F000E0001706F3F0E0001716F3F
:1036900053EC3CF0FFFF6CC07BF06DC07CF06EC063
:1036A0007DF01200FFFFFFFF000120EE0CF06C51D7
:1036B000D9266D51DA22DECF27F0DDCF28F0000EBB
:1036C0002A6E030E296E10EC29F0AC0E272400019F
:1036D0006F6F7E0E28200001706F760E0001716FF3
:1036E000010E0001726F6FC0F6FF70C0F7FF71C06E
:1036F000D9FF72C0DAFF0800FFFFF5CFDFFF00013E
:103700006F4B702B0001714B722B6FC0F6FF70C0B6
:10371000F7FF71C0D9FF72C0DAFF0800FFFFF5CFD5
:10372000DFFF00016F4B702B0001714B722B6FC0DC
:10373000F6FF70C0F7FF71C0D9FF72C0DAFF080052
:10374000FFFFF5CFDFFF0001714B722B71C0D9FF76
:1037500072C0DAFF200EDF6E0001714B722B000188
:1037600020EE08F06C51D9266D51DA22DECF27F019
:10377000DDCF28F0000E2A6E030E296E10EC29F022
:10378000040E272400016F6F7E0E28200001706F49
:103790006FC0F6FF70C0F7FF71C0D9FF72C0DAFFCB
:1037A0000800FFFFF5CFDFFF00016F4B702B00011A
:1037B000714B722B6FC0F6FF70C0F7FF71C0D9FF5D
:1037C00072C0DAFF0800FFFFF5CFDFFF00016F4B8B
:1037D000702B0001714B722B6FC0F6FF70C0F7FFAA
:1037E00071C0D9FF72C0DAFF0800FFFFF5CFDFFF1D
:1037F000200E01017D6F800E276E010E286E0001E4
:1038000020EE06F06C51D9266D51DA22DF50296E78
:10381000200E2A6E200E2B6E97EC2EF0830E276E54
:10382000010E286E000120EE04F06C51D9266D5176
:10383000DA22DF50296E300E2A6E3A0E2B6E97EC8C
:103840002EF0860E276E010E286E000120EE02F08B
:103850006C51D9266D51DA22DF50296E300E2A6E56
:103860003A0E2B6E97EC2EF0890E276E010E286E05
:103870006CC0D9FF6DC0DAFFDF50296E300E2A6EA2
:10388000200E2B6E97EC2EF08C0E276E010E286EFC
:10389000000120EE0AF06C51D9266D51DA22DECFFC
:1038A0001FF0DDCF20F0000E226E640E216E2EEC94
:1038B00031F01F50130F296E200E2A6E000E2B6E52
:1038C00097EC2EF0000120EE0AF06C51D9266D51D4
:1038D000DA22DECF19F0DDCF1AF0000E1C6E640E76
:1038E0001B6E90EC2FF0195000016E6F8E0E276E3C
:1038F000010E286E6EC029F0300E2A6E0A0E2B6E55
:1039000097EC2EF0760E00016C6F010E00016D6FCA
:103910001200FFFFFFFF010E1B6E010E8AEC2BF061
:10392000B70E0001C06F010E0001C16FC20E000191
:10393000C26F7E0E0001C36F10EC2FF00001C0516A
:103940000101CB6FB70E1B6E010E1C6ECBC11DF0BB
:10395000D2EC2FF0010E1B6E020E8AEC2BF0B70E8C
:103960000001C06F010E0001C16F9B0E0001C26F0C
:103970007F0E0001C36F3AEC26F019C0C4F01AC0E4
:10398000C5F01BC0C6F010EC2FF00001C0510101C2
:10399000CB6FB70E1B6E010E1C6ECBC11DF0D2ECAF
:1039A0002FF0080E1B6E020E8AEC2BF0B70E0001F2
:1039B000C06F010E0001C16F9B0E0001C26F7F0E30
:1039C0000001C36F43EC26F019C0C4F01AC0C5F063
:1039D0001BC0C6F010EC2FF00001C0510101CB6FED
:1039E000B70E1B6E010E1C6ECBC11DF0D2EC2FF07A
:1039F0000F0E1B6E020E8AEC2BF0B70E0001C06F8B
:103A0000010E0001C16F9B0E0001C26F7F0E00010D
:103A1000C36F4CEC26F019C0C4F01AC0C5F01BC02F
:103A2000C6F010EC2FF00001C0510101CB6FB70EB2
:103A30001B6E010E1C6ECBC11DF0D2EC2FF0010EDF
:103A40001B6E030E8AEC2BF0B70E0001C06F010E47
:103A50000001C16FD60E0001C26F7E0E0001C36F60
:103A600010EC2FF00001C0510101CB6FB70E1B6E9F
:103A7000010E1C6ECBC11DF0D2EC2FF0010E1B6E9F
:103A8000040E8AEC2BF0B70E0001C06F010E00018E
:103A9000C16F9B0E0001C26F7F0E0001C36F70ECFF
:103AA00026F019C0C4F01AC0C5F01BC0C6F010EC57
:103AB0002FF00001C0510101CB6FB70E1B6E010E3C
:103AC0001C6ECBC11DF0D2EC2FF0080E1B6E040E45
:103AD0008AEC2BF0B70E0001C06F010E0001C16F20
:103AE0009B0E0001C26F7F0E0001C36F5EEC26F0DB
:103AF00019C0C4F01AC0C5F01BC0C6F010EC2FF0FE
:103B00000001C0510101CB6FB70E1B6E010E1C6E80
:103B1000CBC11DF0D2EC2FF00F0E1B6E040E8AEC01
:103B20002BF0B70E0001C06F010E0001C16F9B0E9C
:103B30000001C26F7F0E0001C36F67EC26F019C051
:103B4000C4F01AC0C5F01BC0C6F010EC2FF0000185
:103B5000C0510101CB6FB70E1B6E010E1C6ECBC1A5
:103B60001DF0D2EC2FF01200FFFFFFFF27C0D9FF9E
:103B700028C0DAFFDECF60F0DECF61F0DECF62F08A
:103B8000DECF63F060C019F061C01AF062C01BF0B4
:103B900063C01CF03C0E1D6E000E1E6E000E1F6EEC
:103BA000000E206E91EC33F019C0A5F11AC0A6F1F9
:103BB00060C019F061C01AF062C01BF063C01CF055
:103BC0003C0E1D6E000E1E6E000E1F6E000E206E4F
:103BD000F4EC35F019C060F01AC061F01BC062F05F
:103BE0001CC063F060C019F061C01AF062C01BF025
:103BF00063C01CF03C0E1D6E000E1E6E000E1F6E8C
:103C0000000E206E91EC33F019C0A7F11AC0A8F194
:103C100060C019F061C01AF062C01BF063C01CF0F4
:103C20003C0E1D6E000E1E6E000E1F6E000E206EEE
:103C3000F4EC35F019C060F01AC061F01BC062F0FE
:103C40001CC063F060C019F061C01AF062C01BF0C4
:103C500063C01CF0180E1D6E000E1E6E000E1F6E4F
:103C6000000E206E91EC33F019C0A9F11AC0AAF130
:103C700060C019F061C01AF062C01BF063C01CF094
:103C8000180E1D6E000E1E6E000E1F6E000E206EB2
:103C9000F4EC35F019C0ABF11AC0ACF1040E01011F
:103CA000AB25196E000E0101AC211A6E000E1C6EC0
:103CB000070E1B6E90EC2FF019C0B1F11AC0B2F1D3
:103CC000000E0101B06F460EAF6F10D0FFFFAFC105
:103CD0001EF0B0C11FF0EFEC2DF01E500101AB5FE4
:103CE0001F500101AC5B0101AF4BB02BFFFFAFC117
:103CF0001EF0B0C11FF0EFEC2DF01E500101AB5DC6
:103D00000101AC51800A296E1F50800A2958D8B091
:103D1000DDD7AFC11EF0B0C11FF0EFEC2DF01E508B
:103D2000020B0001606FABC1B3F1ACC1B4F1000E86
:103D30000101AE6F000EAD6F0DD0FFFF00016151AC
:103D40000101AB5F000EAC5B0101AD4BAE2B00017E
:103D5000D8906033FFFF990E0101AD25F66E7D0E00
:103D6000AE21F76E0800FFFFF55000016011000161
:103D7000616F00016151296E2A6A29500101AB5D12
:103D80000101AC51800A2B6E2A50800A2B58D8B002
:103D9000D4D70101AB4BAC2BA50E276E010E286EBC
:103DA0001200FFFFFFFF8AC01CF08BC01DF08CC00B
:103DB0001EF0FBEC28F01CC060F01DC061F01EC0BE
:103DC00062F007C163F008C164F009C165F045EC19
:103DD00016F060C0ECF061C0EDF062C0EEF02F5064
:103DE00030103110D8B437D0EFC06FF0F0C070F0A1
:103DF000F1C071F0ECC06CF0EDC06DF0EEC06EF093
:103E000053EC3CF06CC08DF06DC08EF06EC08FF046
:103E10002FC06FF030C070F031C071F08DC06CF009
:103E20008EC06DF08FC06EF053EC3CF06CC060F053
:103E30006DC061F06EC062F00AC163F00BC164F046
:103E40000CC165F045EC16F060C013F161C014F1CF
:103E500062C015F10AD0FFFF000E0101136F000EC2
:103E60000101146F000E0101156FFFFFEFC07EF01E
:103E7000F0C07FF0F1C080F019C16FF01AC170F08E
:103E80001BC171F0ECC063F0EDC064F0EEC065F0F2
:103E90000DC11CF00EC11DF00FC11EF0FBEC28F08F
:103EA0001CC060F01DC061F01EC062F045EC16F051
:103EB00060C06CF061C06DF062C06EF053EC3CF01D
:103EC0006CC07BF06DC07CF06EC07DF0B0EC3BF060
:103ED0007BC090F07CC091F07DC092F0ECC063F0AC
:103EE000EDC064F0EEC065F090C060F091C061F08C
:103EF00092C062F045EC16F060C093F061C094F09F
:103F000062C095F013C163F014C164F015C165F08F
:103F100093C060F094C061F095C062F045EC16F07B
:103F200060C06CF061C06DF062C06EF01CC16FF0DB
:103F30001DC170F01EC171F053EC3CF06CC016F165
:103F40006DC017F16EC018F116C110F117C111F153
:103F500018C112F1ECC00DF1EDC00EF1EEC00FF181
:103F600013C10AF114C10BF115C10CF116C18AF08D
:103F700017C18BF018C18CF01200FFFFFFFF000E7D
:103F8000216E19C01DF01AC01EF01BC01FF01CC00E
:103F900020F0000E216EFFFF170E216401D028D003
:103FA000FFFF000E19141D6E000E1A141E6E000E77
:103FB0001B141F6E800E1C14206E1D501E101F102F
:103FC0002010D8A402D08B9002D0FFFF8B80FFFF7F
:103FD0008B9200D000D000F08B82D8901934196EEB
:103FE0001A341A6E1B341B6E1C341C6E212AD3D754
:103FF000FFFF8B9400D000D000F08B841200FFFFF5
:104C5000FFFFFFFFC69A1200FFFFFFFF8C0EC8EC9C
:104C600029F01200FFFFFFFF810EC26EC20EC16E5F
:104C70001200FFFFFFFF3BC019F03CC01AF03DC01F
:104C80001BF01200FFFFFFFF38C019F039C01AF007
:104C90003AC01BF01200FFFFFFFF35C019F036C00D
:104CA0001AF037C01BF01200FFFFFFFF04C119F01C
:104CB00005C11AF006C11BF01200FFFFFFFF32C052
:104CC00019F033C01AF034C01BF01200FFFFFFFFD1
:104CD0001FC119F020C11AF021C11BF01200FFFF03
:104CE000FFFF22C119F023C11AF024C11BF01200EA
:104CF000FFFFFFFF196EFFFF9EA8FDD719C0ADFF94
:104D00001200FFFFFFFF19C03EF01AC03FF01BC0AA
:104D100040F01200FFFFFFFF19C004F11AC005F1B7
:104D20001BC006F11200FFFFFFFF19C019F11AC0E6
:104D30001AF11BC01BF11200FFFFFFFF19C02FF07B
:104D40001AC030F01BC031F01200FFFFFFFF19C086
:104D5000EFF01AC0F0F01BC0F1F01200FFFFFFFFF0
:104D600019C007F11AC008F11BC009F11200FFFFBA
:104D7000FFFF19C034F11AC035F11BC036F1120023
:104D8000FFFFFFFF19C0F2F01AC0F3F01BC0F4F0F0
:104D90001200FFFFFFFF19C031F11AC032F11BC032
:104DA00033F11200FFFFFFFF19C03DF11AC03EF1C1
:104DB0001BC03FF11200FFFFFFFF19C02EF11AC008
:104DC0002FF11BC030F11200FFFFFFFF19C03AF1B5
:104DD0001AC03BF11BC03CF11200FFFFFFFF19C0DE
:104DE0002BF11AC02CF11BC02DF11200FFFFFFFFA9
:104DF00019C037F11AC038F11BC039F11200FFFF9A
:104E0000FFFF19C028F11AC029F11BC02AF11200B6
:104E1000FFFFFFFF19C025F11AC026F11BC027F1C3
:104E20001200FFFFFFFF3EC019F03FC01AF040C064
:104E30001BF01200FFFFFFFF1CC119F01DC11AF08B
:104E40001EC11BF01200FFFFFFFFEFC019F0F0C002
:104E50001AF0F1C01BF01200FFFFFFFF19C119F09B
:104E60001AC11AF01BC11BF01200FFFFFFFF2FC079
:104E700019F030C01AF031C01BF01200FFFFFFFF25
:104E800007C119F008C11AF009C11BF01200FFFF99
:104E9000FFFF34C119F035C11AF036C11BF0120002
:104EA000FFFFFFFFF2C019F0F3C01AF0F4C01BF0CF
:104EB0001200FFFFFFFF31C119F032C11AF033C1F8
:104EC0001BF01200FFFFFFFF3DC119F03EC11AF0B9
:104ED0003FC11BF01200FFFFFFFF2EC119F02FC1D1
:104EE0001AF030C11BF01200FFFFFFFF3AC119F0AA
:104EF0003BC11AF03CC11BF01200FFFFFFFF2BC1AA
:104F000019F02CC11AF02DC11BF01200FFFFFFFF9A
:104F100037C119F038C11AF039C11BF01200FFFF78
:104F2000FFFF28C119F029C11AF02AC11BF0120095
:104F3000FFFFFFFF25C119F026C11AF027C11BF0A2
:104F40001200FFFFFFFF10C119F011C11AF012C1CA
:104F50001BF01200FFFFFFFF1CC01FF11DC020F15E
:104F60001EC021F11200FFFFFFFF1CC022F11DC077
:104F700023F11EC024F11200FFFFFFFFC5AC02D0D9
:104F8000FF0E02D0FFFF000EFFFF1200FFFFFFFF2A
:104F9000196E19C0A9FFA69EA69CA680A850120053
:104FA000FFFFFFFFF2CF19F0F29EC5809E96FFFF34
:104FB0009EA6FDD719C0F2FF1200FFFFFFFFF2CF40
:104FC00019F0F29EC5849E96FFFF9EA6FDD719C0DC
:104FD000F2FF1200FFFFFFFF0001EA9B0001EA99C8
:104FE0000001E9910001E993FEEC29F01200FFFFB6
:104FF000FFFFF2CF19F0F29EC5829E96FFFF9EA69C
:10500000FDD719C0F2FF1200FFFFFFFFF2CF19F02A
:10501000F29EC59AC5889E96FFFF9EA6FDD719C031
:10502000F2FF1200FFFFFFFFF2CF19F0F29EC58AD8
:10503000C5889E96FFFF9EA6FDD719C0F2FF1200FD
:10504000FFFFFFFFF2CF19F0F29EC5869E96FFFF8D
:105050009EA6FDD719C0F2FFC9501200FFFFFFFF47
:10506000030E1B6E21C01CF022C01DF0040E1E6E2C
:10507000D00E4FEC37F01200FFFFFFFF000E1B6E4B
:1050800021C01CF022C01DF0030E1E6ED00E4FEC8E
:1050900037F01200FFFFFFFF030E1B6E22C01CF053
:1050A00023C01DF0040E1E6ED00E25EC2EF0120053
:1050B000FFFFFFFF000E1B6E22C01CF023C01DF07F
:1050C000030E1E6ED00E25EC2EF01200FFFFFFFF28
:1050D0001A6E3F0EC716000EC66E000EC56E1A5031
:1050E000C6121950C71294869488C68A1200FFFF10
:1050F000FFFFC7A403D0196A192A02D0FFFF196A5B
:10510000FFFFC5501F0B19100009D8B41200FFFF94
:10511000EFD7FFFFFFFF1B6E000E1A6E3A0E1B60EB
:1051200005D02F0E1B6402D0010E1A6EFFFF1AC0AD
:1051300019F019301200FFFFFFFF19C01CF11AC04F
:105140001DF11BC01EF1000E01010A6F000E0101CE
:105150000B6F000E01010C6F1200FFFFFFFF81CFEC
:105160001AF019801AB0199019821AB2199219847A
:105170001AB8199419861ABA199619501200FFFF15
:10518000FFFF73C02CF074C02DF0E5EC30F02CC0A4
:105190006CF02DC06DF053EC1BF06CC073F06DC063
:1051A00074F01200FFFFFFFF246E2450196E1A6A7C
:1051B0001B6A8E0E1C6E000E1D6E51EC34F019C071
:1051C00021F01AC022F01BC023F01200FFFFFFFFE6
:1051D00021C019F022C01AF01B6A8E0E1C6E000E40
:1051E0001D6E51EC34F019C021F01AC022F01BC022
:1051F00023F01200FFFFFFFF1C501D101E10D8B43B
:1052000006D0000E1C1A000E1D1A800E1E1AFFFF7B
:105210001CC01CF01DC01DF01EC01EF01200FFFFC0
:10522000FFFF27502902F3CF2BF0F4CF2CF02750AB
:105230002A02F3502C2628502902F3502C262BC08A
:1052400027F02CC028F01200FFFFFFFF95C08AF066
:1052500096C08BF0000E00018C6F000E00018D6F68
:1052600038EC10F08AC095F08BC096F08CC097F0A7
:105270001200FFFFFFFF196E19C0C9FFC6AE02D0B2
:10528000FF0E0BD0FFFFF2CF1AF0F29E9E96FFFFAB
:105290009EA6FDD71AC0F2FF000EFFFF1200FFFF0F
:1052A000FFFF1C6E1AC01DF01BC01EF01CC0D5FFF6
:1052B0001DC0D7FF1EC0D6FFF2941904D8A402D097
:1052C000F28A02D0FFFFF29AFFFF1200FFFFFFFFFA
:1052D0001A6E1AC0A9FF19C0A8FFA69EA69CA68494
:1052E000F29E550EA76EAA0EA76EA682F28EFFFF43
:1052F000A1A8FDD7A694A1981200FFFFFFFF1B6E87
:10530000010E1A6E200E1B18D8B409D00E0E1B60A9
:1053100003D0090E1B6003D0FFFF000E1A6EFFFFC3
:105320001AC019F019301200FFFFFFFF94909492F9
:105330009494949A938093829388938A8B828B849B
:105340008B8A000E196E000E1A6E000E1B6E000E78
:105350001C6EBEEC1FF08B9A1200FFFFFFFF1D6E4C
:10536000000E1E6E0DD0FFFF1D50C7EC27F01BC0B6
:10537000D9FF1CC0DAFFDF6E1D2A1B4A1C2A1E2A19
:10538000FFFF1A501E5CD8B01200FFFFECD7FFFFE2
:10539000FFFF1B6EC00E196E080E67EC28F078EC4C
:1053A00028F0D1EC27F0500E3AEC29F0BDEC27F0B4
:1053B0001B503AEC29F0BDEC27F0DEEC27F029EC8D
:1053C00026F01200FFFFFFFF1E6E000E1F6E0ED0B4
:1053D000FFFF1CC0D9FF1DC0DAFFDF50196E1E5041
:1053E00067EC29F01C4A1D2A1E2A1F2AFFFF1B50AA
:1053F0001F5CD8B01200FFFFEBD7FFFFFFFF000ECE
:105400000101106F000E0101116F000E0101126FFA
:10541000000E01010D6F000E01010E6F000E010163
:105420000F6F000E01010A6F000E01010B6F000EDD
:1054300001010C6F1200FFFFFFFF196E19A405D0C8
:105440000001EB850001EB9707D0FFFF19A60AD0FA
:105450000001EB950001EB87FFFF0001EA8F0001DF
:10546000E98505D0FFFF0001EB950001EB97FFFFF9
:105470001200FFFFFFFF196E19A805D00001EB898C
:105480000001EB9B07D0FFFF19AA0AD00001EB999E
:105490000001EB8BFFFF0001EA8F0001E98505D0D9
:1054A000FFFF0001EB990001EB9BFFFF1200FFFFE4
:1054B000FFFF1C6EC2801CC01BF01B461B461B4618
:1054C000C2501B18C70B1B18C26E090EFFFFE82E37
:1054D000FDD700F0C284FFFFC2B4FDD7C3CF1DF0DB
:1054E000C4CF1EF01DC019F01EC01AF01200FFFF3D
:1054F000FFFF2DC027F02EC028F00B0E2A6EF10EF4
:10550000296E10EC29F0410E27240001606FF40E83
:1055100028200001616F000E0001636F640E626F4E
:1055200015EC30F060C02DF061C02EF01200FFFFCE
:10553000FFFF1B6EC00E196E080E67EC28F078ECAA
:1055400028F0D1EC27F0500E3AEC29F0BDEC27F012
:10555000810E3AEC29F0BDEC27F01B503AEC29F013
:10556000BDEC27F0DEEC27F029EC26F01200FFFF5F
:10557000FFFF1B6EC00E196E080E67EC28F078EC6A
:1055800028F0D1EC27F0500E3AEC29F0BDEC27F0D2
:10559000820E3AEC29F0BDEC27F01B503AEC29F0D2
:1055A000BDEC27F0DEEC27F029EC26F01200FFFF1F
:1055B000FFFF196E19A005D00001EB810001EB93EC
:1055C00007D0FFFF19A20AD00001EB910001EB8385
:1055D000FFFF0001EA8F0001E98509D0FFFF00010C
:1055E000EB910001EB930001EA9F0001E995FFFFB9
:1055F0001200FFFFFFFF4450D8A41CD0432A4350A1
:10560000196E1A6A010E0001F5251B6E000E0001CD
:10561000F6211C6E19501B5C1C50800A1D6E1A501E
:10562000800A1D58D8B002D0010E02D0FFFF000E34
:10563000FFFF446EFFFF44501200FFFFFFFF1A6E92
:10564000000E1C6E1950D8B419D0010E1B6E04D078
:10565000FFFFD89019361B2AFFFF19AEF9D7FFFFBD
:10566000D8901C3619501A5CD8A003D019501A5E75
:105670001C80FFFFD89019321B2EF1D7FFFF1C5062
:105680001200FFFFFFFF19C0F6FF1AC0F7FF080066
:10569000FFFFF5501B18D8A405D019C019F01AC087
:1056A0001AF011D0FFFF19C0F6FF1AC0F7FF194A10
:1056B0001A2A0800FFFFF5500009D8A4E3D7000E0E
:1056C000196E000E1A6EFFFF1200FFFFFFFF19C0D8
:1056D0001DF01AC01EF003D0FFFF1D4A1E2AFFFF57
:1056E0001DC0F6FF1EC0F7FF0800FFFFF5500009C0
:1056F000D8A4F2D719C01BF01AC01CF01B1E1C1E28
:105700001B4A1C2A1D501B24196E1E501C201A6E89
:105710001200FFFFFFFF1C6EC00E196E080E67EC33
:1057200028F078EC28F0D1EC27F0500E3AEC29F074
:10573000BDEC27F08A0E3AEC29F0BDEC27F01C50A6
:105740003AEC29F0BDEC27F01B503AEC29F0BDEC07
:1057500027F0DEEC27F029EC26F01200FFFF060E02
:10576000F66E000EF76E000EF86E0900F5CFFEF033
:105770000900F5CFFFF001EE00F0B70EEE6AE80683
:10578000FDE100EEE8F0160EEE6AE806FDE100EE3F
:105790002FF0180EEE6AE806FDE147904792000EE2
:1057A000F86E0001D8EF0DF0FFFF000E0001C66F8C
:1057B000000E0001C76FF20E0001C86F4C0E000111
:1057C000C96FC20E0001C46F000E0001C56FC60E86
:1057D0000001996F000E00019A6FC0C09BF0C1C01C
:1057E0009CF0C40E00019D6F000E00019E6FDBEC6B
:1057F00000F01200FFFFFFFF1B501C10D8B41CD09C
:10580000010E1D6E05D0FFFFD8901B361C361D2AD9
:10581000FFFF1CAEF8D7FFFF1B50195C1C501A5835
:10582000D8A004D01B50195E1C501A5AFFFFD89004
:105830001C321B321D2EEFD7FFFF19C019F01AC002
:105840001AF01200FFFFFFFF00016F5100017011FD
:1058500000017111D8B409D0000E00016F1B000EB9
:105860000001701B800E0001711BFFFF6CC060F017
:105870006DC061F06EC062F06FC063F070C064F024
:1058800071C065F045EC16F060C06CF061C06DF061
:1058900062C06EF01200FFFFFFFF05D0FFFF194A44
:1058A0001A2A1B4A1C2AFFFF19C0D9FF1AC0DAFFA7
:1058B000DF501D6E1BC0F6FF1CC0F7FF0800FFFF86
:1058C000F55000081D241E6E1E50D8A407D019C024
:1058D000D9FF1AC0DAFFDF50D8A4E0D7FFFF1E506F
:1058E000196E1A6A19BE1A061200FFFFFFFF28C1BF
:1058F0001FF029C120F02AC121F028C022F029C0C0
:1059000023F02AC024F07AEC31F0D8B002D0010E96
:1059100015D0FFFF28C01FF029C020F02AC021F0B9
:1059200025C122F026C123F027C124F07AEC31F002
:10593000D8B002D0020E02D0FFFF000EFFFF12000F
:10594000FFFFFFFF0F0E2D140001606F000E2E14DD
:105950000001616F2DC062F02EC063F0040E0001E3
:10596000646FFFFF00016335633362330001642F0E
:10597000F8D70F0E00016215276E286A000E2A6EF6
:105980000A0E296E10EC29F00001605127242D6EBB
:105990000001615128202E6E1200FFFFFFFF000E54
:1059A000236E000E226E05D0FFFF1D4A1E2A224ADA
:1059B000232AFFFF1DC0D9FF1EC0DAFFDF50D8B475
:1059C00013D01FC019F020C01AF01DC0D9FF1EC08F
:1059D000DAFFDF50216E21501B6E1C6A42EC2BF067
:1059E00019501A10D8B4E0D7FFFF22C01DF023C011
:1059F0001EF01200FFFFFFFF000E236E000E226E4E
:105A000005D0FFFF1D4A1E2A224A232AFFFF1DC080
:105A1000D9FF1EC0DAFFDF50D8B413D01FC019F071
:105A200020C01AF01DC0D9FF1EC0DAFFDF50216E62
:105A300021501B6E1C6A42EC2BF019501A10D8A48E
:105A4000E0D7FFFF22C01DF023C01EF01200FFFFB1
:105A5000FFFF000E216E000E226E000E236E000E60
:105A6000246EFFFF19A008D01D5021261E502222AF
:105A70001F50232220502422FFFFD8901D361E36AF
:105A80001F362036D8901C321B321A321932195068
:105A90001A101B101C10D8A4E4D721C019F022C082
:105AA0001AF023C01BF024C01CF01200FFFFFFFF00
:105AB0008E0E296E07D0FFFFD89024322332223277
:105AC0002132292AFFFF000E2114256E000E221418
:105AD000266E000E2314276EFF0E2414286E255008
:105AE000261027102810D8A4E6D721C019F022C00C
:105AF0001AF023C01BF029C01CF0000E1D6E51ECE3
:105B000034F019C021F01AC022F01BC023F012009B
:105B1000FFFFFFFF010E226E1EC019F01FC01AF01A
:105B2000010E1C6E900E1B6EFBEC2BF019501A1020
:105B3000D8B41BD0030E1E14206E000E1F14216E4D
:105B400020502110D8A40ED01EC019F01FC01AF08A
:105B5000000E1C6E640E1B6EFBEC2BF019501A101D
:105B6000D8A403D0FFFF000E226EFFFF22C01EF05C
:105B70001F6A1200FFFFFFFF1B6E000EAC6E000ECF
:105B8000AB6E949C948E1BB0AC881BA202D0AC8CE4
:105B9000AB8CFFFF1BB4AC8E1BA602D0AB8802D02F
:105BA000FFFFAB8AFFFF1BA802D0AC8402D0FFFF2F
:105BB000AC94FFFF9E981BAC02D09D8A02D0FFFFE1
:105BC0009D9AFFFF1BAE02D09D8802D0FFFF9D98DB
:105BD000FFFF19C0AFFFAC8AAB8E1200FFFFFFFFC3
:105BE000030E1E14206E000E1F14216E2050211073
:105BF000D8A41ED01EC019F01FC01AF0000E1C6ED3
:105C0000640E1B6EFBEC2BF019501A10D8A415D0A3
:105C10002C0E1E24196E010E1F201A6E010E1C6E12
:105C2000900E1B6EFBEC2BF019501A10D8B405D057
:105C3000FFFF010E1F6E6D0E04D0FFFF010E1F6EE1
:105C40006E0EFFFF1E6E1200FFFFFFFF206E000EA4
:105C5000216E000E1F6EC00E196E080E67EC28F044
:105C6000180EC86E78EC28F0D1EC27F020503AECF2
:105C700029F0216EBDEC27F021261B503AEC29F0CB
:105C80002126BDEC27F00DD0FFFF1CC0D9FF1DC0A1
:105C9000DAFFDF503AEC29F021261C4A1D2ABDEC20
:105CA00027F0FFFF21261E061E28D8A4EDD7DEEC24
:105CB00027F029EC26F01200FFFFFFFF2A502B10DF
:105CC0002C102D10D8B428D0010E2E6E07D0FFFF57
:105CD000D8902A362B362C362D362E2AFFFF2DAEA5
:105CE000F6D7FFFF2A50265C2B5027582C502858F7
:105CF0002D502958D8A008D02A50265E2B50275A5C
:105D00002C50285A2D50295AFFFFD8902D322C3272
:105D10002B322A322E2EE5D7FFFF26C026F027C0D1
:105D200027F028C028F029C029F01200FFFFFFFF4C
:105D300027C0D9FF28C0DAFF2BC0DFFF29C019F028
:105D40001A6A000E1C6E0A0E1B6E90EC2FF0195092
:105D5000300F2706D8A0280627C0D9FF28C0DAFFB1
:105D6000DF6E0A0E196E29501EEC2BF0296E295099
:105D7000D8B40BD02950300F2706D8A0280627C04A
:105D8000D9FF28C0DAFFDF6E0AD0FFFF2706D8A0B0
:105D9000280627C0D9FF28C0DAFF2AC0DFFFFFFF8F
:105DA0001200FFFFFFFF65C019F066C01AF0510E28
:105DB0001B6E7F0E1C6E4CEC2CF019501A10D8A4E0
:105DC0000FD067C02DF068C02EF0CAEC37F02DC0A0
:105DD00069F02EC06AF000016951B8EC2AF01DD0BC
:105DE000FFFF65C019F066C01AF02C0E1B6E7F0E07
:105DF0001C6E4CEC2CF019501A10D8A40ED067C0B1
:105E00002DF068C02EF0CAEC37F02DC069F02EC01E
:105E10006AF00001695198EC2AF0FFFF1200FFFFC1
:105E2000FFFFC0C0D4F0C1C0D5F0000E0001D66F96
:105E3000000E0001D76FC40E0001D26F000E0001EA
:105E4000D36FD40E0001996F000E00019A6FC2C08B
:105E50009BF0C3C09CF0D20E00019D6F000E0001AC
:105E60009E6FDBEC00F0D4C0D9FFD5C0DAFF000E86
:105E7000DF6EC0C0D0F0C1C0D1F00001D01FD11F73
:105E8000D04BD12B0001D4510001D0250001C06FAF
:105E90000001D5510001D1210001C16F1200FFFFA7
:105EA000FFFF000E2A6E8E0E296E24AE12D0241E25
:105EB000231E221E216C000E222223222422010EE8
:105EC0002A6E07D0FFFFD8902432233222322132AB
:105ED000292AFFFF000E2114256E000E2214266EC3
:105EE000000E2314276EFF0E2414286E2550261052
:105EF00027102810D8A4E6D721C019F022C01AF024
:105F000023C01BF029C01CF02AC01DF051EC34F056
:105F100019C021F01AC022F01BC023F01200FFFFAD
:105F2000FFFF000E1E6E1AAE06D0196C1A1ED8B0F6
:105F30001A2A010E1E6EFFFF1CAE04D01B6C1C1E25
:105F4000D8B01C2AFFFF1B501C10D8B41CD0010E67
:105F50001D6E05D0FFFFD8901B361C361D2AFFFF93
:105F60001CAEF8D7FFFF1B50195C1C501A58D8A064
:105F700004D01B50195E1C501A5AFFFFD8901C32D7
:105F80001B321D2EEFD7FFFF1E50D8B404D0196C62
:105F90001A1ED8B01A2AFFFF19C019F01AC01AF039
:105FA0001200FFFFFFFF000E1F6E000E1E6EC00EE0
:105FB000196E080E67EC28F0180EC86E78EC28F001
:105FC000D1EC27F0500E3AEC29F01F6EBDEC27F013
:105FD0001F26800E3AEC29F01F26BDEC27F019D0C1
:105FE000FFFF1BC0F6FF1CC0F7FFF86A050EF76441
:105FF00004D00800FFFFF55005D0F6CFE1FFF7CF42
:10600000E2FFE7503AEC29F01F261B4A1C2ABDECA0
:1060100027F0FFFF1F261D061D28D8A4E1D7DEECC0
:1060200027F029EC26F01200FFFFFFFF000E000111
:10603000666F000E656F0001625100016311D8B4F4
:1060400030D0010E0001646F07D0FFFF0001D8902F
:10605000623763370001642BFFFF000163AFF5D7A0
:10606000FFFF0001D89065376637000162510001DB
:10607000605D0001635100016159D8A00AD00001A0
:1060800062510001605F000163510001615B00012A
:106090006581FFFF0001D890633362330001642FF4
:1060A000DFD7FFFF65C060F066C061F01200FFFF40
:1060B000FFFFD8C019F0D9C01AF0E50E1B6E7F0E95
:1060C0001C6E4CEC2CF019501A10D8A40BD05EECBE
:1060D00026F019C01CF01AC01DF01BC01EF0ABEC5E
:1060E00027F028D0FFFFD8C019F0D9C01AF0D90E78
:1060F0001B6E7F0E1C6E4CEC2CF019501A10D8A49D
:106100000BD05EEC26F019C01CF01AC01DF01BC0AD
:106110001EF0B4EC27F00ED0FFFFF7C0C0F0F8C0BF
:10612000C1F0690E0001C26F7F0E0001C36F10EC59
:106130002FF09D88FFFF1200FFFFFFFF000E216E72
:10614000000E226E000E236E000E246E1D501E10D7
:106150001F102010D8B42ED0010E256E07D0FFFFDF
:10616000D8901D361E361F362036252AFFFF20AE5A
:10617000F6D7FFFFD89021362236233624361D501D
:10618000195C1E501A581F501B5820501C58D8A07C
:1061900009D01D50195E1E501A5A1F501B5A20500C
:1061A0001C5A2180FFFFD89020321F321E321D3230
:1061B000252EDFD7FFFF21C019F022C01AF023C01F
:1061C0001BF024C01CF01200FFFFFFFF2CC0D9FF02
:1061D0002DC0DAFFDECF64F0DECF65F0DECF66F0F3
:1061E000DECF67F04CC119F04DC11AF0000E1ABE97
:1061F000FF0E1B6E1C6E3C0E1D6E000E1E6E000E02
:106200001F6E000E206E28EC2DF0191E1A1E1B1E8C
:106210001C1E192A000E1A221B221C220001645186
:1062200019240001686F000165511A200001696F8F
:10623000000166511B2000016A6F000167511C209C
:1062400000016B6F680E276E000E286EB5EC1DF016
:1062500027C02CF028C02DF01200FFFFFFFF000E1A
:10626000246E22AE06D0216C221ED8B0222A010E46
:10627000246EFFFF20AE06D01F6C201ED8B0202A4F
:10628000010E241AFFFF000E266E000E256E21500F
:106290002210D8B420D0010E236E05D0FFFFD89075
:1062A00021362236232AFFFF22AEF8D7FFFFD890EF
:1062B0002536263621501F5C22502058D8A005D004
:1062C00021501F5E2250205A2580FFFFD890223295
:1062D0002132232EEBD7FFFF2450D8B404D0256CF5
:1062E000261ED8B0262AFFFF25C01FF026C020F0AA
:1062F0001200FFFFFFFF21AE16D01FC025F020C007
:1063000026F021C027F0251E261E271E252A000E56
:1063100026222722000E25241F6E000E2620206E26
:10632000800E2720216EFFFF24AE16D022C025F05C
:1063300023C026F024C027F0251E261E271E252A4E
:10634000000E26222722000E2524226E000E262073
:10635000236E800E2720246EFFFF000E1F1A000EF2
:10636000201A800E211A000E221A000E231A800E07
:10637000241A22501F5C2350205824502158D8B092
:1063800002D0D89002D0FFFFD880FFFF1200FFFF9D
:10639000FFFF000E0001686F000E676F000E000126
:1063A0006A6F010E696F33D0FFFF000E1C6E0A0E7C
:1063B0001B6E65C019F066C01AF090EC2FF019C082
:1063C00027F01AC028F069C029F06AC02AF010EC42
:1063D00029F0275000016727285000016823000199
:1063E000693B6A3BF00E6A1769510F0B6A13F00E96
:1063F000691765C01FF066C020F0000E226E0A0EFD
:10640000216E2EEC31F01FC065F020C066F0FFFF5A
:10641000000166BF07D000016651C7E100016505B4
:10642000D8B0C2D7FFFF67C065F068C066F0120041
:10643000FFFFFFFF7BC06FF07CC070F07DC071F08C
:10644000000E0001636F800E0001646F3F0E0001BB
:10645000656F3EC01CF03FC01DF040C01EF0FBEC5D
:1064600028F01CC060F01DC061F01EC062F045EC59
:1064700016F060C06CF061C06DF062C06EF053EC5D
:106480003CF06CC07EF06DC07FF06EC080F049C102
:106490006FF04AC170F04BC171F03EC06CF03FC06C
:1064A0006DF040C06EF053EC3CF06CC060F06DC01D
:1064B00061F06EC062F07EC063F07FC064F080C0A7
:1064C00065F045EC16F060C081F061C082F062C0FA
:1064D00083F081C049F182C04AF183C04BF181C091
:1064E0007BF082C07CF083C07DF01200FFFFFFFFD5
:1064F0007BC06FF07CC070F07DC071F0000E0001B9
:10650000636F800E0001646F3F0E0001656F3EC037
:106510001CF03FC01DF040C01EF0FBEC28F01CC07A
:1065200060F01DC061F01EC062F045EC16F060C066
:106530006CF061C06DF062C06EF053EC3CF06CC06A
:106540007EF06DC07FF06EC080F046C16FF047C135
:1065500070F048C171F03EC06CF03FC06DF040C0BB
:106560006EF053EC3CF06CC060F06DC061F06EC03A
:1065700062F07EC063F07FC064F080C065F045ECDF
:1065800016F060C081F061C082F062C083F081C00B
:1065900046F182C047F183C048F181C07BF082C0E0
:1065A0007CF083C07DF01200FFFFFFFF7BC06FF027
:1065B0007CC070F07DC071F0000E0001636F800E32
:1065C0000001646F3F0E0001656F3EC01CF03FC0CC
:1065D0001DF040C01EF0FBEC28F01CC060F01DC098
:1065E00061F01EC062F045EC16F060C06CF061C056
:1065F0006DF062C06EF053EC3CF06CC07EF06DC08C
:106600007FF06EC080F043C16FF044C170F045C1AF
:1066100071F03EC06CF03FC06DF040C06EF053ECC6
:106620003CF06CC060F06DC061F06EC062F07EC086
:1066300063F07FC064F080C065F045EC16F060C088
:1066400081F061C082F062C083F081C043F182C0FA
:1066500044F183C045F181C07BF082C07CF083C0EF
:106660007DF01200FFFFFFFF7BC06FF07CC070F079
:106670007DC071F0000E0001636F800E0001646F39
:106680003F0E0001656F3EC01CF03FC01DF040C0D2
:106690001EF0FBEC28F01CC060F01DC061F01EC0B5
:1066A00062F045EC16F060C06CF061C06DF062C045
:1066B0006EF053EC3CF06CC07EF06DC07FF06EC0AD
:1066C00080F040C16FF041C170F042C171F03EC036
:1066D0006CF03FC06DF040C06EF053EC3CF06CC00D
:1066E00060F06DC061F06EC062F07EC063F07FC08C
:1066F00064F080C065F045EC16F060C081F061C0C8
:1067000082F062C083F081C040F182C041F183C059
:1067100042F181C07BF082C07CF083C07DF012002A
:10672000FFFFFFFF000E226E1CAE0AD01C1E1B1EB8
