:1000000000F0D9EF00F0BEF0FFFF4782FACF06F014
:10001000FBCF07F0E9CF08F0EACF09F0E1CF0AF013
:10002000E2CF0BF0D9CF0CF0DACF0DF0F3CF0EF01A
:10003000F4CF0FF0F6CF10F0F7CF11F0F8CF12F0A9
:10004000F5CF13F047C014F048C015F049C016F0C2
:100050004AC017F0F2BAF2A408D0F294010E0001DF
:10006000FA6FFCC0D7FFFDC0D6FFFFFF9DB89EA86A
:1000700026D04450010D520EF324D96E010EF42007
:10008000DA6EDF50D8B412D04450010D520EF32472
:10009000D96E010EF420DA6EDF50AD6E442A280EC0
:1000A00044640DD0000E446E030E05D0FFFFAD502A
:1000B000000E446E020EFFFF0001F86F9D98FFFFD7
:1000C0009DBA9EAA4ED0AB50060B186E1850D8A4FD
:1000D0003FD04650010D950EF324D96E010EF42049
:1000E000DA6EAECFDFFF462A140E466401D033D05D
:1000F000FFFFFF0E016EFF0E026E4650036E046A94
:100100000150032602500422950E0324D96E010EDD
:100110000420DA6E0D0EDE18D8A423D0FF0E016E77
:10012000FF0E026E4650036E046A01500326025011
:100130000422950E0324D96E010E0420DA6E000EFF
:10014000DF6E010E0001F96F000E466E9D9A09D018
:10015000FFFFAB98AB88FFFF000E466E030E000159
:10016000F96FFFFF17C04AF016C049F015C048F0FC
:1001700014C047F013C0F5FF12C0F8FF11C0F7FF1D
:1001800010C0F6FF0FC0F4FF0EC0F3FF0DC0DAFF82
:100190000CC0D9FF0BC0E2FF0AC0E1FF09C0EAFFB3
:1001A00008C0E9FF07C0FBFF06C0FAFF4792110035
:1001B000FFFFEFEF2BF0FFFF000E0001B36F000E0B
:1001C000B26F5BEF08F0FFFF250E0001C319D8B432
:1001D0003FD0000120EE02F09D51D9269E51DA2237
:1001E000DE50DE10D8B418D0000120EE02F09D5190
:1001F000D9269E51DA2201D825D0FFFF0500FA6EDC
:10020000DE50FD6EDE50FE6EF850FF6EFA500001BB
:10021000C3511200FFFF16D0FFFF9DC0D9FF9EC043
:10022000DAFFDECFA3F0DDCFA4F0A3C0D9FFA4C0D6
:10023000DAFFC3C0DFFF9DC0D9FF9EC0DAFFDE2A10
:10024000000EDD22FFFF0001B24BB32B5BEF08F085
:10025000FFFF000E0001B16F000EB06F9FC0F6FFF0
:10026000A0C0F7FF0800FFFFF5502E0AD8A438D031
:100270000001B18D00019F4BA02B000E0001C26F49
:10028000000EC16F20D0FFFFC1C027F0C2C028F010
:10029000000E2A6E0A0E296E74EC29F09FC0F6FF3C
:1002A000A0C0F7FF0800FFFFF5502726000E282208
:1002B000D00E27240001C16FFF0E28200001C26F5D
:1002C00000019F4BA02BFFFF9FC0F6FFA0C0F7FFD0
:1002D0000800FFFFF550EEEC28F0D8A0E2D0D3D70D
:1002E000FFFF000E0001C26F000EC16F0001B18957
:1002F000D8D0FFFF0001B185F4D0FFFFA1C0D9FF26
:10030000A2C0DAFFDFCFA3F0020EDE26DFCFA4F01B
:10031000000EDD22A3C0D9FFA4C0DAFFDECFAEF00D
:10032000DDCFAFF00001AE510001AF11D8A406D06F
:10033000620E0001AE6F7F0E0001AF6FFFFF000E77
:100340000001AD6F000EAC6F04D0FFFF0001AC4B9D
:10035000AD2BFFFF0001AC510001AE250001A36FE2
:100360000001AD510001AF210001A46FA3C0F6FF51
:10037000A4C0F7FFF86A050EF76404D00800FFFF79
:10038000F55005D0F6CFE1FFF7CFE2FFE7500009C7
:10039000D8A4DBD70001C1510001C211D8B473D079
:1003A0000001AC510001C15D0001AD510001C25915
:1003B000D8B069D0C1C0ACF0C2C0ADF064D0FFFF0E
:1003C000000120EE02F09D51D9269E51DA22DE5026
:1003D000DE10D8B42BD0000120EE02F09D51D926BA
:1003E0009E51DA2201D81DD0FFFF0500FA6EDE50C3
:1003F000FD6EDE50FE6EF850FF6EFA50AEC0F6FF96
:10040000AFC0F7FFF86A050EF76404D00800FFFFDD
:10041000F55005D0F6CFE1FFF7CFE2FFE75012002D
:10042000FFFFFFFF0001AE4BAF2B29D0FFFFAEC097
:10043000F6FFAFC0F7FFF86A9DC0D9FF9EC0DAFF94
:10044000DECFA3F0DDCFA4F0A3C0D9FFA4C0DAFFB4
:10045000050EF76404D00800FFFFF55005D0F6CF75
:10046000E1FFF7CFE2FFE750DF6E0001AE4BAF2BAD
:100470009DC0D9FF9EC0DAFFDE2A000EDD22FFFFFD
:100480000001B24BB32BFFFF0001AC07D8A0AD07B2
:100490000001AC2995E10001AD29D8B45BEF08F06B
:1004A0008ED7FFFF9FC0F6FFA0C0F7FF00019F4B54
:1004B000A02B0800FFFFF5CFC3F00001C351000AD5
:1004C000D8B46CEF08F0640AD8B40BD0020AD8B4E0
:1004D00010D70F0AD8B405D01A0AD8B40ED75BEFDC
:1004E00008F0FFFF070E0001B115D8B4F2EF06F0D7
:1004F0000001B1A905D0000E0001C26F060EC16F48
:10050000FFFFA1C0D9FFA2C0DAFFDFCFA3F0030E27
:10051000DE26DFCFA4F0000EDD22A3C0D9FFA4C0E9
:10052000DAFFDECFBEF0DECFBFF0DDCFC0F00001DE
:10053000C0AF11D0BEC01CF0BFC01DF0C0C01EF0C7
:100540005FEC29F01CC0BEF01DC0BFF01EC0C0F0A3
:10055000030E0001B013FFFF000E0001B56F000E87
:10056000B46F0001BE510001BF110001C011D8B429
:1005700095D0820E0001A36FFF0E0001A46FBEC0D4
:10058000A5F0BFC0A6F0C0C0A7F0C1C0A8F0100E73
:1005900007D0FFFF0001D890A833A733A633A533B7
:1005A000FFFFE82EF6D70001A5510001A3250001A9
:1005B000B46F000E0001A4210001B56F0001B40763
:1005C000D8A0B507B4C027F0B5C028F0000E2A6E39
:1005D000030E296E74EC29F027C0B4F028C0B5F0E2
:1005E000B4C01FF0B5C020F0000E226E0A0E216EBE
:1005F000AAEC31F01FC0B4F020C0B5F00001B5AFD7
:1006000004D00001B407D8A0B507FFFF0001B45122
:1006100000081BEC10F087C0BAF088C0BBF089C09E
:10062000BCF0BAC078F0BBC079F0BCC07AF0BEC0F4
:100630007BF0BFC07CF0C0C07DF053EC3CF078C0D4
:10064000BAF079C0BBF07AC0BCF0BAC01FF0BBC032
:1006500020F0BCC021F0000E226E800E236E3F0EF3
:10066000246EF6EC31F0D8B005D00001B407D8A064
:10067000B50714D0FFFFBAC01FF0BBC020F0BCC04C
:1006800021F0000E226E200E236E410E246EF6EC39
:1006900031F0D8A003D00001B44BB52BFFFF00010F
:1006A000C2BF08D00001C2511FE10D0E0001C15DA3
:1006B000D8B019D0FFFFBEC060F0BFC061F0C0C0AD
:1006C00062F00001C1518FEC18F087C063F088C060
:1006D00064F089C065F0D0EC19F060C0BEF061C074
:1006E000BFF062C0C0F0FFFF0001B5BF08D000013D
:1006F000B5512CE10A0E0001B45DD8B026D0FFFF41
:100700000001BE510001BF110001C011D8B462D078
:10071000BEC08EF0BFC08FF0C0C090F016EC3BF0B2
:1007200000018E5100018F11000190110001911103
:10073000D8A450D00001B5BF4DD00001B55106E19D
:10074000020E0001B45DD8A045D0FFFFBAC01FF073
:10075000BBC020F0BCC021F0700E226E890E236E4B
:10076000400E246EF6EC31F0D8B003D00001F70E45
:1007700003D0FFFF0001F80EFFFFB427FF0EB523E3
:100780000001B4511BEC10F087C0BAF088C0BBF078
:1007900089C0BCF0BEC019F0BFC01AF0C0C01BF0C9
:1007A000BAC01CF0BBC01DF0BCC01EF071EC1FF045
:1007B00019C0B6F01AC0B7F01BC0B8F01CC0B9F031
:1007C000000E0001BE6F000E0001BF6F000E0001A1
:1007D000C06F34D0FFFFBEC08EF0BFC08FF0C0C06E
:1007E00090F016EC3BF08EC0B6F08FC0B7F090C022
:1007F000B8F091C0B9F0BEC069F0BFC06AF0C0C027
:100800006BF0B6C021F0B7C022F0B8C023F0B9C079
:1008100024F097EC2DF021C06CF022C06DF023C0C5
:100820006EF063EC2CF069C0BEF06AC0BFF06BC024
:10083000C0F0000E0001B56F000EB46FFFFF010E97
:100840000001C36FFFFF0A0E0001C319D8B422D004
:100850000001C351040D230EF324F66E7D0EF42027
:10086000F76E0900FFFFF5500001B65D0900FFFFBC
:10087000F5500001B7590900FFFFF5500001B859C4
:100880000900FFFFF5500001B959D8A003D00001BD
:10089000C32BD8D7FFFF030E0001B0150001A36FD3
:1008A000000E0001B1150001A46F0001A351000169
:1008B000A411D8B4B8D0000120EE02F09D51D92681
:1008C0009E51DA22DE50DE10D8B417D0000120EE9F
:1008D00002F09D51D9269E51DA2201D8A0D0FFFF07
:1008E0000500FA6EDE50FD6EDE50FE6EF850FF6EB3
:1008F000FA502D0E1200FFFF92D0FFFF9DC0D9FFCE
:100900009EC0DAFFDECFA3F0DDCFA4F0A3C0D9FFF5
:10091000A4C0DAFF2D0E7AD0FFFFB6C019F0B7C021
:100920001AF0B8C01BF0B9C01CF00001C351040D8F
:10093000230EF324F66E7D0EF420F76E0900FFFF00
:10094000F5CF1DF00900FFFFF5CF1EF00900FFFFF6
:10095000F5CF1FF00A00FFFFF5CF20F019EC31F0C2
:1009600019C0BAF01AC0BBF01BC0BCF01CC0BDF06F
:10097000BAC026F0BBC027F0BCC028F0BDC029F02B
:100980000A0E2A6E000E2B6E000E2C6E000E2D6EBF
:100990009DEC2EF026C0BAF027C0BBF028C0BCF0FA
:1009A00029C0BDF0000120EE02F09D51D9269E51D4
:1009B000DA22DE50DE10D8B419D0000120EE02F0A9
:1009C0009D51D9269E51DA2201D829D0FFFF05007A
:1009D000FA6EDE50FD6EDE50FE6EF850FF6EFA507D
:1009E0000001BA51300F1200FFFF19D0FFFF0001C4
:1009F000BA51300F9DC0D9FF9EC0DAFFDECFA3F001
:100A0000DDCFA4F0A3C0D9FFA4C0DAFFFFFFDF6EE3
:100A10009DC0D9FF9EC0DAFFDE2A000EDD22FFFF57
:100A20000001B24BB32BFFFF0001C3070001C32934
:100A3000D8B442D071D7FFFF000120EE02F09D51E3
:100A4000D9269E51DA22DE50DE10D8B417D000012C
:100A500020EE02F09D51D9269E51DA2201D824D0F1
:100A6000FFFF0500FA6EDE50FD6EDE50FE6EF850A0
:100A7000FF6EFA50300E1200FFFF16D0FFFF9DC030
:100A8000D9FF9EC0DAFFDECFA3F0DDCFA4F0A3C074
:100A9000D9FFA4C0DAFF300EDF6E9DC0D9FF9EC023
:100AA000DAFFDE2A000EDD22FFFF0001B24BB32B7E
:100AB0000001B407D8A0B507FFFF0001B5BF07D0FC
:100AC0000001B551B9E10001B405D8B0B4D7FFFFBA
:100AD0000001C2BF0CD00001C25105E1090E0001A6
:100AE000C15DD8A004D0080E0001C36F03D0FFFF82
:100AF000C1C0C3F0FFFF0001C3510001C15F000E80
:100B00000001C3BFFF0E0001C25B0001C351000121
:100B1000D8B43CD0000120EE02F09D51D9269E5160
:100B2000DA22DE50DE10D8B417D0000120EE02F039
:100B30009D51D9269E51DA2201D824D0FFFF05000D
:100B4000FA6EDE50FD6EDE50FE6EF850FF6EFA500B
:100B50002E0E1200FFFF16D0FFFF9DC0D9FF9EC0D2
:100B6000DAFFDECFA3F0DDCFA4F0A3C0D9FFA4C08D
:100B7000DAFF2E0EDF6E9DC0D9FF9EC0DAFFDE2A9F
:100B8000000EDD22FFFF0001B24BB32BFFFF00017F
:100B9000C3511BEC10F087C0A9F088C0AAF089C02F
:100BA000ABF0BEC07BF0BFC07CF0C0C07DF0A9C080
:100BB00078F0AAC079F0ABC07AF053EC3CF078C082
:100BC0008EF079C08FF07AC090F016EC3BF08EC0BA
:100BD000B6F08FC0B7F090C0B8F091C0B9F0B1D006
:100BE000FFFFB6C019F0B7C01AF0B8C01BF0B9C00B
:100BF0001CF00001C351040D230EF324F66E7D0E8C
:100C0000F420F76E0900FFFFF5CF1DF00900FFFF8C
:100C1000F5CF1EF00900FFFFF5CF1FF00A00FFFF20
:100C2000F5CF20F019EC31F019C0BAF01AC0BBF0C2
:100C30001BC0BCF01CC0BDF0BAC026F0BBC027F082
:100C4000BCC028F0BDC029F00A0E2A6E000E2B6E23
:100C5000000E2C6E000E2D6E9DEC2EF026C0BAF00C
:100C600027C0BBF028C0BCF029C0BDF0000120EEB9
:100C700002F09D51D9269E51DA22DE50DE10D8B402
:100C800019D0000120EE02F09D51D9269E51DA22A2
:100C900001D828D0FFFF0500FA6EDE50FD6EDE5051
:100CA000FE6EF850FF6EFA500001BA51300F12007C
:100CB000FFFF18D0FFFF0001BA51300F9DC0D9FFD0
:100CC0009EC0DAFFDECFA3F0DDCFA4F0A3C0D9FF32
:100CD000A4C0DAFFDF6E9DC0D9FF9EC0DAFFDE2A16
:100CE000000EDD22FFFF0001B24BB32BB6C026F091
:100CF000B7C027F0B8C028F0B9C029F00001C3512F
:100D0000040D230EF324F66E7D0EF420F76E090019
:100D1000FFFFF5CF2AF00900FFFFF5CF2BF0090008
:100D2000FFFFF5CF2CF00A00FFFFF5CF2DF09DEC73
:100D30002EF026C0B6F027C0B7F028C0B8F029C002
:100D4000B9F0FFFF0001C3070001C329D8B442D0A6
:100D500047D7FFFF000120EE02F09D51D9269E519A
:100D6000DA22DE50DE10D8B417D0000120EE02F0F7
:100D70009D51D9269E51DA2201D824D0FFFF0500CB
:100D8000FA6EDE50FD6EDE50FE6EF850FF6EFA50C9
:100D9000300E1200FFFF16D0FFFF9DC0D9FF9EC08E
:100DA000DAFFDECFA3F0DDCFA4F0A3C0D9FFA4C04B
:100DB000DAFF300EDF6E9DC0D9FF9EC0DAFFDE2A5B
:100DC000000EDD22FFFF0001B24BB32B0001C10773
:100DD000D8A0C207FFFF0001C1510001C211D8B461
:100DE0006AD1B7D7FFFFA1C0D9FFA2C0DAFFDFCF1A
:100DF000A3F0020EDE26DFCFA4F0000EDD22A3C09A
:100E0000D9FFA4C0DAFFDECFB6F0DDCFB7F0000126
:100E1000000EB7BFFF0EB86FB96F0001B9AF0CD0AD
:100E2000030E0001B0130001B91FB81FB71FB66D44
:100E3000000EB723B823B923FFFF0001C151000101
:100E4000C211D8A40DD00001B6510001B7110001A4
:100E5000B8110001B911D8A403D00001C14BC22BB5
:100E6000FFFF010E0001C36FFFFF0A0E0001C3194F
:100E7000D8B422D00001C351040D230EF324F66E22
:100E80007D0EF420F76E0900FFFFF5500001B65DFE
:100E90000900FFFFF5500001B7590900FFFFF550A9
:100EA0000001B8590900FFFFF5500001B959D8A059
:100EB00003D00001C32BD8D7FFFF800E0001C3BFB2
:100EC0007F0E0001A36F0001C1510001C35D00014D
:100ED000C251800A0001A359D8B003D0C1C0C3F0E9
:100EE00019D0FFFF0001C251800A0001A36F000169
:100EF000C3510001C15D800E0001C3BF7F0E000120
:100F0000A359D8B007D00001C3510001C16FC26B13
:100F1000C1BFC207FFFF030E0001B0150001A36FA0
:100F2000000E0001B1150001A46F0001A3510001E2
:100F3000A411D8B4B4D0000120EE02F09D51D926FE
:100F40009E51DA22DE50DE10D8B417D0000120EE18
:100F500002F09D51D9269E51DA2201D89CD0FFFF84
:100F60000500FA6EDE50FD6EDE50FE6EF850FF6E2C
:100F7000FA502D0E1200FFFF8ED0FFFF9DC0D9FF4B
:100F80009EC0DAFFDECFA3F0DDCFA4F0A3C0D9FF6F
:100F9000A4C0DAFF2D0EDF6E76D0FFFFC1C0A3F034
:100FA000C2C0A4F00001D890A337A4370001D890A4
:100FB000A337A437230E0001A325F66E7D0EA421CE
:100FC000F76E0900FFFFF5CF1DF00900FFFFF5CF19
:100FD0001EF00900FFFFF5CF1FF00A00FFFFF5CF5D
:100FE00020F0B6C019F0B7C01AF0B8C01BF0B9C0F5
:100FF0001CF019EC31F019C026F01AC027F01BC004
:1010000028F01CC029F00A0E2A6E000E2B6E000E6E
:101010002C6E000E2D6E9DEC2EF02650300F000130
:10102000C36F000120EE02F09D51D9269E51DA22B5
:10103000DE50DE10D8B418D0000120EE02F09D5131
:10104000D9269E51DA2201D826D0FFFF0500FA6E7C
:10105000DE50FD6EDE50FE6EF850FF6EFA5000015D
:10106000C3511200FFFF17D0FFFF9DC0D9FF9EC0E4
:10107000DAFFDECFA3F0DDCFA4F0A3C0D9FFA4C078
:10108000DAFFC3C0DFFFFFFF9DC0D9FF9EC0DAFFBC
:10109000DE2A000EDD22FFFF0001B24BB32BFFFF63
:1010A0000001C107D8A0C2070001C12903E1000166
:1010B000C229D8A472D7FFFF9FC0F6FFA0C0F7FFD8
:1010C00000019F4BA02B0800FFFFF5CFC3F00001EC
:1010D000C351D8A4E3EF00F0FFFFB2C09DF0B3C04E
:1010E0009EF01200FFFFFFFFDCC019F0DDC01AF018
:1010F000F50E1B6E7F0E1C6E8CEC2CF019501A1026
:10110000D8A415D0F6C0C4F0F7C0C5F0770E000122
:10111000C66F7F0E0001C76F7FEC27F019C0C8F0C3
:101120001AC0C9F01BC0CAF08DEC2FF0DCD2FFFF53
:10113000DCC019F0DDC01AF0F20E1B6E7F0E1C6EC3
:101140008CEC2CF019501A10D8A415D0F6C0C4F0AD
:10115000F7C0C5F0770E0001C66F7F0E0001C76FA4
:101160009AEC27F019C0C8F01AC0C9F01BC0CAF029
:101170008DEC2FF0B8D2FFFFDCC019F0DDC01AF003
:10118000EF0E1B6E7F0E1C6E8CEC2CF019501A109B
:10119000D8A415D0F6C0C4F0F7C0C5F0770E000192
:1011A000C66F7F0E0001C76F91EC27F019C0C8F021
:1011B0001AC0C9F01BC0CAF08DEC2FF094D2FFFF0B
:1011C000DCC019F0DDC01AF03F0E1B6E7F0E1C6EE6
:1011D0008CEC2CF019501A10D8A415D0F6C0C4F01D
:1011E000F7C0C5F0770E0001C66F7F0E0001C76F14
:1011F00088EC27F019C0C8F01AC0C9F01BC0CAF0AB
:101200008DEC2FF070D2FFFFDCC019F0DDC01AF0BA
:10121000480E1B6E7F0E1C6E8CEC2CF019501A10B1
:10122000D8A415D0F6C0C4F0F7C0C5F0770E000101
:10123000C66F7F0E0001C76FA3EC27F019C0C8F07E
:101240001AC0C9F01BC0CAF08DEC2FF04CD2FFFFC2
:10125000DCC019F0DDC01AF0360E1B6E7F0E1C6E5E
:101260008CEC2CF019501A10D8A415D0F6C0C4F08C
:10127000F7C0C5F0770E0001C66F7F0E0001C76F83
:10128000B9EC26F019C0C8F01AC0C9F01BC0CAF0EA
:101290008DEC2FF028D2FFFFDCC019F0DDC01AF072
:1012A000E90E1B6E7F0E1C6E8CEC2CF019501A1080
:1012B000D8A415D0F6C0C4F0F7C0C5F07D0E00016B
:1012C000C66F7F0E0001C76F76EC27F019C0C8F01B
:1012D0001AC0C9F01BC0CAF08DEC2FF004D2FFFF7A
:1012E000DCC019F0DDC01AF0E50E1B6E7F0E1C6E1F
:1012F0008CEC2CF019501A10D8A415D0F6C0C4F0FC
:10130000F7C0C5F0770E0001C66F7F0E0001C76FF2
:10131000F4EC27F019C0C8F01AC0C9F01BC0CAF01D
:101320008DEC2FF0E0D1FFFFDCC019F0DDC01AF02A
:10133000D90E1B6E7F0E1C6E8CEC2CF019501A10FF
:10134000D8A415D0F6C0C4F0F7C0C5F0770E0001E0
:10135000C66F7F0E0001C76FFDEC27F019C0C8F003
:101360001AC0C9F01BC0CAF08DEC2FF0BCD1FFFF32
:10137000DCC019F0DDC01AF0AA0E1B6E7F0E1C6EC9
:101380008CEC2CF019501A10D8A41ED00001FBA12F
:101390000DD0F6C0C4F0F7C0C5F05A0E0001C66FFC
:1013A0007F0E0001C76F8DEC2FF09DD1FFFFF6C0BF
:1013B000C4F0F7C0C5F0830E0001C66F7F0E0001B8
:1013C000C76F8DEC2FF08FD1FFFFDCC019F0DDC0AF
:1013D0001AF0EC0E1B6E7F0E1C6E8CEC2CF019506C
:1013E0001A10D8A415D0F6C0C4F0F7C0C5F0770E17
:1013F0000001C66F7F0E0001C76F52EC39F078C054
:10140000C8F079C0C9F07AC0CAF08DEC2FF06BD16A
:10141000FFFFDCC019F0DDC01AF0DD0E1B6E7F0E81
:101420001C6E8CEC2CF019501A10D8A415D0F6C0F4
:10143000C4F0F7C0C5F0770E0001C66F7F0E000143
:10144000C76FC2EC26F019C0C8F01AC0C9F01BC0A3
:10145000CAF08DEC2FF047D1FFFFDCC019F0DDC0E2
:101460001AF0A50E1B6E7F0E1C6E8CEC2CF0195022
:101470001A10D8A44CD0E00E00018C6F000E0001B1
:101480008D6F98EC35F0E00E0001606F000E0001EA
:10149000616F61EC31F060C0E4F061C0E5F0F6C06E
:1014A000C4F0F7C0C5F0180E0001C66F7F0E000132
:1014B000C76F000120EE06F0E451D926E551DA228B
:1014C000DECFC8F0DDCFC9F0000120EE08F0E45116
:1014D000D926E551DA22DECFCAF0DDCFCBF000010C
:1014E00020EE0AF0E451D926E551DA22DECFDEF013
:1014F000DDCFDFF06C0E0001DE250001CC6F070EA2
:101500000001DF210001CD6F8DEC2FF0ECD0FFFF4B
:10151000DCC019F0DDC01AF0130E1B6E7F0E1C6EBE
:101520008CEC2CF019501A10D8A43FD0E00E00011A
:101530008C6F000E00018D6F98EC35F0E00E00010D
:10154000606F000E0001616F61EC31F060C0E4F08B
:1015500061C0E5F0F6C0C4F0F7C0C5F0220E00018E
:10156000C66F7F0E0001C76F000120EE04F0E4514A
:10157000D926E551DA22DECFC8F0DDCFC9F000016F
:1015800020EE02F0E451D926E551DA22DECFCAF08E
:10159000DDCFCBF0E4C0D9FFE5C0DAFFDECFCCF081
:1015A000DDCFCDF08DEC2FF09ED0FFFFDCC019F029
:1015B000DDC01AF0A00E1B6E7F0E1C6E8CEC2CF0A2
:1015C00019501A10D8A45ED00001FBA12DD0F6C08E
:1015D000C4F0F7C0C5F0460E0001C66F7E0E0001D4
:1015E000C76F52EC39F078C0C8F079C0C9F07AC042
:1015F000CAF0C2EC26F019C0CBF01AC0CCF01BC068
:10160000CDF0A3EC27F019C0CEF01AC0CFF01BC06C
:10161000D0F006EC28F019C0D1F01AC0D2F01BC0EF
:10162000D3F08DEC2FF05FD0FFFFF6C0C4F0F7C011
:10163000C5F0620E0001C66F7E0E0001C76F52EC4E
:1016400039F078C0C8F079C0C9F07AC0CAF0C2ECED
:1016500026F019C0CBF01AC0CCF01BC0CDF0A3EC23
:1016600027F019C0CEF01AC0CFF01BC0D0F006ECA6
:1016700028F019C0D1F01AC0D2F01BC0D3F08DEC05
:101680002FF031D0FFFFDCC019F0DDC01AF0700E72
:101690001B6E7F0E1C6E8CEC2CF019501A10D8A407
:1016A00015D0F6C0C4F0F7C0C5F0770E0001C66FC4
:1016B0007F0E0001C76F06EC28F019C0C8F01AC0F1
:1016C000C9F01BC0CAF08DEC2FF00DD0FFFFF6C0A3
:1016D000C4F0F7C0C5F0690E0001C66F7F0E0001AF
:1016E000C76F8DEC2FF0FFFF9D881200FFFFFFFFFB
:1016F000000E456E000EBCEC2AF019C091F01AC025
:1017000092F0000E00016C6F800E00016D6F440EB0
:1017100000016E6F91C021F092C022F04BEC29F0D5
:1017200021C069F022C06AF023C06BF0B0EC3BF03E
:1017300069C078F06AC079F06BC07AF0000E0001E1
:101740007B6F160E00017C6F430E00017D6F53EC22
:101750003CF078C03CF079C03DF07AC03EF03CC02F
:1017600063F03DC064F03EC065F043C11CF044C16D
:101770001DF045C11EF05FEC29F01CC060F01DC0DB
:1017800061F01EC062F0D0EC19F060C078F061C06A
:1017900079F062C07AF037C17BF038C17CF039C192
:1017A0007DF053EC3CF078C03CF079C03DF07AC05D
:1017B0003EF03CC087F03DC088F03EC089F095EC1B
:1017C00032F087C03CF088C03DF089C03EF03CC09C
:1017D00028F03DC029F03EC02AF0B6EC2CF0000104
:1017E000906F0CD0FFFF4580459214D0FFFF4582DB
:1017F00002D0FFFF4592FFFF45900CD0FFFF000194
:101800009051000AD8B4F5D7010AD8B4EFD7030A2B
:10181000D8B4E8D7FFFF010EBCEC2AF019C091F054
:101820001AC092F0000E00016C6F800E00016D6F07
:10183000440E00016E6F91C021F092C022F04BEC7B
:1018400029F021C069F022C06AF023C06BF0B0EC2F
:101850003BF069C078F06AC079F06BC07AF0000E96
:1018600000017B6F160E00017C6F430E00017D6F3F
:1018700053EC3CF078C039F079C03AF07AC03BF0D4
:1018800039C063F03AC064F03BC065F040C11CF061
:1018900041C11DF042C11EF05FEC29F01CC060F098
:1018A0001DC061F01EC062F0D0EC19F060C078F08D
:1018B00061C079F062C07AF034C17BF035C17CF050
:1018C00036C17DF053EC3CF078C039F079C03AF085
:1018D0007AC03BF039C087F03AC088F03BC089F04D
:1018E000F3EC32F087C039F088C03AF089C03BF0A1
:1018F00039C028F03AC029F03BC02AF0B6EC2CF0F1
:101900000001906F0CD0FFFF4584459614D0FFFF77
:10191000458602D0FFFF4596FFFF45940CD0FFFFA0
:1019200000019051000AD8B4F5D7010AD8B4EFD716
:10193000030AD8B4E8D7FFFF020EBCEC2AF019C0A6
:1019400091F01AC092F0000E00016C6F800E000141
:101950006D6F440E00016E6F91C021F092C022F0B5
:101960004BEC29F021C069F022C06AF023C06BF073
:10197000B0EC3BF069C078F06AC079F06BC07AF0E7
:10198000000E00017B6F160E00017C6F430E0001FC
:101990007D6F53EC3CF078C036F079C037F07AC0F8
:1019A00038F036C063F037C064F038C065F03DC130
:1019B0001CF03EC11DF03FC11EF05FEC29F01CC0C1
:1019C00060F01DC061F01EC062F0D0EC19F060C084
:1019D00078F061C079F062C07AF031C17BF032C139
:1019E0007CF033C17DF053EC3CF078C036F079C028
:1019F00037F07AC038F036C087F037C088F038C08A
:101A000089F051EC33F087C036F088C037F089C0D8
:101A100038F036C028F037C029F038C02AF0B6ECCC
:101A20002CF00001906F0CD0FFFF4588459A14D030
:101A3000FFFF458A02D0FFFF459AFFFF45980CD073
:101A4000FFFF00019051000AD8B4F5D7010AD8B4BD
:101A5000EFD7030AD8B4E8D7FFFF030EBCEC2AF097
:101A600019C091F01AC092F0000E00016C6F800E48
:101A700000016D6F440E00016E6F91C021F092C0A5
:101A800022F04BEC29F021C069F022C06AF023C09B
:101A90006BF0B0EC3BF069C078F06AC079F06BC0D5
:101AA0007AF0000E00017B6F160E00017C6F430E72
:101AB00000017D6F53EC3CF078C033F079C034F016
:101AC0007AC035F033C063F034C064F035C065F0DF
:101AD0003AC11CF03BC11DF03CC11EF05FEC29F087
:101AE0001CC060F01DC061F01EC062F0D0EC19F0A7
:101AF00060C078F061C079F062C07AF02EC17BF0EE
:101B00002FC17CF030C17DF053EC3CF078C033F055
:101B100079C034F07AC035F033C087F034C088F033
:101B200035C089F0AFEC33F087C033F088C034F0B3
:101B300089C035F033C01FF034C020F035C021F02B
:101B400025C122F026C123F027C124F0F6EC31F0A4
:101B5000D8B006D033C025F134C026F135C027F106
:101B6000FFFF22C11FF023C120F024C121F033C0A8
:101B700022F034C023F035C024F0F6EC31F0D8B0B8
:101B800006D033C022F134C023F135C024F1FFFF69
:101B900045501200FFFFFFFF0001895100018A112B
:101BA000D8B40DD089C0D9FF8AC0DAFF87C0DEFF64
:101BB00088C0DDFF04D0FFFF0001874B882BFFFFAB
:101BC00087C0D9FF88C0DAFFDF5000018C6F0001A9
:101BD0008C51E2EC29F0D8B0EED7000E00018D6FE9
:101BE0002D0E00018C19D8A404D0010E00018D6FB8
:101BF00006D0FFFF2B0E00018C19D8A404D0FFFFE4
:101C00000001874B882BFFFF000E00018C6F000E38
:101C100000018F6F000E906F000E916F000E926F9B
:101C2000000E00018E6FFFFF00018DB90BD087C041
:101C3000D9FF88C0DAFF2E0EDE18D8A403D0000129
:101C40008D894CD0FFFF87C0D9FF88C0DAFFDF50F5
:101C5000EEEC28F0D8A047D000018D83080E0001DB
:101C60008C19D8B435D000018DA902D000018E079F
:101C7000FFFF00018C2B8FC019F090C01AF091C0AB
:101C80001BF092C01CF00A0E1D6E000E1E6E000EA0
:101C90001F6E000E206E68EC2DF019C08FF01AC078
:101CA00090F01BC091F01CC092F087C0D9FF88C093
:101CB000DAFFDF5000018B6FD00E00018B2700018F
:101CC0008B5100018F27000E90239123922306D081
:101CD000FFFF00018DB902D000018E2BFFFF000134
:101CE000874B882BA0D7FFFF000E00018C6F87C0A9
:101CF000D9FF88C0DAFF650EDE18D8B408D087C0D7
:101D0000D9FF88C0DAFF450EDE18D8A474D0FFFFD3
:101D10000001874B882B87C0D9FF88C0DAFF2D0EC2
:101D2000DE18D8A403D000018D8709D0FFFF87C03B
:101D3000D9FF88C0DAFF2B0EDE18D8A404D0FFFF2D
:101D40000001874B882BFFFF87C0D9FF88C0DAFFCF
:101D5000300EDE18D8B4F3D787C0D9FF88C0DAFFB9
:101D6000DF50EEEC28F0D8A040D087C0D9FF88C063
:101D7000DAFFDF50D00F00018C6F0001874B882BFA
:101D800087C0D9FF88C0DAFFDF50EEEC28F0D8A07A
:101D90002CD087C0D9FF88C0DAFFDF5000018B6FDD
:101DA00000018C510A0DF35000018B25D00F00016A
:101DB0008C6F0001874B882B87C0D9FF88C0DAFF62
:101DC000DF50EEEC28F0D8A010D087C0D9FF88C033
:101DD000DAFFDF5000018B6F00018C510A0DF350C8
:101DE00000018B25D00F00018C6FFFFF00018DA734
:101DF00002D000018C6DFFFF00018C5100018E2785
:101E00000001895100018A11D8B40BD000018DA3C3
:101E100008D089C0D9FF8AC0DAFF87C0DEFF88C03A
:101E2000DDFFFFFF8FC021F090C022F091C023F0B2
:101E300092C024F0CDEC2FF021C08FF022C090F0A2
:101E400023C091F000018F51000190110001911108
:101E5000D8A405D0000E0001876F000EC8D0FFFF88
:101E600000018EAF5AD000018E6D1BD0FFFF8FC0D6
:101E700069F090C06AF091C06BF0030E00016C6FC6
:101E8000150E00016D6F500E00016E6FB0EC3BF04F
:101E900069C08FF06AC090F06BC091F0F60E00013F
:101EA0008E27FFFF00018E51800A760FD8A01BD02D
:101EB000DDD7FFFF8FC069F090C06AF091C06BF072
:101EC000000E00016C6F200E00016D6F410E0001CD
:101ED0006E6FB0EC3BF069C08FF06AC090F06BC0E1
:101EE00091F000018E07FFFF00018E510001D8A480
:101EF000E0D78FC01FF090C020F091C021F0000EFD
:101F0000226E800E236E000E246EF6EC31F0D8B0F7
:101F100076D000018DB15DD065D0FFFF00018E51FC
:101F2000800A7F0FD8B01CD06AD0FFFF8FC078F036
:101F300090C079F091C07AF0030E00017B6F150E0E
:101F400000017C6F500E00017D6F53EC3CF078C0B7
:101F50008FF079C090F07AC091F0F60E00018E27D4
:101F6000FFFF0A0E00018E61E0D71AD0FFFF8FC07D
:101F700078F090C079F091C07AF0000E00017B6F8C
:101F8000200E00017C6F410E00017D6F53EC3CF090
:101F900078C08FF079C090F07AC091F000018E0780
:101FA000FFFF00018E510001D8A4E0D7FF0E1F6E85
:101FB0007F0E206E7F0E216E8FC022F090C023F026
:101FC00091C024F0F6EC31F0D8B019D000018DA109
:101FD00009D0FFFF000E0001876F800E0001886F9F
:101FE000800E09D0FFFF000E0001876F800EFFFFFB
:101FF0000001886F000EFFFF0001896F19D0FFFFFD
:1020000000018DA10ED08FC01CF090C01DF091C0BA
:102010001EF05FEC29F01CC08FF01DC090F01EC0B8
:1020200091F0FFFF8FC087F090C088F091C089F0D9
:10203000FFFF1200FFFFFFFF00018D6F00018DAF5A
:1020400010D100018D6D00018D51800A120FD8A0B2
:1020500097D0000E2A6E030E296E000E226E0A0E15
:10206000216E000E1C6E640E1B6E00018D51196EE8
:102070001A6A19BE1A060DEC30F019C01FF01AC00A
:1020800020F0AAEC31F0090E1F24276E000E20204C
:10209000286E74EC29F0720E2724F66E7D0E28202F
:1020A000F76E0900FFFFF5CF7BF00900FFFFF5CFCA
:1020B0007CF00A00FFFFF5CF7DF0000E226E640E6B
:1020C000216E00018D511F6E206A1FBE2006AAECF2
:1020D00031F0120E1F24276E000E2020286E000EF5
:1020E0002A6E030E296E74EC29F0720E2724F66E08
:1020F0007D0E2820F76E0900FFFFF5CF78F009006C
:10210000FFFFF5CF79F00A00FFFFF5CF7AF053EC2F
:102110003CF078C08AF079C08BF07AC08CF08AC02D
:1021200078F08BC079F08CC07AF0000E2A6E030E26
:10213000296E000E1C6E0A0E1B6E00018D51196E69
:102140001A6A19BE1A060DEC30F019C027F01AC031
:1021500028F074EC29F0720E2724F66E7D0E2820EC
:10216000F76E0900FFFFF5CF7BF00900FFFFF5CF09
:102170007CF00A00FFFFF5CF7DF053EC3CF06AD114
:10218000FFFF00018D51800A750FD8A055D0000EB9
:10219000226E0A0E216E00018D511F6E206A1FBE35
:1021A0002006AAEC31F0090E1F24276E000E202015
:1021B000286E000E2A6E030E296E74EC29F0720E42
:1021C0002724F66E7D0E2820F76E0900FFFFF5CF5D
:1021D00078F00900FFFFF5CF79F00A00FFFFF5CF97
:1021E0007AF0000E2A6E030E296E000E1C6E0A0E87
:1021F0001B6E00018D51196E1A6A19BE1A060DEC7C
:1022000030F019C027F01AC028F074EC29F0720ED3
:102210002724F66E7D0E2820F76E0900FFFFF5CF0C
:102220007BF00900FFFFF5CF7CF00A00FFFFF5CF40
:102230007DF053EC3CF00ED1FFFF00018D51030DFA
:10224000720EF324F66E7D0EF420F76E0900FFFF88
:10225000F5CF87F00900FFFFF5CF88F00A00FFFFF8
:1022600015D1FFFF00018D51800A120FD8A097D021
:10227000000E2A6E030E296E000E226E0A0E216ECB
:10228000000E1C6E640E1B6E00018D51196E1A6AD1
:1022900019BE1A060DEC30F019C01FF01AC020F05C
:1022A000AAEC31F0090E1F24276E000E2020286EA4
:1022B00074EC29F04B0E2724F66E7D0E2820F76E65
:1022C0000900FFFFF5CF7BF00900FFFFF5CF7CF0A1
:1022D0000A00FFFFF5CF7DF0000E226E640E216E26
:1022E00000018D511F6E206A1FBE2006AAEC31F03E
:1022F000120E1F24276E000E2020286E000E2A6E5C
:10230000030E296E74EC29F04B0E2724F66E7D0E19
:102310002820F76E0900FFFFF5CF78F00900FFFFD6
:10232000F5CF79F00A00FFFFF5CF7AF053EC3CF0DF
:1023300078C08AF079C08BF07AC08CF08AC078F0CF
:102340008BC079F08CC07AF0000E2A6E030E296ED5
:10235000000E1C6E0A0E1B6E00018D51196E1A6A5A
:1023600019BE1A060DEC30F019C027F01AC028F07B
:1023700074EC29F04B0E2724F66E7D0E2820F76EA4
:102380000900FFFFF5CF7BF00900FFFFF5CF7CF0E0
:102390000A00FFFFF5CF7DF053EC3CF05BD0FFFF70
:1023A00000018D51800A750FD8A05CD0000E226EFE
:1023B0000A0E216E00018D511F6E206A1FBE20067D
:1023C000AAEC31F0090E1F24276E000E2020286E83
:1023D000000E2A6E030E296E74EC29F04B0E272492
:1023E000F66E7D0E2820F76E0900FFFFF5CF78F01E
:1023F0000900FFFFF5CF79F00A00FFFFF5CF7AF073
:10240000000E2A6E030E296E000E1C6E0A0E1B6E45
:1024100000018D51196E1A6A19BE1A060DEC30F0C2
:1024200019C027F01AC028F074EC29F04B0E2724AD
:10243000F66E7D0E2820F76E0900FFFFF5CF7BF0CA
:102440000900FFFFF5CF7CF00A00FFFFF5CF7DF01C
:1024500053EC3CF0FFFF78C087F079C088F07AC079
:1024600089F017D0FFFF00018D51030D4B0EF324AF
:10247000F66E7D0EF420F76E0900FFFFF5CF87F0B2
:102480000900FFFFF5CF88F00A00FFFFFFFFF5CF3F
:1024900089F0FFFF1200FFFFFFFFA50E0101D56FBE
:1024A0007D0E0101D66F000E0101D06F9268936816
:1024B0009468000E1A6E400E196E7C0EFBEC2DF027
:1024C000000E0001F96F000E466E000E0001F86F5D
:1024D000000E446E000E0101DD6F000EDC6FFFFF89
:1024E0000101DDBF08D0100E0101DC5D270E0101E6
:1024F000DD59D8B005D0FFFF0101DC4BDD2BEFD754
:10250000FFFF7C0E0001C46F7E0E0001C56F14EC4E
:102510002CF0C00E196E080ECBEC28F0A40E0001B2
:10252000C46F7E0E0001C56F14EC2CF0D80E0001B4
:102530008C6F010E00018D6F98EC35F0DB0E000101
:10254000C46F7D0E0001C56F14EC2CF0F9EC29F07E
:10255000290E0001C46F7E0E0001C56F14EC2CF033
:10256000A40E0001C46F7E0E0001C56F14EC2CF0A8
:1025700097EC26F0950E0001C46F7E0E0001C56F2A
:1025800014EC2CF0000E0001ED6F000EEE6F000E4B
:10259000EF6F000EF06FEDC019F0EEC01AF0EFC053
:1025A0001BF0F0C01CF04FEC30F0000E1C6E000E63
:1025B0001D6E000E1E6E0FEC28F0000E1C6E480EF5
:1025C0001D6E430E1E6E18EC28F0D80E00018C6FA5
:1025D000010E00018D6F98EC35F0CD0E0001C46F37
:1025E0007F0E0001C56FD80E0001716F010E000152
:1025F000726F24EC29F071C0C6F072C0C7F014EC01
:102600002CF0FAEC1FF0D5C119F0D6C11AF0A6ECE7
:102610002BF019C0D3F11AC0D4F1D5C11BF0D6C12B
:102620001CF0D3C11DF091EC30F0000E0101DD6F04
:10263000000EDC6FFFFF0101DDBF08D0F40E0101C9
:10264000DC5D010E0101DD59D8B010D0FFFF190E7D
:102650000001EC6F5C0EFFFFE82EFDD7EC2FFBD7DF
:1026600000D000F00101DC4BDD2BE4D7FFFFFAECDA
:102670001FF0B30E0001FD6FB40EFC6F010E196E5A
:10268000FCC01AF0FDC01BF0950EB4EC29F0E5EC8F
:1026900039F01FC0D1F120C0D2F1D20E0101D11901
:1026A00005E1040E0101D219D8B48AD0000E196ECA
:1026B000800E1A6E3F0E1B6E00EC29F0000E196E94
:1026C000000E1A6E000E1B6E01EC27F0000E196E44
:1026D000000E1A6E000E1B6EF8EC26F0000E196E3E
:1026E000000E1A6E3F0E1B6E0AEC27F0000E196EDC
:1026F000EC0E1A6E420E1B6E13EC27F0000E196ED4
:10270000A00E1A6E400E1B6EEFEC26F0000E196E36
:10271000800E1A6E3E0E1B6EE6EC26F0000E196E51
:10272000020E1A6E430E1B6E64EC27F0000E196E3B
:10273000D20E1A6E420E1B6E6DEC27F0000E196E53
:10274000000E1A6E000E1B6E25EC27F0000E196E9F
:10275000000E1A6E000E1B6E37EC27F0000E196E7D
:10276000000E1A6E000E1B6E49EC27F0000E196E5B
:10277000800E1A6E3F0E1B6E1CEC27F0000E196EB9
:10278000800E1A6E3F0E1B6E2EEC27F0000E196E97
:10279000800E1A6E3F0E1B6E40EC27F0000E196E75
:1027A000000E1A6E000E1B6E5BEC27F0000E196E09
:1027B000800E1A6E3F0E1B6E52EC27F07DEC3AF045
:1027C000FFFFF28CF28EFFFF9DBA23D00001F905C6
:1027D000D8A417D0030E0001F96F000E466EFFFF5C
:1027E0009DB8FDD7950E0001E66F010E0001E76F61
:1027F000520E0001E86F010E0001E96FBDEC3DF0E3
:1028000006D0FFFF030E0001F96F000E466EFFFFBA
:102810009D8AFFFF0001FA05D8A4D5D7000E00015C
:10282000FA6FD80E00018C6F010E00018D6F98ECCD
:1028300035F077EC0BF00101D76F0101D7513CEC7B
:102840002BF00101D75180EC2AF00101D7519EEC09
:102850002AF012EC29F00001FB6F0001FBB105D05A
:102860002FEC35F00001F08F05D0FFFF4FEC28F082
:102870000001F09FFFFF0001FBA314D0C2EC26F083
:1028800019C01CF01AC01DF01BC01EF018EC28F077
:10289000C2EC26F019C01CF01AC01DF01BC01EF0BF
:1028A0000FEC28F0FFFF43EC1CF00001F0AD02D06C
:1028B000010E02D0FFFF000EFFFFFF0A0001EC6FC8
:1028C0000001EC3BEC47EC470001F0510001EC1932
:1028D000BF0BEC190001F06FEDC019F0EEC01AF05B
:1028E000EFC01BF0F0C01CF04FEC30F06CD7FFFFD6
:1028F000DCC019F0DDC01AF0F50E1B6E7F0E1C6EE9
:102900008CEC2CF019501A10D8A417D0DEC093F01C
:10291000DFC094F089EC29F093C0E0F094C0E1F0BE
:1029200095C0E2F0E0C019F0E1C01AF0E2C01BF07F
:1029300000EC29F07DEC3AF06AD1FFFFDCC019F021
:10294000DDC01AF0F20E1B6E7F0E1C6E8CEC2CF0AC
:1029500019501A10D8A417D0DEC093F0DFC094F03D
:1029600089EC29F093C0E0F094C0E1F095C0E2F06A
:10297000E0C019F0E1C01AF0E2C01BF001EC27F052
:102980007DEC3AF044D1FFFFDCC019F0DDC01AF055
:10299000EF0E1B6E7F0E1C6E8CEC2CF019501A1073
:1029A000D8A417D0DEC093F0DFC094F089EC29F0F2
:1029B00093C0E0F094C0E1F095C0E2F0E0C019F0FF
:1029C000E1C01AF0E2C01BF0F8EC26F07DEC3AF022
:1029D0001ED1FFFFDCC019F0DDC01AF00C0E1B6E1B
:1029E0007F0E1C6E8CEC2CF019501A10D8A417D046
:1029F000DEC093F0DFC094F089EC29F093C0E0F0E2
:102A000094C0E1F095C0E2F0E0C019F0E1C01AF026
:102A1000E2C01BF00AEC27F07DEC3AF0F8D0FFFFA3
:102A2000DCC019F0DDC01AF0480E1B6E7F0E1C6E64
:102A30008CEC2CF019501A10D8A417D0DEC093F0EB
:102A4000DFC094F089EC29F093C0E0F094C0E1F08D
:102A500095C0E2F0E0C019F0E1C01AF0E2C01BF04E
:102A600013EC27F07DEC3AF0D2D0FFFFDCC019F078
:102A7000DDC01AF0360E1B6E7F0E1C6E8CEC2CF037
:102A800019501A10D8A417D0DEC093F0DFC094F00C
:102A900089EC29F093C0E0F094C0E1F095C0E2F039
:102AA000E0C019F0E1C01AF0E2C01BF0EFEC26F034
:102AB0007DEC3AF0ACD0FFFFDCC019F0DDC01AF0BD
:102AC000E90E1B6E7F0E1C6E8CEC2CF019501A1048
:102AD000D8A417D0DEC093F0DFC094F089EC29F0C1
:102AE00093C0E0F094C0E1F095C0E2F0E0C019F0CE
:102AF000E1C01AF0E2C01BF0E6EC26F07DEC3AF003
:102B000086D0FFFFDCC019F0DDC01AF0E50E1B6EA9
:102B10007F0E1C6E8CEC2CF019501A10D8A417D014
:102B2000DEC093F0DFC094F089EC29F093C0E0F0B0
:102B300094C0E1F095C0E2F0E0C019F0E1C01AF0F5
:102B4000E2C01BF064EC27F07DEC3AF060D0FFFFB0
:102B5000DCC019F0DDC01AF0D90E1B6E7F0E1C6EA2
:102B60008CEC2CF019501A10D8A417D0DEC093F0BA
:102B7000DFC094F089EC29F093C0E0F094C0E1F05C
:102B800095C0E2F0E0C019F0E1C01AF0E2C01BF01D
:102B90006DEC27F07DEC3AF03AD0FFFFDCC019F085
:102BA000DDC01AF0130E1B6E7F0E1C6E8CEC2CF029
:102BB00019501A10D8A407D0DEC06BF0DFC06CF03B
:102BC0005BEC37F024D0FFFFDCC019F0DDC01AF059
:102BD000A50E1B6E7F0E1C6E8CEC2CF019501A107B
:102BE000D8A407D0DEC06BF0DFC06CF001EC3DF084
:102BF0000ED0FFFFF6C0C4F0F7C0C5F0FB0E000119
:102C0000C66F7E0E0001C76F8DEC2FF09D88FFFF11
:102C10001200FFFFFFFF000120EE0AF07E51D926CF
:102C20007F51DA22010EDBBE18D0010EDB5004E129
:102C3000460EDE5CD8A011D0000120EE0AF07E51D5
:102C4000D9267F51DA22010EDBBE0ED0010EDB50F9
:102C500004E18B0EDE5CD8A007D0FFFF000188697D
:102C600089698A698B690FD1FFFF000120EE0AF0A4
:102C70007E51D9267F51DA22DECF82F0DDCF83F07C
:102C80006C0E0001822500016E6F070E000183218A
:102C900000016F6F000120EE08F07E51D9267F51B0
:102CA000DA22DECF84F0DDCF85F0010E000184252D
:102CB0000001706F000E000185210001716F00019D
:102CC00020EE06F07E51D9267F51DA22DECF72F057
:102CD000DDCF73F0E6EC36F06EC088F06FC089F09F
:102CE00070C08AF071C08BF0070E00016F6FB20EDA
:102CF0006E6F000E0001716F010E706F000E00010B
:102D0000736F010E726FE6EC36F000016E51000138
:102D1000885F00016F510001895B00017051000163
:102D20008A5B0001715100018B5B000120EE04F011
:102D30007E51D9267F51DA22DECF82F0DDCF83F0BB
:102D400082C084F083C085F0000E000185BFFF0EB5
:102D5000866F876F88C019F089C01AF08AC01BF08F
:102D60008BC01CF0180E1D6E000E1E6E000E1F6E26
:102D7000000E206E68EC2DF0000184511924000132
:102D8000886F000185511A200001896F000186516A
:102D90001B2000018A6F000187511C2000018B6FEE
:102DA000000120EE02F07E51D9267F51DA22DECFDB
:102DB00082F0DDCF83F082C084F083C085F0000E06
:102DC000000185BFFF0E866F876F88C019F089C02C
:102DD0001AF08AC01BF08BC01CF03C0E1D6E000E5A
:102DE0001E6E000E1F6E000E206E68EC2DF00001AE
:102DF000845119240001886F000185511A200001B7
:102E0000896F000186511B2000018A6F00018751E4
:102E10001C2000018B6F7EC0D9FF7FC0DAFFDECFA0
:102E200082F0DDCF83F082C084F083C085F0000E95
:102E3000000185BFFF0E866F876F88C019F089C0BB
:102E40001AF08AC01BF08BC01CF03C0E1D6E000EE9
:102E50001E6E000E1F6E000E206E68EC2DF000013D
:102E6000845119240001886F000185511A20000146
:102E7000896F000186511B2000018A6F0001875174
:102E80001C2000018B6FFFFF88C07EF089C07FF09F
:102E90008AC080F08BC081F01200FFFFFFFFDCC012
:102EA00019F0DDC01AF0BE0E1B6E7F0E1C6E8CEC8E
:102EB0002CF019501A10D8A417D0DEC093F0DFC040
:102EC00094F089EC29F093C0E0F094C0E1F095C053
:102ED000E2F0E0C019F0E1C01AF0E2C01BF025EC0E
:102EE00027F07DEC3AF018D1FFFFDCC019F0DDC00F
:102EF0001AF0C30E1B6E7F0E1C6E8CEC2CF019505A
:102F00001A10D8A417D0DEC093F0DFC094F089EC7B
:102F100029F093C0E0F094C0E1F095C0E2F0E0C089
:102F200019F0E1C01AF0E2C01BF037EC27F07DEC9D
:102F30003AF0F2D0FFFFDCC019F0DDC01AF0C80E85
:102F40001B6E7F0E1C6E8CEC2CF019501A10D8A43E
:102F500017D0DEC093F0DFC094F089EC29F093C065
:102F6000E0F094C0E1F095C0E2F0E0C019F0E1C0FB
:102F70001AF0E2C01BF049EC27F07DEC3AF0CCD01F
:102F8000FFFFDCC019F0DDC01AF0AF0E1B6E7F0E24
:102F90001C6E8CEC2CF019501A10D8A417D0DEC07F
:102FA00093F0DFC094F089EC29F093C0E0F094C076
:102FB000E1F095C0E2F0E0C019F0E1C01AF0E2C023
:102FC0001BF01CEC27F07DEC3AF0A6D0FFFFDCC034
:102FD00019F0DDC01AF0B40E1B6E7F0E1C6E8CEC67
:102FE0002CF019501A10D8A417D0DEC093F0DFC00F
:102FF00094F089EC29F093C0E0F094C0E1F095C022
:10300000E2F0E0C019F0E1C01AF0E2C01BF02EECD3
:1030100027F07DEC3AF080D0FFFFDCC019F0DDC076
:103020001AF0B90E1B6E7F0E1C6E8CEC2CF0195032
:103030001A10D8A417D0DEC093F0DFC094F089EC4A
:1030400029F093C0E0F094C0E1F095C0E2F0E0C058
:1030500019F0E1C01AF0E2C01BF040EC27F07DEC63
:103060003AF05AD0FFFFDCC019F0DDC01AF0890E2B
:103070001B6E7F0E1C6E8CEC2CF019501A10D8A40D
:1030800017D0DEC093F0DFC094F089EC29F093C034
:10309000E0F094C0E1F095C0E2F0E0C019F0E1C0CA
:1030A0001AF0E2C01BF052EC27F07DEC3AF034D07D
:1030B000FFFFDCC019F0DDC01AF0950E1B6E7F0E0D
:1030C0001C6E8CEC2CF019501A10D8A417D0DEC04E
:1030D00093F0DFC094F089EC29F093C0E0F094C045
:1030E000E1F095C0E2F0E0C019F0E1C01AF0E2C0F2
:1030F0001BF05BEC27F07DEC3AF00ED0FFFFF6C042
:10310000C4F0F7C0C5F0FB0E0001C66F7E0E0001D3
:10311000C76F8DEC2FF09D88FFFF1200FFFFFFFFB0
:103120000001906F6D0E00019065A5D0000E2A6E13
:10313000030E296E000E226E0A0E216E000E1C6E0A
:10314000640E1B6E90C019F01A6A0DEC30F019C0B5
:103150001FF01AC020F0AAEC31F0090E1F24276ED0
:10316000000E2020286E74EC29F0720E2724F66ED3
:103170007D0E2820F76E0900FFFFF5CF7BF00900D8
:10318000FFFFF5CF7CF00A00FFFFF5CF7DF0000ECA
:10319000226E640E216E90C01FF0206AAAEC31F0FE
:1031A000120E1F24276E000E2020286E000E2A6E9D
:1031B000030E296E74EC29F0720E2724F66E7D0E34
:1031C0002820F76E0900FFFFF5CF78F00900FFFF18
:1031D000F5CF79F00A00FFFFF5CF7AF053EC3CF021
:1031E00078C08DF079C08EF07AC08FF0000E2A6E14
:1031F000030E296E000E1C6E0A0E1B6E90C019F095
:103200001A6A0DEC30F019C027F01AC028F074ECDF
:1032100029F0720E2724F66E7D0E2820F76E090025
:10322000FFFFF5CF7BF00900FFFFF5CF7CF00A0030
:10323000FFFFF5CF7DF08DC078F08EC079F08FC0A4
:103240007AF053EC3CF078C08AF079C08BF07AC009
:103250008CF08AC078F08BC079F08CC07AF0000EC8
:1032600000017B6F000E00017C6F3F0E00017D6F3F
:1032700053EC3CF08CD0FFFF0A0E0001906566D045
:10328000000E2A6E030E296E000E1C6E0A0E1B6EB7
:1032900090C019F01A6A0DEC30F019C027F01AC06E
:1032A00028F074EC29F0720E2724F66E7D0E28208B
:1032B000F76E0900FFFFF5CF7BF00900FFFFF5CFA8
:1032C0007CF00A00FFFFF5CF7DF0000E226E0A0EA3
:1032D000216E90C01FF0206AAAEC31F0090E1F2465
:1032E000276E000E2020286E000E2A6E030E296E17
:1032F00074EC29F0720E2724F66E7D0E2820F76EEE
:103300000900FFFFF5CF78F00900FFFFF5CF79F056
:103310000A00FFFFF5CF7AF053EC3CF078C08DF057
:1033200079C08EF07AC08FF08DC078F08EC079F0C1
:103330008FC07AF0000E00017B6F000E00017C6FE1
:103340003F0E00017D6F53EC3CF021D0FFFF0001E8
:103350009051030D720EF324F66E7D0EF420F76E7D
:103360000900FFFFF5CF78F00900FFFFF5CF79F0F6
:103370000A00FFFFF5CF7AF0000E00017B6F000E10
:1033800000017C6F3F0E00017D6F53EC3CF0FFFFAE
:1033900078C087F079C088F07AC089F01200FFFF0A
:1033A000FFFF62C02DF02E6A2F6A000161352D36B5
:1033B00001E32E802D500001686F65C02DF02E6A4C
:1033C0002F6A000164352D3601E32E802D50000157
:1033D000676F000168510001D8B40FD00001675138
:1033E0000001685DD8B011D00001685100080001EB
:1033F00067252D6E180E2D6408D0FFFF63C060F0A6
:1034000064C061F065C062F004D1FFFF0001675144
:103410000001D8B40FD0000168510001675DD8B039
:1034200011D0000167510008000168252D6E180EAB
:103430002D6408D0FFFF60C060F061C061F062C021
:1034400062F0E7D0FFFF060E0001666F000162AF79
:1034500002D00001668FFFFF000165AF02D00001BE
:10346000668DFFFF0001618FFF0E00016017FF0EE8
:1034700000016117000E000162170001648FFF0E4A
:1034800000016317FF0E00016417000E00016517AD
:10349000000167510001685DD8B027D0FFFF00012F
:1034A000D8906337643765370001670700016851BA
:1034B00000016719D8B411D00001660766C02DF06D
:1034C000070E2D16D8B409D0E9D7FFFF0001D89018
:1034D0006233613360330001682BFFFF00016751E5
:1034E00000016819D8B42ED0F0D7FFFF0001685151
:1034F0000001675DD8B026D0FFFF0001D89060378B
:1035000061376237000168070001685100016719DF
:10351000D8B411D00001660766C02DF0070E2D1635
:10352000D8B409D0E9D7FFFF0001D89065336433E0
:1035300063330001672BFFFF000167510001681929
:10354000D8A4F1D7FFFF000166AF12D0FF0E000133
:10355000601BFF0E0001611BFF0E0001621B010ECC
:1035600000016027000E00016123000E00016223AC
:10357000FFFF000166AD12D0FF0E0001631BFF0EBE
:103580000001641BFF0E0001651B010E0001632793
:10359000000E00016423000E00016523FFFF000EF2
:1035A0000001666F00016051000163270001615155
:1035B000000164230001625100016523000165AF31
:1035C00015D0FF0E0001631BFF0E0001641BFF0EF0
:1035D0000001651B010E00016327000E000164233A
:1035E000000E00016523010E0001666FFFFF63C03E
:1035F00019F064C01AF065C01BF068C01CF066C00A
:103600001DF0CDEC34F019C060F01AC061F01BC0A1
:1036100062F0FFFF1200FFFFFFFF000120EE0CF041
:103620006A51D9266B51DA22DECF27F0DDCF28F0A0
:10363000000E2A6E030E296E74EC29F0AC0E2724BE
:1036400000016D6F7E0E282000016E6F7A0E000162
:103650006F6F010E0001706F6DC0F6FF6EC0F7FF57
:103660006FC0D9FF70C0DAFF0800FFFFF5CFDFFFA2
:1036700000016D4B6E2B00016F4B702B6DC0F6FF80
:103680006EC0F7FF6FC0D9FF70C0DAFF0800FFFF00
:10369000F5CFDFFF00016D4B6E2B00016F4B702BE0
:1036A0006DC0F6FF6EC0F7FF6FC0D9FF70C0DAFFC4
:1036B0000800FFFFF5CFDFFF00016F4B702B6FC0DD
:1036C000D9FF70C0DAFF200EDF6E00016F4B702B48
:1036D000000120EE08F06A51D9266B51DA22DECFC4
:1036E00027F0DDCF28F0000E2A6E030E296E74EC51
:1036F00029F0040E272400016D6F7E0E28200001A2
:103700006E6F6DC0F6FF6EC0F7FF6FC0D9FF70C05F
:10371000DAFF0800FFFFF5CFDFFF00016D4B6E2BD6
:1037200000016F4B702B6DC0F6FF6EC0F7FF6FC0CE
:10373000D9FF70C0DAFF0800FFFFF5CFDFFF0001FF
:103740006D4B6E2B00016F4B702B6DC0F6FF6EC082
:10375000F7FF6FC0D9FF70C0DAFF0800FFFFF5CF99
:10376000DFFF200E0101816F840E276E010E286E8F
:10377000000120EE06F06A51D9266B51DA22DF50A3
:10378000296E200E2A6E200E2B6ED7EC2EF0870E9F
:10379000276E010E286E000120EE04F06A51D92632
:1037A0006B51DA22DF50296E300E2A6E3A0E2B6EE4
:1037B000D7EC2EF08A0E276E010E286E000120EE47
:1037C00002F06A51D9266B51DA22DF50296E300E91
:1037D0002A6E3A0E2B6ED7EC2EF08D0E276E010E50
:1037E000286E6AC0D9FF6BC0DAFFDF50296E300E39
:1037F0002A6E200E2B6ED7EC2EF0900E276E010E47
:10380000286E000120EE0AF06A51D9266B51DA22A7
:10381000DECF1FF0DDCF20F0000E226E640E216E91
:10382000AAEC31F01F50130F296E200E2A6E000EE5
:103830002B6ED7EC2EF0000120EE0AF06A51D9264B
:103840006B51DA22DECF19F0DDCF1AF0000E1C6EBC
:10385000640E1B6E0DEC30F0195000016C6F920E6F
:10386000276E010E286E6CC029F0300E2A6E0A0EEB
:103870002B6ED7EC2EF07A0E00016A6F010E00015C
:103880006B6F1200FFFFFFFF010E1B6E010ECAECF3
:103890002BF0BB0E0001C46F010E0001C56FC20EFC
:1038A0000001C66F7E0E0001C76F8DEC2FF0000186
:1038B000C4510101CF6FBB0E1B6E010E1C6ECFC138
:1038C0001DF091EC30F0010E1B6E020ECAEC2BF0D5
:1038D000BB0E0001C46F010E0001C56F9B0E0001FD
:1038E000C66F7F0E0001C76F9EEC26F019C0C8F0AE
:1038F0001AC0C9F01BC0CAF08DEC2FF00001C451F2
:103900000101CF6FBB0E1B6E010E1C6ECFC11DF0EF
:1039100091EC30F0080E1B6E020ECAEC2BF0BB0EC1
:103920000001C46F010E0001C56F9B0E0001C66F40
:103930007F0E0001C76FA7EC26F019C0C8F01AC0AF
:10394000C9F01BC0CAF08DEC2FF00001C451010179
:10395000CF6FBB0E1B6E010E1C6ECFC11DF091EC24
:1039600030F00F0E1B6E020ECAEC2BF0BB0E0001E6
:10397000C46F010E0001C56F9B0E0001C66F7F0E64
:103980000001C76FB0EC26F019C0C8F01AC0C9F02A
:103990001BC0CAF08DEC2FF00001C4510101CF6FA4
:1039A000BB0E1B6E010E1C6ECFC11DF091EC30F0F2
:1039B000010E1B6E030ECAEC2BF0BB0E0001C46F90
:1039C000010E0001C56FD60E0001C66F7E0E00010C
:1039D000C76F8DEC2FF00001C4510101CF6FBB0EFA
:1039E0001B6E010E1C6ECFC11DF091EC30F0010E6C
:1039F0001B6E040ECAEC2BF0BB0E0001C46F010E4F
:103A00000001C56F9B0E0001C66F7F0E0001C76FDE
:103A1000D4EC26F019C0C8F01AC0C9F01BC0CAF017
:103A20008DEC2FF00001C4510101CF6FBB0E1B6E56
:103A3000010E1C6ECFC11DF091EC30F0080E1B6E14
:103A4000040ECAEC2BF0BB0E0001C46F010E000186
:103A5000C56F9B0E0001C66F7F0E0001C76FC2ECE1
:103A600026F019C0C8F01AC0C9F01BC0CAF08DEC0E
:103A70002FF00001C4510101CF6FBB0E1B6E010E70
:103A80001C6ECFC11DF091EC30F00F0E1B6E040EBA
:103A9000CAEC2BF0BB0E0001C46F010E0001C56F14
:103AA0009B0E0001C66F7F0E0001C76FCBEC26F0A6
:103AB00019C0C8F01AC0C9F01BC0CAF08DEC2FF0B5
:103AC0000001C4510101CF6FBB0E1B6E010E1C6EB5
:103AD000CFC11DF091EC30F01200FFFFFFFF27C0B7
:103AE000D9FF28C0DAFFDECF2CF0DECF2DF0DECFFD
:103AF0002EF0DECF2FF02CC019F02DC01AF02EC002
:103B00001BF02FC01CF03C0E1D6E000E1E6E000E32
:103B10001F6E000E206E0DEC34F019C0A9F11AC012
:103B2000AAF12CC019F02DC01AF02EC01BF02FC026
:103B30001CF03C0E1D6E000E1E6E000E1F6E000E61
:103B4000206E06EC36F019C02CF01AC02DF01BC008
:103B50002EF01CC02FF02CC019F02DC01AF02EC072
:103B60001BF02FC01CF03C0E1D6E000E1E6E000ED2
:103B70001F6E000E206E0DEC34F019C0ABF11AC0B0
:103B8000ACF12CC019F02DC01AF02EC01BF02FC0C4
:103B90001CF03C0E1D6E000E1E6E000E1F6E000E01
:103BA000206E06EC36F019C02CF01AC02DF01BC0A8
:103BB0002EF01CC02FF02CC019F02DC01AF02EC012
:103BC0001BF02FC01CF0180E1D6E000E1E6E000E96
:103BD0001F6E000E206E0DEC34F019C0ADF11AC04E
:103BE000AEF12CC019F02DC01AF02EC01BF02FC062
:103BF0001CF0180E1D6E000E1E6E000E1F6E000EC5
:103C0000206E06EC36F019C0AFF11AC0B0F1040E08
:103C10000101AF25196E000E0101B0211A6E000ED0
:103C20001C6E070E1B6E0DEC30F019C0B5F11AC0FA
:103C3000B6F1000E0101B46F460EB36F10D0FFFF56
:103C4000B3C11EF0B4C11FF02FEC2EF01E500101C5
:103C5000AF5F1F500101B05B0101B34BB42BFFFFFD
:103C6000B3C11EF0B4C11FF02FEC2EF01E500101A5
:103C7000AF5D0101B051800A296E1F50800A29589A
:103C8000D8B0DDD7B3C11EF0B4C11FF02FEC2EF0B9
:103C90001E50020B2C6EAFC1B7F1B0C1B8F1000ECF
:103CA0000101B26F000EB16F0BD0FFFF2D5001016B
:103CB000AF5F000EB05B0101B14BB22BD8902C323C
:103CC000FFFF990E0101B125F66E7D0EB221F76E50
:103CD0000800FFFFF5502C102D6E2D50296E2A6A1A
:103CE00029500101AF5D0101B051800A2B6E2A50AD
:103CF000800A2B58D8B0D9D70101AF4BB02BA90EF1
:103D0000276E010E286E1200FFFFFFFF87C01CF018
:103D100088C01DF089C01EF05FEC29F01CC060F067
:103D20001DC061F01EC062F007C163F008C164F0FD
:103D300009C165F0D0EC19F060C0F1F061C0F2F09B
:103D400062C0F3F0305031103210D8B437D019C1FE
:103D50007BF01AC17CF01BC17DF0F1C078F0F2C09D
:103D600079F0F3C07AF053EC3CF078C08AF079C077
:103D70008BF07AC08CF030C07BF031C07CF032C068
:103D80007DF08AC078F08BC079F08CC07AF053EC6B
:103D90003CF078C060F079C061F07AC062F00AC18E
:103DA00063F00BC164F00CC165F0D0EC19F060C099
:103DB00013F161C014F162C015F10AD0FFFF000ECB
:103DC0000101136F000E0101146F000E0101156F48
:103DD000FFFF19C16CF01AC16DF01BC16EF01CC160
:103DE0007BF01DC17CF01EC17DF0F1C063F0F2C01C
:103DF00064F0F3C065F00DC11CF00EC11DF00FC1E1
:103E00001EF05FEC29F01CC060F01DC061F01EC008
:103E100062F0D0EC19F060C078F061C079F062C057
:103E20007AF053EC3CF078C069F079C06AF07AC05F
:103E30006BF0B0EC3BF069C08DF06AC08EF06BC0E7
:103E40008FF0F1C063F0F2C064F0F3C065F08DC094
:103E500060F08EC061F08FC062F0D0EC19F060C0ED
:103E600090F061C091F062C092F013C163F014C190
:103E700064F015C165F090C060F091C061F092C02F
:103E800062F0D0EC19F060C078F061C079F062C0E7
:103E90007AF01FC17BF020C17CF021C17DF053EC92
:103EA0003CF078C016F179C017F17AC018F116C14C
:103EB00010F117C111F118C112F1F1C00DF1F2C0EA
:103EC0000EF1F3C00FF113C10AF114C10BF115C1CA
:103ED0000CF116C187F017C188F018C189F01200E3
:103EE000FFFFFFFF1BC01FF0206A216A1A341F3634
:103EF00001E320801F50276E2750D8B45AD01EC02F
:103F00001FF0206A216A1D341F3601E320801F50F4
:103F1000266E2650D8B44DD01A8EFF0E1916FF0EFD
:103F20001A16000E1B161D8EFF0E1C16FF0E1D16F8
:103F3000000E1E16000E226E000E236E000E246E62
:103F4000000E256E7F0E275E2650980F275E180EF6
:103F5000266EFFFFD89022362336243625361C5095
:103F6000195C1D501A581E501B58D8A007D01C5061
:103F7000195E1D501A5A1E501B5A2280FFFFD890FE
:103F800019361A361B36262EE4D727AE0ED0275008
:103F9000800A970FD8A00DD0FFFFD8902532243289
:103FA00023322232273EF8D719D0FFFF170E27649D
:103FB00011D0FFFF000E196E000E1A6E000E1B6E60
:103FC000000E1C6E14D0FFFFD89022362336243604
:103FD00025362706FFFF2750D8A4F5D7FFFF22C0BC
:103FE00019F023C01AF024C01BF025C01CF0FFFFFD
:103FF0001200FFFFFFFF8C0E2CEC2AF01200FFFFD7
:104D2400FFFFFFFFC69A1200FFFFFFFF810EC26E56
:104D3400C20EC16E1200FFFFFFFF3CC019F03DC060
:104D44001AF03EC01BF01200FFFFFFFF39C019F03C
:104D54003AC01AF03BC01BF01200FFFFFFFF36C041
:104D640019F037C01AF038C01BF01200FFFFFFFF24
:104D740004C119F005C11AF006C11BF01200FFFFAF
:104D8400FFFF33C019F034C01AF035C01BF0120015
:104D9400FFFFFFFF22C119F023C11AF024C11BF049
:104DA4001200FFFFFFFF25C119F026C11AF027C129
:104DB4001BF01200FFFFFFFF196EFFFF9EA8FDD737
:104DC40019C0ADFF1200FFFFFFFF19C03FF01AC06A
:104DD40040F01BC041F01200FFFFFFFF19C004F1B7
:104DE4001AC005F11BC006F11200FFFFFFFF19C036
:104DF4001CF11AC01DF11BC01EF11200FFFFFFFFC2
:104E040019C030F01AC031F01BC032F01200FFFF9D
:104E1400FFFF19C019F11AC01AF11BC01BF11200CF
:104E2400FFFFFFFF19C007F11AC008F11BC009F109
:104E34001200FFFFFFFF19C037F11AC038F11BC081
:104E440039F11200FFFFFFFF19C043F11AC044F10A
:104E54001BC045F11200FFFFFFFF19C034F11AC057
:104E640035F11BC036F11200FFFFFFFF19C040F1FE
:104E74001AC041F11BC042F11200FFFFFFFF19C02D
:104E840031F11AC032F11BC033F11200FFFFFFFFF2
:104E940019C03DF11AC03EF11BC03FF11200FFFFE3
:104EA400FFFF19C02EF11AC02FF11BC030F1120000
:104EB400FFFFFFFF19C03AF11AC03BF11BC03CF1E0
:104EC4001200FFFFFFFF19C02BF11AC02CF11BC009
:104ED4002DF11200FFFFFFFF19C028F11AC029F1BC
:104EE4001BC02AF11200FFFFFFFF3FC019F040C0B2
:104EF4001AF041C01BF01200FFFFFFFF1FC119F0A1
:104F040020C11AF021C11BF01200FFFFFFFF19C1DD
:104F140019F01AC11AF01BC11BF01200FFFFFFFFAA
:104F24001CC119F01DC11AF01EC11BF01200FFFFB5
:104F3400FFFF30C019F031C01AF032C01BF012006C
:104F4400FFFFFFFF07C119F008C11AF009C11BF0E8
:104F54001200FFFFFFFF37C119F038C11AF039C141
:104F64001BF01200FFFFFFFF43C119F044C11AF008
:104F740045C11BF01200FFFFFFFF34C119F035C11A
:104F84001AF036C11BF01200FFFFFFFF40C119F0F9
:104F940041C11AF042C11BF01200FFFFFFFF31C1F3
:104FA40019F032C11AF033C11BF01200FFFFFFFFEA
:104FB4003DC119F03EC11AF03FC11BF01200FFFFC2
:104FC400FFFF2EC119F02FC11AF030C11BF01200DF
:104FD400FFFFFFFF3AC119F03BC11AF03CC11BF0BF
:104FE4001200FFFFFFFF2BC119F02CC11AF02DC1D5
:104FF4001BF01200FFFFFFFF28C119F029C11AF0AE
:105004002AC11BF01200FFFFFFFF10C119F011C1EC
:105014001AF012C11BF01200FFFFFFFF1CC022F1A7
:105024001DC023F11EC024F11200FFFFFFFF1CC0AE
:1050340025F11DC026F11EC027F11200FFFFFFFF5E
:10504400C5AC02D0FF0E02D0FFFF000EFFFF12001E
:10505400FFFFFFFF196E19C0A9FFA69EA69CA6809C
:10506400A8501200FFFFFFFFF2CF19F0F29EC58097
:105074009E96FFFF9EA6FDD719C0F2FF1200FFFF08
:10508400FFFFF2CF19F0F29EC5849E96FFFF9EA605
:10509400FDD719C0F2FF1200FFFFFFFF0001EF9BD5
:1050A4000001EF990001EE910001EE9362EC2AF009
:1050B4001200FFFFFFFFF2CF19F0F29EC5829E9609
:1050C400FFFF9EA6FDD719C0F2FF1200FFFFFFFFEE
:1050D400F2CF19F0F29EC59AC5889E96FFFF9EA650
:1050E400FDD719C0F2FF1200FFFFFFFFF2CF19F046
:1050F400F29EC58AC5889E96FFFF9EA6FDD719C05D
:10510400F2FF1200FFFFFFFFF2CF19F0F29EC586F7
:105114009E96FFFF9EA6FDD719C0F2FFC95012004C
:10512400FFFFFFFF030E1B6E21C01CF022C01DF009
:10513400040E1E6ED00ED5EC37F01200FFFFFFFFF9
:10514400000E1B6E21C01CF022C01DF0030E1E6E4B
:10515400D00ED5EC37F01200FFFFFFFF030E1B6EDD
:1051640022C01CF023C01DF0040E1E6ED00E65EC90
:105174002EF01200FFFFFFFF000E1B6E22C01CF07A
:1051840023C01DF0030E1E6ED00E65EC2EF012002F
:10519400FFFFFFFF1A6E3F0EC716000EC66E000E0D
:1051A400C56E1A50C6121950C71294869488C68ABE
:1051B4001200FFFFFFFFC7A403D0196A192A02D007
:1051C400FFFF196AFFFFC5501F0B19100009D8B45F
:1051D4001200FFFFEFD7FFFFFFFF1B6E000E1A6EDA
:1051E4003A0E1B6005D02F0E1B6402D0010E1A6EFE
:1051F400FFFF1AC019F019301200FFFFFFFF19C09A
:105204001FF11AC020F11BC021F1000E01010A6F29
:10521400000E01010B6F000E01010C6F1200FFFF65
:10522400FFFF81CF1AF019801AB0199019821AB2AF
:10523400199219841AB8199419861ABA1996195018
:105244001200FFFFFFFF71C060F072C061F061ECFB
:1052540031F060C06AF061C06BF00CEC1BF06AC006
:1052640071F06BC072F01200FFFFFFFF246E245038
:10527400196E1A6A1B6A8E0E1C6E000E1D6ECDEC22
:1052840034F019C021F01AC022F01BC023F0120020
:10529400FFFFFFFF21C019F022C01AF01B6A8E0E17
:1052A4001C6E000E1D6ECDEC34F019C021F01AC036
:1052B40022F01BC023F01200FFFFFFFF1C501D1043
:1052C4001E10D8B406D0000E1C1A000E1D1A800E33
:1052D4001E1AFFFF1CC01CF01DC01DF01EC01EF0D6
:1052E4001200FFFFFFFF27502902F3CF2BF0F4CF6A
:1052F4002CF027502A02F3502C2628502902F35070
:105304002C262BC027F02CC028F01200FFFFFFFF33
:1053140093C087F094C088F0000E0001896F000EDE
:1053240000018A6FCBEC0DF087C093F088C094F035
:1053340089C095F01200FFFFFFFF196E19C0C9FF65
:10534400C6AE02D0FF0E0BD0FFFFF2CF1AF0F29ED2
:105354009E96FFFF9EA6FDD71AC0F2FF000EFFFF28
:105364001200FFFFFFFF1C6E1AC01DF01BC01EF0D1
:105374001CC0D5FF1DC0D7FF1EC0D6FFF294190470
:10538400D8A402D0F28A02D0FFFFF29AFFFF1200E3
:10539400FFFFFFFF1A6E1AC0A9FF19C0A8FFA69E3F
:1053A400A69CA684F29E550EA76EAA0EA76EA68290
:1053B400F28EFFFFA1A8FDD7A694A1981200FFFFCB
:1053C400FFFF1B6E010E1A6E200E1B18D8B409D0F5
:1053D4000E0E1B6003D0090E1B6003D0FFFF000EEE
:1053E4001A6EFFFF1AC019F019301200FFFFFFFFF9
:1053F400949094929494949A938093829388938AA9
:105404008B828B848B8A000E196E000E1A6E000E2E
:105414001B6E000E1C6E4FEC30F08B9A1200FFFFD7
:10542400FFFF1D6E000E1E6E0DD0FFFF1D502BECF6
:1054340028F01BC0D9FF1CC0DAFFDF6E1D2A1B4AEF
:105444001C2A1E2AFFFF1A501E5CD8B01200FFFF50
:10545400ECD7FFFFFFFF1B6EC00E196E080ECBECDE
:1054640028F0DCEC28F035EC28F0500E9EEC29F006
:1054740021EC28F01B509EEC29F021EC28F042ECA2
:1054840028F093EC26F01200FFFFFFFF1E6E000EC3
:105494001F6E0ED0FFFF1CC0D9FF1DC0DAFFDF5006
:1054A400196E1E50CBEC29F01C4A1D2A1E2A1F2AF5
:1054B400FFFF1B501F5CD8B01200FFFFEBD7FFFFAC
:1054C400FFFF000E0101106F000E0101116F000EAD
:1054D4000101126F000E01010D6F000E01010E6F2C
:1054E400000E01010F6F000E01010A6F000E010191
:1054F4000B6F000E01010C6F1200FFFFFFFF196E0E
:1055040019A405D00001F0850001F09707D0FFFF32
:1055140019A60AD00001F0950001F087FFFF0001F1
:10552400EF8F0001EE8505D0FFFF0001F09500012B
:10553400F097FFFF1200FFFFFFFF196E19A805D0B7
:105544000001F0890001F09B07D0FFFF19AA0AD0DF
:105554000001F0990001F08BFFFF0001EF8F0001C3
:10556400EE8505D0FFFF0001F0990001F09BFFFFDD
:105574001200FFFFFFFF1C6EC2801CC01BF01B4605
:105584001B461B46C2501B18C70B1B18C26E090EC4
:10559400FFFFE82EFDD700F0C284FFFFC2B4FDD7A1
:1055A400C3CF1DF0C4CF1EF01DC019F01EC01AF0E9
:1055B4001200FFFFFFFF64C027F065C028F00B0E48
:1055C4002A6EF10E296E74EC29F0410E2724000195
:1055D400606FF40E28200001616F000E0001636FFC
:1055E400640E626F12EC2FF060C064F061C065F06D
:1055F4001200FFFFFFFF1B6EC00E196E080ECBECEE
:1056040028F0DCEC28F035EC28F0500E9EEC29F064
:1056140021EC28F0810E9EEC29F021EC28F01B509F
:105624009EEC29F021EC28F042EC28F093EC26F0D3
:105634001200FFFFFFFF1B6EC00E196E080ECBECAD
:1056440028F0DCEC28F035EC28F0500E9EEC29F024
:1056540021EC28F0820E9EEC29F021EC28F01B505E
:105664009EEC29F021EC28F042EC28F093EC26F093
:105674001200FFFFFFFF196E19A005D00001F08191
:105684000001F09307D0FFFF19A20AD00001F091A6
:105694000001F083FFFF0001EF8F0001EE8509D0C8
:1056A400FFFF0001F0910001F0930001EF9F000162
:1056B400EE95FFFF1200FFFFFFFF1A6E000E1C6E37
:1056C4001950D8B419D0010E1B6E04D0FFFFD89026
:1056D40019361B2AFFFF19AEF9D7FFFFD8901C36E5
:1056E40019501A5CD8A003D019501A5E1C80FFFF11
:1056F400D89019321B2EF1D7FFFF1C501200FFFF68
:10570400FFFF19C0F6FF1AC0F7FF0800FFFFF550AE
:105714001B18D8A405D019C019F01AC01AF011D05A
:10572400FFFF19C0F6FF1AC0F7FF194A1A2A08002A
:10573400FFFFF5500009D8A4E3D7000E196E000E40
:105744001A6EFFFF1200FFFFFFFF19C01DF01AC001
:105754001EF003D0FFFF1D4A1E2AFFFF1DC0F6FFE7
:105764001EC0F7FF0800FFFFF5500009D8A4F2D7C8
:1057740019C01BF01AC01CF01B1E1C1E1B4A1C2A3D
:105784001D501B24196E1E501C201A6E1200FFFFA0
:10579400FFFF1C6EC00E196E080ECBEC28F0DCEC7B
:1057A40028F035EC28F0500E9EEC29F021EC28F07E
:1057B4008A0E9EEC29F021EC28F01C509EEC29F076
:1057C40021EC28F01B509EEC29F021EC28F042EC4F
:1057D40028F093EC26F01200FFFF060EF66E000E82
:1057E400F76E000EF86E0900F5CFFCF00900F5CF56
:1057F400FDF001EE00F0BB0EEE6AE806FDE100EEFE
:10580400EDF00F0EEE6AE806FDE100EE30F0170E43
:10581400EE6AE806FDE147904792000EF86E00013B
:105824004CEF12F0FFFF000E0001CA6F000E0001E2
:10583400CB6FBA0E0001CC6F4D0E0001CD6FC60EBA
:105844000001C86F000E0001C96FCA0E00019D6FF0
:10585400000E00019E6FC4C09FF0C5C0A0F0C80E2A
:105864000001A16F000E0001A26FDBEC00F012003A
:10587400FFFFFFFF1B501C10D8B41CD0010E1D6E7F
:1058840005D0FFFFD8901B361C361D2AFFFF1CAE27
:10589400F8D7FFFF1B50195C1C501A58D8A004D02D
:1058A4001B50195E1C501A5AFFFFD8901C321B3231
:1058B4001D2EEFD7FFFF19C019F01AC01AF01200FD
:1058C400FFFFFFFF00016C5100016D1100016E111B
:1058D400D8B409D0000E00016C1B000E00016D1B32
:1058E400800E00016E1BFFFF69C060F06AC061F0AA
:1058F4006BC062F06CC063F06DC064F06EC065F0A4
:10590400D0EC19F060C069F061C06AF062C06BF05D
:105914001200FFFFFFFF05D0FFFF194A1A2A1B4A96
:105924001C2AFFFF19C0D9FF1AC0DAFFDF501D6E11
:105934001BC0F6FF1CC0F7FF0800FFFFF55000086E
:105944001D241E6E1E50D8A407D019C0D9FF1AC03A
:10595400DAFFDF50D8A4E0D7FFFF1E50196E1A6A91
:1059640019BE1A061200FFFFFFFF2BC11FF02CC146
:1059740020F02DC121F028C022F029C023F02AC034
:1059840024F0F6EC31F0D8B002D0010E15D0FFFFB0
:1059940028C01FF029C020F02AC021F028C122F01D
:1059A40029C123F02AC124F0F6EC31F0D8B002D09A
:1059B400020E02D0FFFF000EFFFF1200FFFFFFFFE9
:1059C4000F0E2D140001606F000E2E140001616F84
:1059D4002DC062F02EC063F0040E0001646FFFFF5F
:1059E40000016335633362330001642FF8D70F0E6F
:1059F40000016215276E286A000E2A6E0A0E296EAF
:105A040074EC29F00001605127242D6E00016151CE
:105A140028202E6E1200FFFFFFFF000E236E000EE3
:105A2400226E05D0FFFF1D4A1E2A224A232AFFFFA9
:105A34001DC0D9FF1EC0DAFFDF50D8B413D01FC079
:105A440019F020C01AF01DC0D9FF1EC0DAFFDF50C4
:105A5400216E21501B6E1C6A82EC2BF019501A1017
:105A6400D8B4E0D7FFFF22C01DF023C01EF01200FF
:105A7400FFFFFFFF000E236E000E226E05D0FFFF16
:105A84001D4A1E2A224A232AFFFF1DC0D9FF1EC019
:105A9400DAFFDF50D8B413D01FC019F020C01AF0B9
:105AA4001DC0D9FF1EC0DAFFDF50216E21501B6ECE
:105AB4001C6A82EC2BF019501A10D8A4E0D7FFFF0F
:105AC40022C01DF023C01EF01200FFFFFFFF000ED6
:105AD400216E000E226E000E236E000E246EFFFF58
:105AE40019A008D01D5021261E5022221F50232207
:105AF40020502422FFFFD8901D361E361F36203634
:105B0400D8901C321B321A32193219501A101B1039
:105B14001C10D8A4E4D721C019F022C01AF023C065
:105B24001BF024C01CF01200FFFFFFFF8E0E296E35
:105B340007D0FFFFD8902432233222322132292A7F
:105B4400FFFF000E2114256E000E2214266E000E97
:105B54002314276EFF0E2414286E255026102710B8
:105B64002810D8A4E6D721C019F022C01AF023C007
:105B74001BF029C01CF0000E1D6ECDEC34F019C0D2
:105B840021F01AC022F01BC023F01200FFFFFFFF18
:105B9400010E226E1EC019F01FC01AF0010E1C6EF9
:105BA400900E1B6E3BEC2CF019501A10D8B41BD07D
:105BB400030E1E14206E000E1F14216E205021109F
:105BC400D8A40ED01EC019F01FC01AF0000E1C6E0F
:105BD400640E1B6E3BEC2CF019501A10D8A403D0A1
:105BE400FFFF000E226EFFFF22C01EF01F6A12008C
:105BF400FFFFFFFF1B6E000EAC6E000EAB6E949C9D
:105C0400948E1BB0AC881BA202D0AC8CAB8CFFFF73
:105C14001BB4AC8E1BA602D0AB8802D0FFFFAB8AAC
:105C2400FFFF1BA802D0AC8402D0FFFFAC94FFFF9F
:105C34009E981BAC02D09D8A02D0FFFF9D9AFFFF65
:105C44001BAE02D09D8802D0FFFF9D98FFFF19C0B4
:105C5400AFFFAC8AAB8E1200FFFFFFFF030E1E14D2
:105C6400206E000E1F14216E20502110D8A41ED0C7
:105C74001EC019F01FC01AF0000E1C6E640E1B6EBD
:105C84003BEC2CF019501A10D8A415D02C0E1E245D
:105C9400196E010E1F201A6E010E1C6E900E1B6EE3
:105CA4003BEC2CF019501A10D8B405D0FFFF010EAC
:105CB4001F6E6D0E04D0FFFF010E1F6E6E0EFFFFF0
:105CC4001E6E1200FFFFFFFF206E000E216E000EFD
:105CD4001F6EC00E196E080ECBEC28F0180EC86E9D
:105CE400DCEC28F035EC28F020509EEC29F0216EF5
:105CF40021EC28F021261B509EEC29F0212621ECD2
:105D040028F00DD0FFFF1CC0D9FF1DC0DAFFDF5003
:105D14009EEC29F021261C4A1D2A21EC28F0FFFFC5
:105D240021261E061E28D8A4EDD742EC28F093ECB9
:105D340026F01200FFFFFFFF2A502B102C102D100D
:105D4400D8B428D0010E2E6E07D0FFFFD8902A3683
:105D54002B362C362D362E2AFFFF2DAEF6D7FFFF1D
:105D64002A50265C2B5027582C5028582D5029583F
:105D7400D8A008D02A50265E2B50275A2C50285AD7
:105D84002D50295AFFFFD8902D322C322B322A3233
:105D94002E2EE5D7FFFF26C026F027C027F028C007
:105DA40028F029C029F01200FFFFFFFF27C0D9FF08
:105DB40028C0DAFF2BC0DFFF29C019F01A6A000ED1
:105DC4001C6E0A0E1B6E0DEC30F01950300F2706B6
:105DD400D8A0280627C0D9FF28C0DAFFDF6E0A0E34
:105DE400196E29505EEC2BF0296E2950D8B40BD0D3
:105DF4002950300F2706D8A0280627C0D9FF28C06D
:105E0400DAFFDF6E0AD0FFFF2706D8A0280627C0D6
:105E1400D9FF28C0DAFF2AC0DFFFFFFF1200FFFF0F
:105E2400FFFF000E2F6E000E2E6E00016251000166
:105E34006311D8B42BD0010E2D6E06D0FFFF0001E4
:105E4400D890623763372D2AFFFF000163AFF6D77E
:105E5400FFFFD8902E362F36000162510001605D9D
:105E64000001635100016159D8A009D000016251B9
:105E74000001605F000163510001615B2E80FFFF40
:105E84000001D890633362332D2EE2D7FFFF2EC07A
:105E940060F02FC061F01200FFFFFFFF65C019F032
:105EA40066C01AF0510E1B6E7F0E1C6E8CEC2CF02B
:105EB40019501A10D8A40FD067C02DF068C02EF066
:105EC40050EC38F02DC069F02EC06AF00001695121
:105ED4001CEC2BF01DD0FFFF65C019F066C01AF052
:105EE4002C0E1B6E7F0E1C6E8CEC2CF019501A10AD
:105EF400D8A40ED067C02DF068C02EF050EC38F056
:105F04002DC069F02EC06AF000016951FCEC2AF042
:105F1400FFFF1200FFFFFFFFC4C0D8F0C5C0D9F0D7
:105F2400000E0001DA6F000E0001DB6FC80E0001E5
:105F3400D66F000E0001D76FD80E00019D6F000EC2
:105F440000019E6FC6C09FF0C7C0A0F0D60E00012E
:105F5400A16F000E0001A26FDBEC00F0D8C0D9FFE6
:105F6400D9C0DAFF000EDF6EC4C0D4F0C5C0D5F0CE
:105F74000001D41FD51FD44BD52B0001D8510001EB
:105F8400D4250001C46F0001D9510001D5210001BD
:105F9400C56F1200FFFFFFFF000E2A6E8E0E296EE2
:105FA40024AE12D0241E231E221E216C000E222297
:105FB40023222422010E2A6E07D0FFFFD890243218
:105FC400233222322132292AFFFF000E2114256EAA
:105FD400000E2214266E000E2314276EFF0E2414C6
:105FE400286E2550261027102810D8A4E6D721C0E3
:105FF40019F022C01AF023C01BF029C01CF02AC0DB
:106004001DF0CDEC34F019C021F01AC022F01BC0F1
:1060140023F01200FFFFFFFF000E1E6E1AAE06D023
:10602400196C1A1ED8B01A2A010E1E6EFFFF1CAE80
:1060340004D01B6C1C1ED8B01C2AFFFF1B501C1064
:10604400D8B41CD0010E1D6E05D0FFFFD8901B36AE
:106054001C361D2AFFFF1CAEF8D7FFFF1B50195C2E
:106064001C501A58D8A004D01B50195E1C501A5A40
:10607400FFFFD8901C321B321D2EEFD7FFFF1E509E
:10608400D8B404D0196C1A1ED8B01A2AFFFF19C04C
:1060940019F01AC01AF01200FFFFFFFF000E216E64
:1060A40019C01DF01AC01EF01BC01FF01CC020F048
:1060B400000E216EFFFF170E216401D028D0FFFFD0
:1060C400000E19141D6E000E1A141E6E000E1B1401
:1060D4001F6E800E1C14206E1D501E101F102010E9
:1060E400D8A402D08B9002D0FFFF8B80FFFF8B924D
:1060F40000D000D000F08B82D8901934196E1A3475
:106104001A6E1B341B6E1C341C6E212AD3D7FFFF5E
:106114008B9400D000D000F08B841200FFFFFFFFAF
:10612400000E1F6E000E1E6EC00E196E080ECBEC14
:1061340028F0180EC86EDCEC28F035EC28F0500E70
:106144009EEC29F01F6E21EC28F01F26800E9EEC99
:1061540029F01F2621EC28F019D0FFFF1BC0F6FF01
:106164001CC0F7FFF86A050EF76404D00800FFFFAF
:10617400F55005D0F6CFE1FFF7CFE2FFE7509EECF4
:1061840029F01F261B4A1C2A21EC28F0FFFF1F269A
:106194001D061D28D8A4E1D742EC28F093EC26F084
:1061A4001200FFFFFFFFDCC019F0DDC01AF0E50E9E
:1061B4001B6E7F0E1C6E8CEC2CF019501A10D8A498
:1061C4000BD0C2EC26F019C01CF01AC01DF01BC085
:1061D4001EF00FEC28F028D0FFFFDCC019F0DDC062
:1061E4001AF0D90E1B6E7F0E1C6E8CEC2CF019501D
:1061F4001A10D8A40BD0C2EC26F019C01CF01AC097
:106204001DF01BC01EF018EC28F00ED0FFFFF6C0E6
:10621400C4F0F7C0C5F0690E0001C66F7F0E00011F
:10622400C76F8DEC2FF09D88FFFF1200FFFFFFFF6B
:10623400000E216E000E226E000E236E000E246EE0
:106244001D501E101F102010D8B42ED0010E256E24
:1062540007D0FFFFD8901D361E361F362036252A5C
:10626400FFFF20AEF6D7FFFFD89021362236233623
:1062740024361D50195C1E501A581F501B582050AC
:106284001C58D8A009D01D50195E1E501A5A1F5010
:106294001B5A20501C5A2180FFFFD89020321F32F5
:1062A4001E321D32252EDFD7FFFF21C019F022C078
:1062B4001AF023C01BF024C01CF01200FFFFFFFFE4
:1062C40060C0D9FF61C0DAFFDECF62F0DECF63F0D9
:1062D400DECF64F0DECF65F0F4C019F0F5C01AF03B
:1062E400000E1ABEFF0E1B6E1C6E3C0E1D6E000EC1
:1062F4001E6E000E1F6E000E206E68EC2DF0191E2F
:106304001A1E1B1E1C1E192A000E1A221B221C22D6
:106314000001625119240001666F000163511A20C3
:106324000001676F000164511B200001686F0001C8
:1063340065511C200001696F660E276E000E286EE1
:106344006EEC1DF027C060F028C061F01200FFFF62
:10635400FFFF000E246E22AE06D0216C221ED8B0A0
:10636400222A010E246EFFFF20AE06D01F6C201ED1
:10637400D8B0202A010E241AFFFF000E266E000E4C
:10638400256E21502210D8B420D0010E236E05D0E2
:10639400FFFFD89021362236232AFFFF22AEF8D7FA
:1063A400FFFFD8902536263621501F5C22502058F6
:1063B400D8A005D021501F5E2250205A2580FFFF0F
:1063C400D89022322132232EEBD7FFFF2450D8B4A9
:1063D40004D0256C261ED8B0262AFFFF25C01FF046
:1063E40026C020F01200FFFFFFFF21AE16D01FC011
:1063F40025F020C026F021C027F0251E261E271ECA
:10640400252A000E26222722000E25241F6E000EA8
:106414002620206E800E2720216EFFFF24AE16D08A
:1064240022C025F023C026F024C027F0251E261EF6
:10643400271E252A000E26222722000E2524226E3E
:10644400000E2620236E800E2720246EFFFF000EF0
:106454001F1A000E201A800E211A000E221A000E96
:10646400231A800E241A22501F5C235020582450D3
:106474002158D8B002D0D89002D0FFFFD880FFFFB7
:106484001200FFFFFFFF000E0001686F000E676F30
:10649400000E00016A6F010E696F33D0FFFF000E1A
:1064A4001C6E0A0E1B6E65C019F066C01AF00DEC66
:1064B40030F019C027F01AC028F069C029F06AC06A
:1064C4002AF074EC29F027500001672728500001B6
:1064D40068230001693B6A3BF00E6A1769510F0B90
:1064E4006A13F00E691765C01FF066C020F0000E35
:1064F400226E0A0E216EAAEC31F01FC065F020C096
:1065040066F0FFFF000166BF07D000016651C7E1D6
:1065140000016505D8B0C2D7FFFF67C065F068C049
:1065240066F01200FFFFFFFF87C07BF088C07CF09D
:1065340089C07DF0000E0001636F800E0001646F5E
:106544003F0E0001656F3FC01CF040C01DF041C00C
:106554001EF05FEC29F01CC060F01DC061F01EC08D
:1065640062F0D0EC19F060C078F061C079F062C0DC
:106574007AF053EC3CF078C08AF079C08BF07AC0A2
:106584008CF04FC17BF050C17CF051C17DF03FC015
:1065940078F040C079F041C07AF053EC3CF078C018
:1065A40060F079C061F07AC062F08AC063F08BC099
:1065B40064F08CC065F0D0EC19F060C08DF061C05F
:1065C4008EF062C08FF08DC04FF18EC050F18FC03D
:1065D40051F18DC087F08EC088F08FC089F0120011
:1065E400FFFFFFFF87C07BF088C07CF089C07DF08F
:1065F400000E0001636F800E0001646F3F0E000106
:10660400656F3FC01CF040C01DF041C01EF05FEC40
:1066140029F01CC060F01DC061F01EC062F0D0EC17
:1066240019F060C078F061C079F062C07AF053EC80
:106634003CF078C08AF079C08BF07AC08CF04CC101
:106644007BF04DC17CF04EC17DF03FC078F040C07E
:1066540079F041C07AF053EC3CF078C060F079C036
:1066640061F07AC062F08AC063F08BC064F08CC0C1
:1066740065F0D0EC19F060C08DF061C08EF062C09E
:106684008FF08DC04CF18EC04DF18FC04EF18DC096
:1066940087F08EC088F08FC089F01200FFFFFFFFE3
:1066A40087C07BF088C07CF089C07DF0000E0001BB
:1066B400636F800E0001646F3F0E0001656F3FC081
:1066C4001CF040C01DF041C01EF05FEC29F01CC05E
:1066D40060F01DC061F01EC062F0D0EC19F060C023
:1066E40078F061C079F062C07AF053EC3CF078C085
:1066F4008AF079C08BF07AC08CF049C17BF04AC132
:106704007CF04BC17DF03FC078F040C079F041C0CF
:106714007AF053EC3CF078C060F079C061F07AC054
:1067240062F08AC063F08BC064F08CC065F0D0EC7A
:1067340019F060C08DF061C08EF062C08FF08DC022
:1067440049F18EC04AF18FC04BF18DC087F08EC0E5
:1067540088F08FC089F01200FFFFFFFF87C07BF035
:1067640088C07CF089C07DF0000E0001636F800E4C
:106774000001646F3F0E0001656F3FC01CF040C014
:106784001DF041C01EF05FEC29F01CC060F01DC07C
:1067940061F01EC062F0D0EC19F060C078F061C006
:1067A40079F062C07AF053EC3CF078C08AF079C09A
:1067B4008BF07AC08CF046C17BF047C17CF048C1B5
:1067C4007DF03FC078F040C079F041C07AF053ECDE
:1067D4003CF078C060F079C061F07AC062F08AC0A1
:1067E40063F08BC064F08CC065F0D0EC19F060C02D
:1067F4008DF061C08EF062C08FF08DC046F18EC006
